:100000000C94D0040C94ED040C94ED040C94ED04C9
:100010000C94ED040C94ED040C94ED040C94ED049C
:100020000C94ED040C94ED040C94A30E0C94E50DCB
:100030000C94AF240C94ED040C94ED040C94ED049A
:100040000C94ED040C94ED040C94ED040C94ED046C
:100050000C94ED040C946E240C94ED040C94ED04BB
:100060000C94ED040C94ED040C94ED040C94ED044C
:100070000C94ED040C94ED040C94ED040C94ED043C
:100080000C94ED040C94ED040C94ED040C94ED042C
:100090000C94ED040C94ED040C94ED040C94ED041C
:1000A0000C94ED040C94ED040C94ED042B082B0837
:1000B0005E085E08C908E708F109F109F208660957
:1000C00077097709F80B1F0CCD0D1F0CCD0D6B0CAC
:1000D0008E0CCD0D830D930D3A153D15401543152E
:1000E00048154B15501560156E157C158A15981519
:1000F00098159815F816FB16FE1601170417071722
:100100000A1705010980A101850319012AB7001505
:100110000126B700950175108100C0050C0901A1E9
:1001200001850419012AA002150126A00295017576
:10013000108100C005010906A1018506050719E027
:1001400029E71500250195087501810205071900A9
:1001500029EF1500250195F07501810205081901A7
:100160002905950575019102950175039101C00559
:10017000010902A1010901A10005091901290815B8
:100180000025019508750181020501093009311525
:1001900081257F95027508810609381581257F958F
:1001A0000175088106050C0A38021581257F950125
:1001B00075088106C0C00660FF0961A101096215CA
:1001C0000026FF009520750881020963150026FFAF
:1001D00000952075089102C005010906A1010507D7
:1001E00019E029E71500250195087501810295019F
:1001F000750881010507190029FF150026FF0095E4
:1002000006750881000508190129059505750191F4
:1002100002950175039101C009027400040100A058
:10022000FA09040000010301010009211101000184
:1002300022400007058103080001090401000203B0
:10024000000000092111010001222200070583039B
:100250002000010705040320000109040200010336
:100260000102000921110100012247000705820354
:100270000800010904030001030000000921110125
:100280000001226D00070585032000011201000214
:1002900000000008973275490100010200012203A5
:1002A0004500720067006F0044006F007800200076
:1002B00045005A0020005300680069006E00650088
:1002C000000028035A00530041002000540065003C
:1002D000630068006E006F006C006F0067007900BB
:1002E00020004C0061006200730000000403090458
:1002F00000047F3F1F643214643214783C1E1E14C5
:100300000A0524022B0029000151E00000002F0003
:10031000330004003461E2004D432F023600120026
:100320001400E300E3003002370008000D00500025
:100330002A002602130018000E004F004A002E006B
:100340001C000C001B000000C35C210202530000D3
:10035000000F0000CB5C1F020353000000070000E9
:10036000CA5C2502090007000500000004532702AB
:100370000A000B00100052004B672E020600170007
:100380001A0051002C003000150011001900060859
:1003900028001E020F0016001D7119084E6F200262
:1003A00038002D0001513100000022022B022902E9
:1003B0000100E00200002400330204023402E202E1
:1003C00001002200360212021402E302E3022000BE
:1003D000370208020D0201002A021E001302180251
:1003E0000E0201004A0226001C020C021B02000041
:1003F000C45C35020100000001000000CD5C230256
:100400000100000001000000CC5C27000902070287
:100410000502000001001F000A020B021002010089
:100420004B022100060217021A0201002C022300CF
:100430001502110219020100280225000F021602FE
:100440001D0201004E02350038022D02010031026A
:100450000000010001002B000100010000003A0033
:10046000A800AA000100005C045D3B00AC00EF00A6
:1004700001000100F2003C00ED00EE000100500020
:10048000F1003D00AB00F00001004F0001003E0014
:100490000100A9000100000001003F000100000070
:1004A000095D0000A600400001000000095D000099
:1004B000A50041002A002A002A000000065D420033
:1004C000240021001E002700010043002500220017
:1004D0001F003600FA0044002600230020003700E9
:1004E000F9004500250257002E000100055D0100BE
:1004F0003800280001000100000001000100010097
:1005000001000100000001000100010001000100E4
:10051000010001000100010001000100E2000100F2
:1005200001000100010001000100010001000100C3
:1005300001000100010001000100010001000000B4
:1005400001000100010000000100000001000100A5
:100550000100000001000000010001000100010095
:1005600001000000E30401000A040B041004010070
:10057000E2020100060417041A040100E30101006D
:100580001504110419040100E30201000100010037
:1005900001000100E2010100010001000100010071
:1005A00000000100010001000551010000000100F0
:1005B00001000100010001000100010068006B0062
:1005C0006E0071000651010069006C006F0072003E
:1005D0002A0001006A006D00700073000100010034
:1005E0000100010001000000010001000100000005
:1005F00001000000010001000100000001000000F6
:1006000001000100010001000100000001000100E3
:100610003A003D0040004300010001003B003E0065
:1006200041004400010001003C003F004200450041
:1006300001000100010001000100010001000100B2
:1006400001000100010001000000010001000100A3
:100650000100010000000100010001000100010093
:100660000100010068026B026E02710201000100CC
:1006700069026C026F027202010001006A026D02DF
:10068000700273020100010001000100010000007E
:100690000100010001000000010000000100010054
:1006A0000100000001000000010001000100010044
:1006B00001000000010001003A023D024002430235
:1006C000010001003B023E02410244020100010020
:1006D0003C023F024202450201000100010001000C
:1006E0000100010001000100010001000100010002
:1006F00000000100010001000100010000000100F4
:1007000001000100010001000100010068046B0408
:100710006E0471040100010069046C046F0472042A
:10072000010001006A046D047004730401000100FB
:1007300001000100010000000100010001000000B3
:1007400001000000010001000100000001000000A4
:100750000100010001000100010000000100010092
:100760003A043D0440044304010001003B043E04FC
:1007700041044404010001003C043F0442044504D8
:100780000100010001000100010001000100010061
:100790000100010001000100000000010101010150
:1007A000010101010202020202020202020303032A
:1007B00003030303030404040404040405050505FA
:1007C00005060606060607070707070808080809BA
:1007D0000909090A0A0A0B0B0B0C0C0C0D0D0D0E66
:1007E0000E0E0F0F0F1010111111121213131414FB
:1007F000151516161717181819191A1A1B1B1C1D70
:100800001D1E1E1F202021222223242425262627C8
:100810002829292A2B2C2D2D2E2F303132323334FA
:1008200035363738393A3B3C3D3E3F404142434400
:1008300045464748494A4C4D4E4F505153545556E2
:1008400058595A5B5D5E5F616264656668696B6C8E
:100850006D6F7072737577787A7B7D7E8082838509
:1008600087888A8C8E8F91939596989A9C9EA0A249
:10087000A3A5A7A9ABADAFB1B3B5B7BABCBEC0C253
:10088000C4C6C9CBCDCFD1D4D6D8DBDDDFE2E4E717
:10089000E9EBEEF0F3F5F8FAFDFFFFAA7F554022F1
:1008A00023252628292A2C2D2F3032333536383A65
:1008B0003B3D3E4042434547494A4C4E50515355BB
:1008C00057595A5C5E6062646668696B6D6F7173DC
:1008D0007577797B7D7F81838587898A8C8E9092DD
:1008E0009496989A9C9E9FA1A3A5A7A8AAACAEAFE8
:1008F000B1B3B4B6B8B9BBBCBEBFC1C2C3C5C6C72D
:10090000C9CACBCCCDCED0D1D2D2D3D4D5D6D7D7DD
:10091000D8D9D9DADADBDBDBDCDCDCDCDCDDDDDD25
:10092000DDDCDCDCDCDCDBDBDBDADAD9D9D8D7D721
:10093000D6D5D4D3D2D2D1D0CECDCCCBCAC9C7C6CE
:10094000C5C3C2C1BFBEBCBBB9B8B6B4B3B1AFAE0C
:10095000ACAAA8A7A5A3A19F9E9C9A9896949290B2
:100960008E8C8A89878583817F7D7B79777573718A
:100970006F6D6B6968666462605E5C5A5957555367
:1009800051504E4C4A4947454342403E3D3B3A3820
:1009900036353332302F2D2C2A29282625232200C4
:1009A00011241FBECFEFDAE0DEBFCDBF11E0A0E023
:1009B000B1E0EEE1F7E502C005900D92A23AB10771
:1009C000D9F726E0A2EAB1E001C01D92A133B20737
:1009D000E1F70E9403100C948D2B0C940000A5E20B
:1009E000B0E0E5EFF4E00C94C828FC01808191812F
:1009F00023813481232B31F09F3F31F491E08F3FED
:100A000019F403C091E001C090E090FD28C57F017A
:100A100085E0DE01919601900D928A95E1F7D7016C
:100A200012962C9189A19AA1222349F00E942A1C96
:100A3000182F682F89A19AA10E94411E03C00E940D
:100A40000D1E182F69A17AA1812F0E94AE178C016B
:100A50008091A404811149C0F70182818111A8C04D
:100A60000530FDE51F0731F1A0F404308DE51807CE
:100A700009F09EC00E9461170E94BE1E80E00E9485
:100A8000761E84EA91E09093D6048093D50481E0A9
:100A90001FC007309DE51907F1F00830ADE51A07D2
:100AA00009F086C060910A0170910B014FEF8EE949
:100AB00094E018C00E9461170E94BE1E80E00E9450
:100AC000761E8EE994E09093D6048093D50482E05C
:100AD0008093A404B4C460910C0170910D0141E0B5
:100AE00084EA91E00E943925AAC4980124503D452A
:100AF0002330310508F045C091E00630BDE51B0705
:100B000009F490E0F7012281291709F498C4813093
:100B100069F0823099F50091D5041091D6041092B5
:100B20009D0580911C060E94241520C00091D504CB
:100B30001091D60410929D0580911C060E942415E8
:100B4000F1E0043A1F0739F0F801369782818823D3
:100B500011F08F01F5CF10930D0100930C010EC021
:100B6000F80136968281882329F08F0124E00E391E
:100B70001207B1F710930B0100930A011092A4041D
:100B80005EC4813059F0823099F460910C0170910B
:100B90000D0197014FEF8EE994E008C060910A01C2
:100BA00070910B01970141E084EA91E00E94F00A04
:100BB0009091D704D70112968C91992309F44DC0D6
:100BC00081113DC4E091A504E330A0F481E08E0FD3
:100BD0008093A504F0E0EE0FFF1FE25FFA4FD7010C
:100BE0008D919C919183808382E08983CE010196CF
:100BF0000E94D70FBFEFE3EDF0E3B150E040F040CB
:100C0000E1F700C000008091A504833009F017C40B
:100C10001092A504E4E1F5E0AEE0B5E08AE195E0EC
:100C2000318111962C91119732132EC030812C9165
:100C300032132AC0329612968E179F0789F784E0E6
:100C4000898381E08093D8048EEF8A831092D70441
:100C5000CE0101960E94D70FF2C39091D804992338
:100C6000C1F0882311F086E001C087E08983D701B5
:100C70008C918A8311968C918B838EEF8C83CE011D
:100C800001960E94D70F05C083E089831092D80493
:100C9000DBCFF70182810F3AFDE51F07D1F58823ED
:100CA00009F44DC09091DC0481E0890F8770987F32
:100CB000853020F4892B8093DC0402C09093DC04FF
:100CC0008091DC048770BFEF8B9FC0011124959544
:100CD00087959595879599279093890080938800AB
:100CE00090938B0080938A0090938D0080938C006A
:100CF0004091DC045091DD046091DE047091DF04CA
:100D00008FE090E00E949A2980911C060E94241591
:100D100016C0003BEDE51E0741F0013BFDE51F0756
:100D200071F4882309F48BC326C0882309F487C390
:100D30009091A60481E089278093A60480C3D701FF
:100D400012968C918111CEC08091940582720D3CD7
:100D50002CE5120709F4ACC0B8F0023DBCE51B0756
:100D600009F4B3C008F062C00F3CFCE51F0709F4AA
:100D7000A6C008F04EC081E004C0816080931706D1
:100D800086950E942C225BC3073CACE51A0709F448
:100D90007BC0D8F4043CECE51E0709F46BC030F4CA
:100DA000033C2CE5120709F45EC008C1053C9CE534
:100DB000190709F464C0063CACE51A0709F0FEC047
:100DC00046E951E260EA71E277C00A3CBCE51B07E4
:100DD00009F464C078F4083CFCE51F0709F459C025
:100DE000093C2CE5120709F0E9C049E851E26CE73B
:100DF00071E262C00B3C9CE5190709F454C00C3C3D
:100E0000ACE51A0709F0DAC045EE5FE167EF7FE174
:100E100053C0003D8CE5180709F454C0013D9CE522
:100E2000190709F0CBC06EE089E057C0053DACE57D
:100E30001A0709F450C060F4033DECE51E0709F4FD
:100E400047C0043DFCE51F0709F0B8C088E199CF11
:100E5000063D2CE5120709F443C00F358DE5180750
:100E600009F4EDC2ABC08091170680FF86CF0E94C7
:100E70002B20E5C240E352E26AE372E21DC04AE37E
:100E800052E260E372E218C040EA51E266E971E2C0
:100E900013C04CE751E269E871E20EC042E651E24C
:100EA0006FE671E209C04FE651E262E671E204C00A
:100EB00047EF5FE165EE7FE10E949725C0C265E0E4
:100EC00082E00BC068E086E008C064E18FE005C006
:100ED00067E185E102C062E289E10E948425AFC238
:100EE00083E24FCF0C359DE5190709F462C060F429
:100EF0000115BCE51B07A9F00F3DECE51E0709F045
:100F00005DC00E9461194AC00E35FDE51F0709F456
:100F100048C008F450C0093A8DE5180709F43EC0EE
:100F20004DC00E94BE1E9FEFA4E3BCE09150A040C4
:100F3000B040E1F700C00000F89481E08093E00049
:100F400080E28093D8001092C900EFE1FEE431976F
:100F5000F1F700C000001DBA109268001CBC10BE62
:100F60001FBA10927A0010926E0010926F001092C9
:100F70007100109272001092C9001092BC0014B857
:100F800017B81AB81DB810BA1092BC0015B818B826
:100F90001BB81EB811BA0C94003F51C20E940E1526
:100FA0004EC28091290682FB882780F991E089272B
:100FB00003C081E001C080E00E94561AF7018281DF
:100FC00000811181882349F0C8010E942A1CD82E73
:100FD000682FC8010E94411E04C0C8010E940D1E56
:100FE000D82EB8018D2D0E94AE170E94C717B82EBB
:100FF000192F982EF7010281A580A2949FE0A922C3
:10100000809172058770B9F00023A9F0812F807F4D
:10101000803421F080E28B0D883068F080912906C1
:1010200082FF09C082E00E94391A809172058770A0
:10103000DD24D3948111D12CC12EC2948FE0C8221B
:101040008C2D90E08C30910508F0CBC1FC01EA5A60
:10105000FF4F0C94312A812F807F1F70882311F05D
:101060001295107F0023B9F0112309F4A8C180E282
:101070008B0D883010F0911006C080919405182BCC
:101080001093940505C080919305182B1093930538
:101090000E94E41994C18B2D0E94E51E112309F4CE
:1010A000A0C180E28B0D883080F1992071F11095FC
:1010B000809193051823109393052AC0812F807F78
:1010C0001F70803211F01295107F8B2D992021F026
:1010D000F1E09F16D9F147C08091290682FD1BC01F
:1010E000002369F0112339F080919405182B109397
:1010F00094050E94E41980E00E941A1F72C180E0EA
:101100000E94E51E112309F46CC1812F0E94DD1994
:101110000E94E41966C1002381F080919505AA2000
:1011200051F021E0A21207C0182B181709F459C179
:101130001093950556C1812B10C0AA2021F081E0A3
:10114000A81609F44EC10E94D7191FC0002341F010
:1011500091E09A1508F445C1812F0E94DB1E41C120
:10116000A1103FC112C0002319F0AA20A9F327C182
:10117000AA2059F0893309F031C1AFEFB7EEE3E0AF
:10118000A150B040E040E1F727C1812F0E94D41E5A
:1011900028C1812F86958695837019F0813061F082
:1011A00020C1002321F08B2D912F937002C080E08D
:1011B00090E00E9416251BC1002321F08B2D912F5A
:1011C000937002C080E090E00E94002510C18B2D3A
:1011D000002319F00E94FF2202C00E9445220E94B3
:1011E0005A2305C1812F8370A9F50111FEC04B2D33
:1011F000429546954770440F440F8B2D8F7090E0B9
:101200009C01042E01C0220F0A94EAF7B4FE08C024
:101210008FE090E001C0880F4A95EAF7809501C001
:1012200080E0169516951370123069F088F490914D
:101230009605113019F0822B892302C0922B892B3D
:101240000E94B91ED2C0822B909196058927F8CFB3
:10125000822BF6CF002319F0812F817001C0869573
:10126000882309F4C2C04B2D429546954770440F20
:10127000440F8B2D8F7090E09C01042E01C0220F33
:101280000A94EAF7B4FE08C08FE090E001C0880F2E
:101290004A95EAF7809501C080E01695169513707F
:1012A000123059F078F490911C06113019F0822B0D
:1012B000892309C0922B892B06C0822B90911C0692
:1012C000892701C0822B0E94761E8FC01F700023C9
:1012D00039F0812F0E94AD1E8B2D0E94DB1E85C030
:1012E0008B2D0E94D41E812F0E94A01E7EC08B2DAC
:1012F000F2EF9F1669F1F91538F020EF921659F0C8
:1013000091EF991601F157C0A3EF9A1641F1B4EF8E
:101310009B16A9F050C0002369F0A11062C01F7194
:1013200081E090E001C0880F1A95EAF790911C06C1
:1013300089271FC0E1E0EA1508F453C0F0CF80917F
:10134000290682FD19C0002329F0812F8F7126C044
:101350000023D9F3812F8F710E94A01E42C0002369
:1013600039F01F7181E001C0880F1A95EAF701C0BA
:1013700080E00E94761E35C0002399F01F71812FF6
:101380000E94AD1E8091290682FF07C0F8E01F9FD2
:10139000C0011124836080937205812F0E94AD1ECD
:1013A00020C081E00E94391A21E02A15D0F482E0A1
:1013B0000E94391A16C0002321F0AA2031F28B2D89
:1013C0009BCEAA2039F2893349F48FEF97EEA3E040
:1013D00081509040A040E1F700C000008B2D0E949A
:1013E000E51E88EF8C0D843010F40E942C25DD2042
:1013F000A9F08091720580FD11C0F70112828595D8
:10140000859585950E94AD1EC7010E94EF048091CD
:1014100072058595859585950E94A01E85E0F7014A
:10142000DE01119601900D928A95E1F709811A81EA
:10143000C8010E940D1EB8010E94AE1710C0809115
:101440007205877061F0D70112968C91882339F06C
:101450008091290682FF03C082E00E94391AA59676
:10146000EBE00C94E4288091CD0487FF11C08091BB
:10147000E80082FD05C08091D9048111F8CF11C028
:101480008091E8008B770BC08091D904882349F0C4
:101490008091E80080FFF8CF8091E8008E778093FC
:1014A000E8000895982F973068F59093E900981711
:1014B00039F07091EC002091ED005091F00003C0E4
:1014C000242F762F50E021FD02C09F5FECCF30919A
:1014D000EB003E7F3093EB003091ED003D7F309389
:1014E000ED003091EB0031603093EB007093EC0035
:1014F0002093ED005093F0002091EE0027FDE5CF02
:1015000080E008958F708093E90081E00895209134
:10151000D3043091D4042617370748F061157105BC
:1015200039F42091E8002E772093E80001C0B9013A
:10153000FC0120E06115710579F18091D9048823BF
:10154000F1F18530F1F18091E80083FD3CC080919C
:10155000E80082FD2EC08091E80080FFEBCF209153
:10156000F3008091F20090E0922B6115710551F02B
:101570008830910538F421912093F1006150710970
:101580000196F3CF21E0089709F020E08091E80070
:101590008E778093E800CECF2111CFCF0AC0809103
:1015A000D904882361F0853061F08091E80083FDE3
:1015B0000AC08091E80082FFF2CF80E0089582E0C7
:1015C000089583E0089581E008950895BC0184E0C2
:1015D0000E9443240895BC0183E00E94432408959F
:1015E000F9012281A091D504B091D604211103C044
:1015F000A817B907C9F086E04802A0011124CD015F
:10160000841B950B6817790779F086E001900D929D
:101610008A95E1F78091D5049091D604480F591F1F
:101620005093D6044093D5040895AAE2B0E0EBE1CC
:10163000FBE00C94D028EDECF4E085ED94E02091F3
:10164000F10021938E179F07D1F78091CE0483304C
:1016500009F463C030F4813071F0823009F49DC028
:10166000B4C08A3009F489C08B3009F46EC0893067
:1016700009F0ABC020C08091CD04813A09F0A5C02B
:101680008091E800877F8093E8008091D104909159
:10169000D204892B21F460E28AEA94E003C060E07E
:1016A00080E090E070E00E94870A8091E8008B77EC
:1016B0008093E8008AC08091CD04813209F085C012
:1016C0008091D1049091D204009719F0039709F00A
:1016D0007CC08091E800877F8093E8008091E800DB
:1016E00082FD05C08091D9048111F8CF6EC0209190
:1016F000F3008091F20090E0922B029731F48091F8
:10170000F100813011F0863021F48091F100809356
:10171000A9048091E8008B7754C08091CD04813A70
:1017200009F053C08091D1049091D204892B09F023
:101730004CC08091E800877F8093E8008091E800AA
:1017400080FFFCCF80910E0137C08091CD048132A3
:10175000E1F58091D1049091D204892BB1F580916B
:10176000E800877F8093E8000E94330A8091CF04CD
:1017700080930E010E94BE1E28C08091CD0481324C
:1017800021F58091E800877F8093E8000E94330A6A
:101790008091D0048093A80418C08091CD04813A30
:1017A000A1F48091E800877F8093E8008091E800B1
:1017B00080FFFCCF8091A8048093F1008091E80025
:1017C0008E778093E8000E94330A8091E80083FFBF
:1017D000E4C18091CD049091CE04492F50E04A306D
:1017E000510508F0DAC1FA01EE59FF4F0C94312A85
:1017F000803821F0823809F0D0C108C08091CA0435
:101800009091CB04992389F082600FC08091D1041C
:101810008F70873008F0C1C18093E9008091EB00A0
:1018200085FB882780F91092E9009091E800977F66
:101830009093E8008093F1001092F10070C1282F7E
:101840002D7F09F0AAC1882319F0823061F0A5C16B
:101850008091CF04813009F0A0C1933009F080E07D
:101860008093CB042EC08091CF0481112AC0809137
:10187000D1048F702FEF280F263008F08EC180938F
:10188000E9002091EB0020FF1CC0933021F48091EF
:10189000EB00806214C09091EB0090619093EB009C
:1018A00021E030E0A90102C0440F551F8A95E2F7FC
:1018B0004093EA001092EA008091EB0088608093E8
:1018C000EB001092E9008091E800877F8093E800A8
:1018D0000E94330A62C1811160C11091CF041F7749
:1018E0008091E3008078812B8093E3008091E80071
:1018F000877F8093E8000E94330A8091E80080FF90
:10190000FCCF8091E30080688093E300111102C056
:1019100082E001C083E08093D9043FC180588230C7
:1019200008F03BC12091CF043091D0042C3D53E00E
:10193000350779F583E08A838AE289834FB7F89483
:10194000DE01139620E03EE051E2E32FF0E05093F9
:101950005700E49120FF03C0E295EF703F5FEF7006
:101960008E2F90E0EA3010F0C79601C0C0968D939C
:101970009D932F5F243149F74FBF8091E800877F07
:101980008093E8006AE270E0CE0101960E94870A27
:10199000B4C08091D1049091D204432F5527433095
:1019A0005105A9F068F44130510509F405C14230F0
:1019B000510509F0F2C084E790E0E8E1F2E04BC0A5
:1019C0004132510529F14232510589F1E6C0C90180
:1019D000992781309105A1F058F0029709F0DDC0F8
:1019E000EEE9F2E0E4918E2F90E0EEE9F2E030C013
:1019F000ECEEF2E0E4918E2F90E0ECEEF2E028C005
:101A0000E2ECF2E0E4918E2F90E0E2ECF2E020C014
:101A10008430910508F0C1C0880F991FFC01E85C73
:101A2000FE4F0190F081E02D89E090E014C08430F9
:101A3000910508F0B2C0FC01EE0FFF1FE05DFE4F04
:101A40000190F081E02DDC01A45DBE4F8C9190E00F
:101A5000009709F4A2C02091E800277F2093E800B6
:101A60002091D3043091D4042817390708F4C90110
:101A700040E0009789F12091D904222309F43DC068
:101A80002530D9F12091E80023FD37C02091E800EE
:101A900022FD2FC02091E80020FFEBCF4091F30002
:101AA0002091F20030E0342B009759F028303105B6
:101AB00040F444914093F100319601972F5F3F4FDE
:101AC000F3CF41E02830310509F040E02091E800F3
:101AD0002E772093E800CDCF4111CDCF0AC0809161
:101AE000D904882351F0853041F08091E80083FDCE
:101AF00004C08091E80082FFF2CF8091E8008B77EC
:101B00008093E8004AC0803809F047C08091E8001F
:101B1000877F8093E8008091CC048093F1008091CE
:101B2000E8008E77D3CE811138C08091CF04909198
:101B3000D004992702978CF58091E800877F8093E5
:101B4000E8001091CF041093CC040E94330A1111C5
:101B500006C08091E30087FD02C081E001C084E0FF
:101B60008093D90442E061EC81E00E94520A42E095
:101B700061EC82E00E94520A42E261EC85E00E9440
:101B8000520A42E261EC83E00E94520A42E260ECB7
:101B900084E00E94520A8091D9048091E80083FF7A
:101BA00010C08091E800877F8093E8008091EB006F
:101BB00080628093EB0005C082E190E0ECE8F2E007
:101BC0004ACFAA96E3E00C94EC281F920F920FB62E
:101BD0000F9211242F933F934F935F936F937F93B3
:101BE0008F939F93AF93BF93CF93DF93EF93FF9325
:101BF000C091E900CF708091EC00D82FD17080FDAA
:101C0000D0E81092E9008091F000877F8093F00087
:101C100078940E94150B1092E9008091F000886082
:101C20008093F000CD2BCF70C093E900FF91EF912E
:101C3000DF91CF91BF91AF919F918F917F916F91E4
:101C40005F914F913F912F910F900FBE0F901F907A
:101C50001895E8EDF0E080818E7F80831092E2009D
:101C60001092DA001092E100A0EEB0E08C91816059
:101C70008C9380818F77808319BCA7EDB0E08C9125
:101C80008E7F8C9380818F7E80831092A70408952D
:101C9000A0E0B0E0EEE4FEE00C94CB28C8EDD0E08C
:101CA00088818F7E8883E7EDF0E08081816080838A
:101CB00084E082BF81E08093A70488818E7F88833F
:101CC00002EE10E0F80110821092DA0081EEC82EC8
:101CD000D12CF601108288818F7788838881806873
:101CE000888388818F7D888319BC1092D9041092D3
:101CF000CC041092CB041092CA0490EEE92EF12C81
:101D0000F70180818B7F808388818160888342E0B6
:101D100060E080E00E94520AF60180818E7F80831D
:101D2000F801808181608083808188608083F701F1
:101D300080818E7F8083888180618883CDB7DEB784
:101D4000E8E00C94E7281F920F920FB60F9211242F
:101D50002F933F934F935F936F937F938F939F93B3
:101D6000AF93BF93EF93FF938091E10082FF09C08F
:101D70008091E20082FF05C08091E1008B7F80931B
:101D8000E1008091DA0080FF2AC08091D80080FFB6
:101D900026C08091DA008E7F8093DA008091D9008E
:101DA00080FF18C080E189BD82E189BD09B400FED1
:101DB000FDCF81E08093D9048091A70481110FC0E9
:101DC0000E94290E0E94480E8091E2008460809358
:101DD000E20005C019BC1092D9041092A7048091AA
:101DE000E10080FF17C08091E20080FF13C0809166
:101DF000E2008E7F8093E2008091E2008061809318
:101E0000E2008091D80080628093D80019BC85E000
:101E10008093D9048091E10084FF30C08091E2007A
:101E200084FF2CC080E189BD82E189BD09B400FE38
:101E3000FDCF8091D8008F7D8093D8008091E10004
:101E40008F7E8093E1008091E2008F7E8093E2009C
:101E50008091E20081608093E2008091CC0488232D
:101E600011F084E007C08091E30087FD02C081E0AB
:101E700001C083E08093D9048091D9048091E1006E
:101E800083FF27C08091E20083FF23C08091E1009F
:101E9000877F8093E10082E08093D9041092CC0484
:101EA0008091E1008E7F8093E1008091E2008E7F3F
:101EB0008093E2008091E20080618093E20042E042
:101EC00060E080E00E94520A8091F0008860809378
:101ED000F000FF91EF91BF91AF919F918F917F9112
:101EE0006F915F914F913F912F910F900FBE0F9087
:101EF0001F9018952091E4003091E50095E64091FF
:101F0000EC00842F817040FF23C08091E80080FDA9
:101F10001DC08091D904882399F0853099F0809173
:101F2000EB0085FD11C04091E4005091E5002417BD
:101F3000350729F3915011F09A01E1CF84E008951B
:101F400082E0089583E0089581E0089580E0089597
:101F50004091E80042FFDDCF0895EF92FF920F938A
:101F60001F93CF93DF937C018B010E947A0F811125
:101F700019C0E70101151105A1F08091E80085FD68
:101F80000AC08091E8008E778093E8000E947A0F63
:101F9000882381F307C089918093F10001501109D2
:101FA000E9CF80E0CDB7DEB7E6E00C94E928CF9327
:101FB0002091D904243029F5C091E900CF703091E7
:101FC000EC00232F217030FD20E8C22B23E020936A
:101FD000E9002091E80020FF11C040E050E060E2FD
:101FE00070E00E94AD0F882321F01092D704109268
:101FF000D8048091E8008E778093E800CF70C0937A
:10200000E900CF910895CF93DF93CDB7DEB7CC55DC
:10201000D1090FB6F894DEBF0FBECDBF85B780687B
:1020200085BF85B7806885BF84B7877F84BF0FB6BB
:10203000F894A89580916000886180936000109268
:1020400060000FBE90E080E80FB6F89480936100C6
:10205000909361000FBE89E697E19093A30180936E
:10206000A2010E94290E0E94480E8091E200846025
:102070008093E20078948091D9048823A1F0109194
:10208000E9001F709091EC00892F817090FD80E82D
:10209000182B1092E9008091E80083FD0E94150B37
:1020A0001F701093E90082E084BD93E095BD9AEF24
:1020B00097BD80936E000E94D31590E090931D0110
:1020C00080931C010E940E170E945417E0EEF4E06A
:1020D000A0EFB4E011921D9224E0EE3EF207D1F79A
:1020E0008EE090E00E94522A8093DA049093DB0401
:1020F000FC010E961192E817F907E1F789EA80933F
:10210000800089E08093810024982C983F988AB1C0
:102110008F7C8AB96E98479A8BB180638BB9769A17
:102120008FE090E00E946C296093DC047093DD04E2
:102130008093DE049093DF0467703FEF639FB001EC
:102140001124759567957595679577277093890024
:102150006093880070938B0060938A0070938D0069
:1021600060938C000E944A1680E090E00E947229E1
:10217000883E9E4F11F00E94611982E090E00E941B
:1021800064298093FE0484E090E00E946429182F63
:1021900082E290E00E946429212F30E0382B3093B6
:1021A00029062093280683E090E00E9464290E947B
:1021B000B91E80911C060E9424150E94F221809174
:1021C0001C060E9424158FE091E0909320068093D6
:1021D0001F06A8E1EA2EF12CB0E4DB2E8091D90491
:1021E000853009F07BC0BB24B39400E112E18091FB
:1021F000D904853009F065C08091D904843009F490
:102200003DC01092D7058091EF04811116C0B092A5
:10221000EF0480911706982F91709093EE048E7FB3
:10222000809317068FEF90E7E2E081509040E04006
:10223000E1F700C000000E94B425109223060FB6FB
:10224000F894A895E09260000FBED092600083B72A
:10225000817F846083BF83B7816083BF78948895D2
:1022600083B78E7F83BF0FB6F894A89580916000E6
:10227000886180936000109260000FBE8091CB0453
:10228000882309F4B4CF0E94D31590E090931D01E8
:1022900080931C010E940E170E945417E0EFF4E097
:1022A000119224E0EE3FF207D9F70E94E51AE0EF21
:1022B000F4E081918111E2C234E0EE3FF307C9F707
:1022C00096CF0E94BE1E0E942C251092EF04809192
:1022D000EE0481110E94E9210E949E250E94E51AC8
:1022E000882359F08FB7F894409124065091250621
:1022F00060912606709127068FBFEFEFF4E0A0EF04
:10230000B4E000E010E0302F2D9191919227A1F1DF
:1023100080E0BB24B394492F4B2151F164968FAFD9
:10232000649765963FAF65972B2181E009F480E0C3
:1023300066968FAF66970E94A3248160782F689677
:102340009FAF8EAF689764964FAD649765965FAD0B
:10235000659766966FAD669768968FAD68970E9491
:102360005D14F801E150FB4F8081B826B0822AC08D
:102370008F5FBB0C863079F60F5F1F4F0E30110553
:1023800009F0C1CF8FEF69968FAF69976A968FAFCB
:102390006A976B961FAE6B970E94A3248160782F7B
:1023A0006D969FAF8EAF6D9769964FAD69976A96A0
:1023B0005FAD6A976B966FAD6B976D968FAD6D97AE
:1023C0000E945D148091D705882309F493C0809101
:1023D000D605E0911706E695E81BE093D20582301A
:1023E00059F4F0E0E250FD4FE4910E2F10E0FFE2CF
:1023F000AF2EF4E2BF2E59C0863059F4F0E0E5501C
:10240000FD4FE4910E2F10E0EFE1AE2EE4E2BE2E80
:102410004CC0893061F4E695F0E0E850FD4FE4915E
:102420000E2F10E07FEAA72E77E2B72E3EC08F3046
:1024300061F4E695F0E0EB50FD4FE4910E2F10E0D3
:1024400069E4A62E67E2B62E30C0853159F4F0E07B
:10245000EE50FD4FE4910E2F10E059EFA52E56E2FD
:10246000B52E23C08831A1F0833249F4E0EFF2E0C9
:102470000591149145EEA42E43E2B42E16C0843289
:1024800071F404EF11E036E4A32E36E2B32E0DC052
:1024900008E210E02EE7A22E26E2B22E06C000EDE2
:1024A00017E094E8A92E93E2B92E8091D3058823F2
:1024B00061F01092D3050E94A3249093D1058093DC
:1024C000D0051092D5051092D4050E94A324E09166
:1024D000D005F091D1058E1B9F0B8F3F9F4750F485
:1024E0000E0F1F1F1093D1050093D00580ED95E0CE
:1024F000F501099585E0E9ECF5E0DE011196019022
:102500000D928A95E1F71092CA051092CB051092B0
:10251000CC051092CD051A81111104C08B8188233E
:1025200009F452C08091C7059091C8050E94942477
:102530009C019091C305992309F4B6C12531310559
:1025400008F442C09F3F19F09F5F9093C305112389
:1025500061F00E94DC22111614F09FEF01C091E09F
:10256000899F802D11248093CA051B81112361F05E
:102570000E94DC22111614F09FEF01C091E0899FA8
:10258000802D11248093CB053091CA053323E1F0CF
:102590002091CB052223C1F045EB3403C001112467
:1025A000992319F09093CA0503C081E08093CA056E
:1025B00035EB2303C0011124992319F09093CB0527
:1025C00003C081E08093CB051C81111104C08D8173
:1025D000882309F452C08091C5059091C6050E94D8
:1025E00094249C019091C205992309F461C125317D
:1025F000310508F442C09F3F19F09F5F9093C205D8
:10260000112361F00E94BC22111614F09FEF01C04B
:1026100091E0899F802D11248093CC051D81112389
:1026200061F00E94BC22111614F09FEF01C091E0EE
:10263000899F802D11248093CD053091CC053323C3
:10264000E1F02091CD052223C1F045EB3403C00118
:102650001124992319F09093CC0503C081E0809355
:10266000CC0535EB2303C0011124992319F0909375
:10267000CD0503C081E08093CD0545E050E0BE016B
:102680006F5F7F4F89EC95E00E94802B892BA9F426
:102690008091CA0581110FC08091CB0581110BC0BB
:1026A0008091CC05811107C081E09091CD059111F9
:1026B00003C080E001C081E080FD0E945A2385E0D4
:1026C000FE013196A9ECB5E001900D928A95E1F7F3
:1026D0000E942C2590910D05891380930D05809102
:1026E000D904843009F07ACD8093E9008091E80024
:1026F00082FF74CD8091E80085FF22C00E947A0F8E
:1027000081111CC000E210E05E0141E2A40EB11C88
:1027100008C08091F100F50181935F01015011091A
:1027200069F08091E80085FDF4CF8091E8008B7717
:102730008093E8000E947A0F882399F391E001C00A
:1027400090E08091E8008B778093E800992309F46A
:1027500045CD89A18130E9F158F1823021F08430F2
:1027600009F480C03BCD8BA19AA190930E05809374
:102770000F058DA19CA190931005809311058FA149
:102780009EA1909312058093130542E150E063E20D
:1027900070E0CE018F5B9F4F0E94542984E08983B3
:1027A00081E08093D8048EEF8A831092D7040CC006
:1027B00019828CE0E0E4F1E0DE01129601900D92C6
:1027C0008A95E1F78EEF8D87CE0101960E94D70F93
:1027D00005CD04E115E08AE1A82E85E0B82E0E941F
:1027E0006425F801819391938F01AE16BF06B9F766
:1027F00081E08983909114059A83909115059B83BC
:10280000909116059C83909117059D8390911805D2
:102810009E83909119059F839EEF98878093D7049C
:10282000CE0101960E94D70F42E150E063E270E0D2
:10283000CE0101960E945429FE01319682E1833037
:102840001CF09189928B01C0128A815031978F3F81
:10285000B1F742E150E063E270E0CE0101960E94E0
:102860007829BCCC8091D804882309F4B7CC80E0C7
:102870000E94761E8AA10E94AD1EB0CC09BD19BD72
:1028800009B400FEFDCF8091D8008F7D8093D800E1
:102890008091E00082608093E0008091E00081FD03
:1028A000FCCF0E94BE1EA3CC232B09F04DCE8CCEB4
:1028B0002139314008F0A1CEE0CEA7E1B0E0E3E657
:1028C000F4E10C94D0284B8B5C8B6D8B7E8B8F8BC3
:1028D00061111092930586E09E01235F3F4FD9015D
:1028E000E82F1D92EA95E9F795E0FE017396D9016C
:1028F00001900D929A95E1F79C894E895F897B89B9
:102900007D879E876F87598B488BF901DE0117966B
:1029100001900D928A95E1F7CE0107960E94861CE0
:1029200081113EC086E0FE013796DE0111960190CE
:102930000D928A95E1F7FF81E8856A857B856115AF
:10294000710531F0EF3F31F481E0FF3F19F403C02E
:1029500081E001C080E080FD23C02091400530E08F
:10296000C9010196877099274091710550E084173D
:10297000950779F1F983EA837D836C8396E0929FD2
:10298000D001939FB00D1124AF5BBA4FFE01319679
:1029900001900D929A95E1F7809340050E94721A7A
:1029A00016E080917105909140058917F9F0189F04
:1029B000C00111248F5B9A4F0E94861C8823B1F0BE
:1029C0008091710590E00196877099278093710539
:1029D000E8CF0E94BE1E1092400510927105EAE3F6
:1029E000F5E086E0DF011D928A95E9F76796E3E05E
:1029F0000C94EC28982F92959F7019F0892F24E061
:102A000001C020E0982F9695969511F02E5F892FA2
:102A1000982F969509F02F5F822F08950E94BE1E71
:102A20002FEF84E39CE0215080409040E1F700C00C
:102A300000009AE088E10FB6F894A89580936000B2
:102A40000FBE90936000FFCFCF93C82F0E94FA145F
:102A500056985E9825982D9826982E9827982F9806
:102A600090E0FC013197E730F10508F5E459FF4F9C
:102A70000C94312A259A2D9A31C0269A2E9A3CC060
:102A8000279A2F9A47C0259A2D9A269A2E9A50C097
:102A9000259A2D9A02C0269A2E9A279A2F9A48C0D4
:102AA000259A2D9A269A2E9A279A2F9A51C08730C6
:102AB000910508F04DC0FC01ED58FF4F0C94312AF0
:102AC0008091A60481116CC00E94E92181E00E94DE
:102AD000E52120E04CED67E284E237C08091A60456
:102AE00081115EC00E94E92181E00E94E52120E081
:102AF0004EEC6BE78FE329C08091A604811150C092
:102B00000E94E92181E00E94E52120E048EB6EE48B
:102B10008CEB1BC08091A604811142C00E94E92168
:102B200081E00E94E52120E047EF65E88AEF0DC0D3
:102B30008091A604811134C00E94E92181E00E94A5
:102B4000E52120E047E66FE882E90E94E92028C0FD
:102B50008091A604811124C088E090E00E946C2935
:102B600060931706709318068093190690931A06BF
:102B7000862F60FF13C081608093170686950E94A0
:102B80002C228091170686950E942C2221E04091EC
:102B90001A066091190680911806D7CF0E942B2043
:102BA0008C2FCF91089580E290E090931D01809347
:102BB0001C018091CF0581110EC00E94D92781E0B0
:102BC0008093CF052FEF83ED90E32150804090401C
:102BD000E1F700C0000064E670E080E40E94DF27B7
:102BE00090931D0180931C01892B09F04EC064E66F
:102BF00070E080E00E94542890931D0180931C0196
:102C0000892B09F042C064E670E080E00E945428FD
:102C100090931D0180931C01892BB9F564E670E047
:102C20008FE30E94542890931D0180931C01892BEF
:102C300061F50E94A92864E670E080E40E94DF2725
:102C400090931D0180931C01892BF9F464E670E0D8
:102C50008CE00E94542890931D0180931C01892BC5
:102C6000A1F464E670E080E00E94542890931D0176
:102C700080931C01892B49F464E670E08FE30E9485
:102C8000542890931D0180931C010E94A9288091D3
:102C90001C010895CF93DF9356985E9825982D9840
:102CA00026982E9827982F98C8E8D0E08FEF90E0CC
:102CB00099838883AAE8B0E011969C938E93ECE800
:102CC000F0E091838083259A2D9A2FEF80E792E0A0
:102CD000215080409040E1F700C00000269A2E9AD3
:102CE0002FEF80E792E0215080409040E1F700C054
:102CF0000000279A2F9A2FEF80E792E02150804022
:102D00009040E1F700C0000025982D982FEF80E754
:102D100092E0215080409040E1F700C000002698EA
:102D20002E982FEF80E792E0215080409040E1F70D
:102D300000C0000027982F988091DC0487702FEF47
:102D4000829FC00111249595879595958795992720
:102D50009983888311969C938E9391838083569850
:102D60005E9825982D9826982E9827982F98DF9171
:102D7000CF910895CF93E82F873080F580911C0183
:102D800090911D01892B09F047C0CE2F64E670E0B9
:102D900080E40E94DF2790931D0180931C01892B02
:102DA000D1F464E670E082E10E94542890931D0102
:102DB00080931C01892B79F481E090E001C0880F99
:102DC000CA95EAF764E670E080950E9454289093D3
:102DD0001D0180931C010E94A9281EC090E0FC01E7
:102DE0003797E730F105C0F4E658FF4F0C94312ACD
:102DF000209A289811C0219A29980EC0229A2A98C0
:102E00000BC0239A2B9808C0529A5A9805C0539A1F
:102E10005B9802C03E9A4698CF91089520982898D2
:102E20002198299822982A9823982B9852985A9852
:102E300053985B983E9846980895CF93873040F515
:102E400080911C0190911D01892B59F564E670E079
:102E500081E40E94DF2790931D0180931C01892B40
:102E600011F0C0E011C084E690E00E94842897FF32
:102E700005C090931D0180931C01F3CFC82FC0950E
:102E800010921D0110921C010E94A9288C2F0AC0CB
:102E90009FB18FB1807F869586959370892B8095A1
:102EA00001C080E0CF9108958098889A8198899A8E
:102EB00084988C9A85988D9A86988E9A87988F9AFE
:102EC000089581E080939D050E94A324259A2D9A60
:102ED000089580E008959091280692FF0DC0282F54
:102EE0002871283019F4877F846006C0282F247148
:102EF000243011F48B7F886093FF0DC0282F287138
:102F0000283119F4877E846106C0282F247124316A
:102F100011F48B7E88612091290620FF0DC0382F87
:102F20003871383019F4877F816006C0382F3171CD
:102F3000313011F48E7F886021FF0DC0282F287159
:102F4000283119F4877E816106C0282F2171213133
:102F500011F48E7E886194FD877E08957E30A0F402
:102F6000663090F494E5899FF001112486E0789F03
:102F7000E00DF11D1124E60FF11DEE0FFF1FEE5FB6
:102F8000FC4F85919491089580E090E00895CF934F
:102F9000DF938238910569F1B0F48133910509F42A
:102FA0006FC048F48932910509F465C08A329105F1
:102FB00009F46BC08AC08533910509F457C0893381
:102FC0009105B9F082C0833E910571F138F4803EDD
:102FD0009105B1F0823E910511F177C0863E9105D1
:102FE000B9F1873E9105C9F1843E910509F06DC0A4
:102FF00024C02091280620FD53C021FD51C065C08A
:103000008091280680FD46C08091290680FF48C037
:103010008091280684FD50C183EE90E04FC18091DD
:10302000280682FF3AC0F4CF8091280682FD35C081
:103030008091290680FD34C0EBCF8091290681FF65
:1030400035C08091280684FD37C187EE90E036C1F7
:103050008091280683FF27C0F4CF8091280683FD46
:1030600022C08091290681FD21C0EBCF80912806E6
:1030700085FD1FC021C08091280685FD1DC019C097
:103080008091280686FD1BC01DC08091280686FD04
:1030900019C015C089E390E011C182EE90E00EC125
:1030A00080EE90E00BC186EE90E008C184EE90E0E7
:1030B00005C189E290E002C185E390E0FFC08AE2A9
:1030C00090E0FCC081E390E0F9C0811531E5930701
:1030D00008F069C0811540E59407F0F09C0174E0A8
:1030E000369527957A95E1F7922F9370482F437084
:1030F00021E030E002C0220F331F4A95E2F73C681E
:10310000392B982F9F709695969540E2949FC00119
:103110001124822B932BD2C0883E910568F5803E06
:10312000910508F0CBC0883A9105B8F4853A91052D
:1031300048F0855AE82FF0E0E45BFE4F808190E094
:103140009064BCC08130910509F4B3C008F4B4C0E8
:103150008430910508F4B0C0B1C08F3B910508F0F0
:10316000ABC0885AE82FF0E0EE0FFF1FE15BFE4F87
:10317000808191819464A2C0811520E2920758F465
:10318000811531E0930708F099C08D3E910508F450
:1031900093C0906593C0811540E4940708F48CC0F7
:1031A0009F70906A8BC0811525E5920708F042C098
:1031B000811534E5930728F0982F8827846F906A4B
:1031C0007DC0811543E59407B0F09C01237033273F
:1031D00041E050E002C0440F551F2A95E2F7282F26
:1031E0002695269580E2289F90011124CA01822B02
:1031F000932B9A6863C0811522E5920728F4982FD3
:103200008827816F906A5AC09C012370332741E060
:1032100050E002C0440F551F2A95E2F7282F26954B
:10322000269580E2289F90011124CA01822B932BBE
:103230009C6844C0EC01811539E59307A8F4811519
:10324000984528F09C2F8827806F906A37C0C11559
:1032500086E5D80788F58C2F0E946B178F7190E058
:10326000982F882790622AC081152AE5920790F44A
:103270008C2F8F700E946B1794E0D695C7959A9506
:10328000E1F7CF70D0E0DC2FCC27D0699E01282B4E
:10329000C90114C090568115904270F48D2F8F7122
:1032A0000E946B17282F2F71CE0199279062922BC5
:1032B00005C081E090E002C080E090E0DF91CF9116
:1032C000089568EE7EEF80E090E00E94A62960E01D
:1032D00082E090E00E94882960E083E090E00E9414
:1032E00088291092960560E084E090E00E94882989
:1032F00064E082E290E00E94882960E085E090E04E
:103300000E94882960E086E090E00E9488296FEFA3
:1033100087E090E00E94882940E050E0BA0188E010
:1033200090E00E949A2960E08DE090E00E94882958
:1033300040E050E0BA0188E190E00E949A2960E004
:1033400087E190E00E94882940E050E0BA018CE1DA
:1033500090E00E949A2960E070E080E290E00E9494
:10336000A62940E050E0BA0188E190E00E949A2945
:103370001092DC041092DD041092DE041092DF043F
:1033800084E08093DC044091DC045091DD04609182
:10339000DE047091DF048FE090E00E949A2940E003
:1033A00050E0BA0183E190E00E949A29089580914B
:1033B0009505811110929505089580959091940539
:1033C00089238093940508959091940580919305A5
:1033D000982B90931A05809195058823D9F0892B15
:1033E00080931A0580910E01882331F08091280680
:1033F00087FF02C08EE101C086E0ECE1F5E090E0DD
:10340000815028F021912223D9F39F5FF9CF9111A8
:103410000E94D71940E250E063E775E08AE195E049
:103420000E94802B892B21F180E2EAE1F5E0A3E7FD
:10343000B5E001900D928A95E1F7E0911F06F091B9
:1034400020063097A9F080910E01882359F08091D1
:10345000280687FF07C080911A0580931B0586E028
:1034600080931A050280F381E02D8AE195E00995A9
:103470000895209172058095822380937205982F7C
:10348000977099F430E0482F082E000C550B241744
:10349000350759F09091290692FF07C085958595CB
:1034A00085950E94A01E109272050895CF93C09139
:1034B0002906C2FB992790F9981791F080FBC2F971
:1034C000C09329066091280684E090E00E94882934
:1034D0006C2F82E290E00E94882982E00E94391AD3
:1034E000CF9108958091710590914005891719F049
:1034F0008F5F8770FBCF08950F931F93CF93DF9358
:1035000080913F0582958F7009F05AC080913C05EB
:10351000882309F455C08091710510914005609190
:103520003A0570913B05C0913D05D0913E0591E073
:103530006F3F09F090E0292F06E0811709F440C0A1
:10354000209721F07F3F21F030E003C031E001C03F
:10355000322F90E030FD31C0089FF001099FF00D3F
:103560001124DF01AF5BBA4F11963C9111973713CD
:1035700024C03C91361321C012963C911297311110
:103580001CC013964D915C9114974C1B5D0B483CED
:10359000510598F480913F058F70806180933F05BD
:1035A000EA5BFA4F80818F70806180838AE395E0C7
:1035B0000E94EF040E94721A03C001968770BDCF6B
:1035C000DF91CF911F910F910895A0E0B0E0EBEE55
:1035D000FAE10C94CA2880911C0190911D01892B5D
:1035E000B9F0809197058F5F80939705811110C086
:1035F0000E94D31590E090931D0180931C01892BAC
:1036000039F40E944A1681E080931B010E94F22146
:1036100000EE14E07801B12CC0E087E0C82ECC0E9B
:103620008C2F0E94BA168C2D0E94BA168C2F0E94E5
:103630001D178F73F7019081891721F08083DD2496
:10364000D39401C0D12C8C2D0E941D178F73F701CC
:103650009781891719F0878381E001C080E0D82A1B
:10366000BD280E940E17CF5FFFEFEF1AFF0AC73089
:10367000A1F6C0919B05CC23C9F10E94A3242091FF
:10368000990530919A05AC01421B530B9A01909316
:103690009A05809399054F3F510509F020F4452B79
:1036A00009F4B2C002C02FEF30E010929B051092D7
:1036B0009805E091DA04F091DB04AF01425F5F4FBF
:1036C00090E030E08081882341F0281718F01082C4
:1036D0009C2F03C0821B80833C2F3196E417F50793
:1036E00089F730939B05909398058EC0BB2009F411
:1036F00082C00E94A32490939A0580939905E0913B
:10370000DA04F091DB0480919B05A0EFB4E09F0107
:10371000225F3F4F4EE1E80199918E015C9159176C
:1037200031F05081511103C040839C9381E0319668
:103730001196E217F30779F780939B052091D70440
:1037400080919F059091A0052223C9F1892B31F426
:1037500025982D9826982E9827982F9880919F0528
:103760009091A0059170892B79F480919E05882312
:1037700019F026982E9802C0269A2E9A90919E05AE
:1037800081E0892780939E0580919F059091A005F7
:103790008130984750F01092D70480911C060E9407
:1037A00024151092A00510929F0580919F0590917D
:1037B000A00501969093A00580939F050AC0892BD0
:1037C00041F01092A00510929F0580911C060E9466
:1037D000241580919D058823D9F025982D988091F6
:1037E0009C058F5F80939C05853610F0259A2D9A55
:1037F0000E94A3240DC080E090919805992309F4BC
:103800009DCF81117CCF75CFB11079CF81E0F4CFFE
:103810008B2DCDB7DEB7E9E00C94E62880E090E090
:103820000E94162580E090E00E94002510929305EA
:103830000E94E419E9ECF5E085E0DF011D928A952C
:10384000E9F71092C3051092C2051092C4050E94B8
:103850005A230895CF92DF92FF920F931F93CF9335
:10386000DF936C0100911C0680919605082BC7E040
:10387000D0E010E0C8010C2E02C0959587950A94FF
:10388000E2F780FD04C02197A8F7F12C09C0FC2EB7
:10389000B6018C2F0E94AE170E94C717019799F3AB
:1038A0008F2DDF91CF911F910F91FF90DF90CF90DF
:1038B0000895CF93DF93EC010E942A1CBE010E9461
:1038C000AE170E94C717DF91CF910895FC01808148
:1038D00091810E94591C92959F70963079F010F456
:1038E000925001C09A50923068F4803F69F018F409
:1038F000883E40F409C0843F29F406C0883E20F089
:10390000813F11F080E0089581E00895A1E1B0E0E9
:10391000ECE8FCE10C94C8288C0185E0F801DE019C
:103920001D9601900D928A95E1F7F801E280909141
:103930003A0560913B0540913D0550913E0541158A
:10394000510531F06F3F31F481E09F3F19F403C01E
:1039500081E001C080E0F82FF1709F2E80FD1BC137
:10396000F80130812181C380D4808AE3A82E85E0CC
:10397000B82EF0903C05F601E41BF50BFF2009F48E
:10398000C7C080913F05E83CF10508F092C0482F80
:10399000407F09F051C0621311C093130FC0FE2C79
:1039A000E1100CC08F70806180933F05C5010E94BB
:1039B000EF0480913F05F80185832AC1C114D10429
:1039C00031F02F3F31F481E03F3F19F403C081E033
:1039D00001C080E080FD03C081E08E2502C080E050
:1039E00090E0F82FF170FF2E80FF1CC080917105D0
:1039F0004091400556E0841709F4E8C090E0589FD4
:103A0000F001599FF00D1124EF5BFA4F61812613ED
:103A100006C06081631303C06281E61203C0019691
:103A20008770E9CFFE2CEE2009F4F2C080913F05AB
:103A3000816080933F0549C0621306C0931304C0A0
:103A4000E11002C0F80186C0C8010E94661C8823EC
:103A500051F1EE2041F120913F05822F82958F7028
:103A600090E0029774F080913A0590913B05988719
:103A70008F831986DB86CA862C87CE0107960E9423
:103A8000EF0486E0F801AAE3B5E001900D928A9573
:103A9000E1F70E947C1A0AC06217C9F0C8010E94AF
:103AA000661C81111EC0C8010E94EF04FF24F3941C
:103AB000AFC0482F407F81F78AE395E00E94EF0472
:103AC00086E0F50111928A95E9F7F12CA1C09313D4
:103AD000E5CFE110E3CFF8018583C8010E94EF0430
:103AE00054C0EE2001F320913F05822F82958F7004
:103AF00090E0029734F280913A0590913B059A83C9
:103B000089831B82DD82CC822E83CE010196B7CFC2
:103B1000E83CF105D0F5FE2CEE2029F2621327C017
:103B2000931325C020913F0520FD18C0822F829558
:103B30008F70482F50E04115510581F0F801258321
:103B40004F30510541F08F5F982F9295907F822FD3
:103B50008F70892B8583C8010E94EF0486E0F801ED
:103B6000AAE3B5E001900D928A95E1F751C0C80132
:103B70000E94661C811185CF80913F0581608093F2
:103B80003F05C8010E94EF0443C086E0F501119291
:103B90008A95E9F73DC0EE2009F485CFC8010E945F
:103BA000661CF82E882309F47ECF86E0F801AAE38C
:103BB000B5E001900D928A95E1F780913A059091D8
:103BC0003B050E94591C0E947C1A22C03D872E870B
:103BD0008D859E850E94591C292F22952F70223099
:103BE00028F49F7039F0811105C00BC0243028F4EF
:103BF0009F7049F4805E883020F0C8010E94EF0475
:103C00009F2CF92C05C0F8019581907F99F7F9CF89
:103C10008F2D6196EBE00C94E428292F9E3078F5E7
:103C2000863068F590E036E0239F800D911D1124C9
:103C3000682F677023E0969587952A95E1F7FC0138
:103C4000EE0FFF1FE80FF91FEF55FA4F40E050E06D
:103C500080E0219130E0062E02C0369527950A9427
:103C6000E2F721703327042E01C0220F0A94EAF7ED
:103C7000822B4F5F5F4F4330510559F7089580E025
:103C80000895292F9E3088F5863078F590E036E04B
:103C9000239F800D911D1124282F277051E001C012
:103CA000550F2A95EAF723E0969587952A95E1F72F
:103CB000FC01EE0FFF1FE80FF91FEF55FA4F20E050
:103CC00030E070E04081CB01022E02C096958795CE
:103CD0000A94E2F781708195842785238427819354
:103CE0002F5F3F4F2330310569F70895A0E2B0E020
:103CF000ECE7FEE10C94D0280E942415182F809147
:103D0000D8048823A9F02FEF80E792E0215080406B
:103D10009040E1F700C0000085E08983812F0E9478
:103D2000FA148A838EEF8B83CE0101960E94D70FFF
:103D300010931C060E940E1CA096E3E00C94EC2845
:103D400021E030E001C0220F8A95EAF720958091AA
:103D50001C0682230E94761E089521E030E001C0F7
:103D6000220F8A95EAF780911C06822B0E94761E0C
:103D70000895809396050E940E1C08951092940554
:103D800080910E01882331F08091280687FF02C0C0
:103D90008EE101C086E0ECE1F5E0DF011D928A953D
:103DA000E9F70E940E1C0895882321F00E94DD1976
:103DB0000E94E4190895882339F090919405892B85
:103DC000809394050E94E4190895882391F19CEF53
:103DD000980F913A30F4682F8AE195E00E94D82438
:103DE0000DC090E2980F983060F4877091E001C0A8
:103DF000990F8A95EAF7892F0E94DD190E94E4192C
:103E000008959BE5980F933028F480E090E00E949D
:103E10001625089598E5980F973128F480E090E0F2
:103E20000E94002508958D3E20F00E9445220E94A8
:103E30005A230895CF93882309F49FC0C82F8CEF8D
:103E40008C0F813A08F05BC080910E018823E1F06D
:103E50008091280687FF18C0EC2FE695E695E69539
:103E6000F0E0E65EFA4F8281282F30E04C2F477059
:103E700081E090E002C0880F991F4A95E2F7822303
:103E80009323892B59F411C0ECE1F5E08191C81717
:103E900029F085E0E232F807C9F707C06C2F8AE104
:103EA00095E00E94D8240E94E41980910E01882395
:103EB000B1F08091280687FF12C0EC2FE695E695B9
:103EC000E695F0E0E65EFA4FC77081E090E001C051
:103ED000880FCA95EAF79281892B828320C0ACE1D2
:103EE000B5E0EFEF80E09D91C917C9F0EF3F19F4FD
:103EF000911101C0E82F8F5F8630A9F735C080E2AD
:103F00008C0F883078F4C77081E090E001C0880F92
:103F1000CA95EAF790919405892B809394050E94A5
:103F2000E4192BC0EBE5EC0FE33040F4F0E0E45B88
:103F3000FE4F808190E00E9416251FC0E8E5EC0F3F
:103F4000E73150F4F0E0EE0FFF1FE15BFE4F8081A0
:103F500091810E94002511C0CD3E78F08C2F0E94E7
:103F6000FF220E945A2309C0EF3FC9F20E2E000C17
:103F7000FF0BE65EFA4FC283D2CFCF9108958091B6
:103F80001706282F269530E02115310519F4817088
:103F9000826005C02532310524F0817088648093E9
:103FA00017060895CF92DF92EF92FF926B017C018A
:103FB0000E94BF1FB701A60188E090E00E949A29E5
:103FC000FF90EF90DF90CF90089580911B0688239B
:103FD00019F0815080931B066091170670911806A6
:103FE0008091190690911A060E94D21F089580911F
:103FF0001B06833018F48F5F80931B0660911706B1
:10400000709118068091190690911A060E94D21F8D
:104010000895E7E1F6E083E0808311828FEF8283E9
:104020008383148260817181828193810E94D21F77
:1040300008959091170690FF0DC0EBEDF5E0818398
:10404000608342831382349696E0E731F907B9F72B
:104050000E94B4250895E7E1F6E080818E7F808399
:1040600060817181828193810E94D21F1092D70555
:104070002FEF80E792E0215080409040E1F700C0B0
:1040800000000E94B4250895A0E0B0E0EAE4F0E268
:104090000C94C928E82EF62EE901E42FF0E0611116
:1040A00006C0E656F84FE4914E2F2E2F71C0062F12
:1040B00010E0E656F84F4491F42FC42ED12C26E0A0
:1040C000829FC00111242FEF30E0B9010E94AD287A
:1040D0005BEA5603C001579F900D11248E0D911D70
:1040E0008E0D911D582F550F580FD901A01BB10BE4
:1040F000AC9DC001AD9D900DBC9D900D1124E92F8C
:10410000F59ED0011124AB2FBB277901EA1AFB0AD7
:10411000EC9CD001ED9CB00DFC9CB00D112459011C
:10412000A51AB108A09E7001A19EF00CB09EF00CE3
:104130001124EF2CFF242E193F092C9D80012D9D69
:10414000100D3C9D100D1124212F6230710591F04E
:1041500048F461157105E1F061307105B9F4242F5F
:104160004B2F16C06430710569F040F06630710560
:1041700079F00CC0242F492FE12F0AC0492FEF2FCF
:104180002B2F06C0292FE42F412F02C0292FEB2F00
:1041900049832883EA831B82CDB7DEB7EAE00C941B
:1041A000E528A4E0B0E0E7EDF0E20C94D12890918E
:1041B000170690FF0AC09E012F5F3F4F0E944420C8
:1041C0004B8169818A810E9419202496E2E00C9437
:1041D000ED28A4E0B0E0EFEEF0E20C94C428F82E55
:1041E000762EE42E622E9091170690FF67C0E92F7D
:1041F000E695AE2FB0E0A358BE4F8C918093D605C4
:104200009E7F923061F49E012F5F3F4F8F2D0E9461
:1042100044204B8169818A810E9419203DC08230EF
:1042200019F4E0901A0638C0863019F4F090180698
:1042300033C08930D9F3893179F5E9518E2F8170F6
:10424000582EE695F0E0E656F74FE4910E2F10E079
:104250008BEDC82E85E0D82EA12CB12C9FE0892EA5
:10426000912CC501B4010E94AD288F2D511002C0C0
:10427000860F01C0861B96014E2D672D0E9444209B
:10428000A00EB11E84E0C80ED11C87E1C81686E0DE
:10429000D80639F70E94B425F092180670921906D4
:1042A000E0921A06662051F0609117067091180688
:1042B0008091190690911A060E94D21F2496EFE071
:1042C0000C94E028E7E1F6E043812CE0421B08F47F
:1042D00040E021E0628181810E94E9200895E7E1C8
:1042E000F6E043812CE0420F08F44FEF21E06281B9
:1042F00081810E94E9200895E7E1F6E062812FEFD5
:10430000621B08F460E021E0438181810E94E92082
:104310000895E7E1F6E062812FEF620F08F46FEF96
:1043200021E0438181810E94E9200895E7E1F6E0E0
:10433000818121E0438162818C500E94E9200895AF
:10434000E7E1F6E0818121E043816281845F0E94A0
:10435000E92008959091170690FF36C09170811161
:1043600002C0926006C0853210F0986402C0880FC7
:10437000982B90931706662351F060911706709161
:1043800018068091190690911A060E94D21F60911A
:104390001706669570E04BE050E08EE191E00E94D8
:1043A000732B892B19F01092D70502C00E949E250D
:1043B00081E08093D30520E040911A0660911906B0
:1043C000809118060E94E920089560E00E94AA21C9
:1043D0000895E7E1F6E080818160808386950E9400
:1043E000E52108958091CE05811135C080E090E0EF
:1043F0000E947229883E9E4F21F00E9461190E94FE
:10440000092088E090E00E946C2960931706709361
:1044100018068093190690931A066E7F71F40E9415
:10442000092088E090E00E946C2960931706709341
:1044300018068093190690931A060E94BF1F1092C7
:10444000D7058091170680FF03C086950E94E5215D
:1044500081E08093CE05089561E00E94AA2108952D
:10446000809117068695815009F484E261E00E94EC
:10447000AA2108958091170686958F5F853208F0EE
:1044800081E061E00E94AA2108958D3E39F4909167
:10449000CB0597FF35C01092CB0559C08E3E29F44D
:1044A0009091CB051916BCF32BC09091CA058F3E95
:1044B00029F497FF25C01092CA0549C0803F19F41E
:1044C0001916CCF31DC09091CC05893F29F419161B
:1044D000BCF41092CC053BC08A3F19F497FF10C082
:1044E000F8CF8B3F39F49091CD0597FF09C010921A
:1044F000CD052DC08C3F21F49091CD051916BCF34C
:104500009FE0980F983080F421E030E0A90102C0CC
:10451000440F551F9A95E2F7CA0180959091C905FD
:1045200089238093C90513C08D3F21F48091C40570
:104530008E7F0BC08E3F21F48091C4058D7F05C016
:104540008F3F29F48091C4058B7F8093C4058091AF
:10455000CA05811106C08091CB05811102C010925D
:10456000C3058091CC05811106C08091CD058111D4
:1045700002C01092C20508958091C40580FD18C044
:1045800081FD14C082FD16C08091C205882381F090
:104590008C3380F427E0829FC00111246CE370E02B
:1045A0000E941D2A862F672B19F005C083E008950D
:1045B00081E0089587E008958091C40580FD17C0CB
:1045C00081FD17C082FD19C08091C305882399F031
:1045D0008C3398F428E3829FC00111246CE370E0CF
:1045E0000E941D2A862F672B49F481E008958EE0F2
:1045F00008958CE1089588E0089588E308958D3E3C
:1046000021F40E94DC22819504C08E3E29F40E9490
:10461000DC228093CB0508958F3E21F40E94DC229A
:10462000819504C0803F29F40E94DC228093CA0552
:104630000895893F19F40E94BC2205C08A3F31F4D5
:104640000E94BC2281958093CC0508958B3F21F474
:104650000E94BC22819504C08C3F29F40E94BC2298
:104660008093CD0508959FE0980F983078F421E06D
:1046700030E0A90102C0440F551F9A95E2F7CA0124
:104680009091C905892B8093C90508958D3F21F428
:104690008091C40581600BC08E3F21F48091C405D8
:1046A000826005C08F3F29F48091C40584608093A7
:1046B000C40508950E94A3242091CA05211104C0B5
:1046C0002091CB05222321F09093C8058093C70544
:1046D0002091CC05211104C02091CD05222321F089
:1046E0009093C6058093C505E0911F06F0912006C2
:1046F000309731F00480F581E02D89EC95E0099543
:1047000008958091A9040895089522E02093E90076
:104710002FEF3091E800215035FD06C035ED3A9578
:10472000F1F700002111F5CF2091E80025FF0BC023
:1047300040E050E065E070E00E94AD0F8091E8003D
:104740008E778093E8000895CF93DF9320910E0138
:10475000222339F02091280627FF03C060E225E0DC
:1047600002C068E021E02093E9002FEF3091E800DB
:10477000215035FD06C035ED3A95F1F700002111C5
:10478000F5CF2091E80025FF1DC0EC0180910E01BE
:10479000811105C040E050E068E070E003C070E0C7
:1047A00040E050E0CE010E94AD0F8091E8008E778E
:1047B0008093E80080E2FE01AAEAB4E001900D9245
:1047C0008A95E1F7DF91CF910895A4E0B0E0EBEE98
:1047D000F3E20C94CF288C018091DA0581110AC094
:1047E0009E012F5F3F4F4FEF6FEF0E9444208A8161
:1047F0008093DA05F8018481813051F028F082300D
:1048000061F44091DA050AC08091DA0540E007C002
:104810006091DA0540E080E003C040E080E060E0C5
:104820000E941920F801848190E0019663E070E015
:104830000E941D2A84832496E4E00C94EB28CF93F5
:10484000DF93EC01E7E1F6E0438162818C810E9415
:10485000D1208C818F5F8C83DF91CF910895CF938E
:10486000DF93EC01EC81F0E0E156F74F4491E7E192
:10487000F6E0628181810E94D1208C818F5F8C83E0
:10488000DF91CF91089580932A0670932C06609350
:104890002B068091D904843001F585E08093E900EE
:1048A0008FEF9091E800815095FD06C095ED9A95A7
:1048B000F1F700008111F5CF8091E80085FF0DC070
:1048C00040E050E063E070E08AE296E00E94AD0FC5
:1048D0008091E8008E778093E800089578941F9285
:1048E0000F920FB60F9211248F939F93AF93BF93A4
:1048F0008091240690912506A0912606B091270666
:104900000196A11DB11D8093240690932506A093C6
:104910002606B0932706BF91AF919F918F910F907C
:104920000FBE0F901F9018959C014FB7F89480917F
:10493000240690912506A0912606B09127064FBF28
:10494000821B930B08952FB7F894809124069091C1
:104950002506A0912606B09127062FBF08951F9225
:104960000F920FB60F9211248F939F93AF93BF9323
:1049700080912306811113C0809124069091250611
:10498000A0912606B09127064196A11DB11D8093E6
:10499000240690932506A0932606B0932706BF9180
:1049A000AF919F918F910F900FBE0F901F90189510
:1049B00020910E012223C9F02091280627FF15C05F
:1049C000262F2695269526952E31C8F4FC01E20F58
:1049D000F11D677081E090E001C0880F6A95EAF7E9
:1049E00080959281892382830895FC010696228115
:1049F000621301C012823196E817F907C1F70895D2
:104A000020912106309122062817390771F09093E2
:104A1000220680932106E0911F06F0912006309730
:104A200021F00084F185E02D0995089520911D065F
:104A300030911E062817390771F090931E06809357
:104A40001D06E0911F06F0912006309721F00680A8
:104A5000F781E02D09950895E0911F06F091200659
:104A6000309729F00190F081E02D0995089580E0BC
:104A70000895CF92DF92FF920F931F93CF93DF930E
:104A8000EC016B01042FF0901C060E94BE1E80E01A
:104A90000E94761E86E0080280011124CC15DD05F7
:104AA00031F0CE010E94EF04C00FD11FF7CF0E945A
:104AB000BE1E8F2D0E94761EDF91CF911F910F9108
:104AC000FF90DF90CF900895CF93DF930E94442909
:104AD00066E070E00E941D2AD82F0E9444296EE0F3
:104AE00070E00E941D2AC82F6D2F782F80E00E9451
:104AF000AE170497C59718F48D2F9C2F02C00E9403
:104B00006425DF91CF9108959091170690FF04C01E
:104B10009695981748F003C0811106C090E096174B
:104B200018F40E943A2208950E942C2208958823A6
:104B300011F0FA0101C0FB01099508956091170673
:104B4000669570E04BE050E08EE191E00E94732B9F
:104B5000892B19F481E08093D7050E94A3249093B8
:104B6000D1058093D0050895EF92FF920F931F9384
:104B7000CF93DF938091170680FF08C00BED15E0FF
:104B800087E1E82E86E0F82EF8011BC0EBEDF5E09A
:104B900087E196E0118210821282138234968E177A
:104BA0009F07C1F7EBCF381708F4832F8383381B97
:104BB0003183281B2083981B92833496EE16FF06C0
:104BC00041F0928120813181892F291760F7822F4E
:104BD000EACF8091CF05882381F180911C019091CB
:104BE0001D01892B51F580911B01882331F164E669
:104BF00070E084E80E94DF27892B19F010921B01D6
:104C00001AC0CBEDD5E064E670E088810E9454289C
:104C100064E670E089810E94542864E670E08A812D
:104C20000E94542864E670E08B810E9454282496E8
:104C3000EC16FD0641F70E94A928579A8BB18F7791
:104C40009BB190682FB7F894E016F10699F0F8013F
:104C500031918F0148E09BB9000000C037FF8BB94C
:104C6000330F000000C000C000C08BB900C04A95DF
:104C700091F7EACF2FBF8FE594E00197F1F700C0DD
:104C80000000CDB7DEB7E6E00C94E928EF92FF9282
:104C90000F931F93CF93DF938C01CBEDD5E0E12CE5
:104CA000F12CF8018481F7E0EF16F1041CF488235D
:104CB00039F002C0811104C09E0140911A0602C061
:104CC0009E0140E060911906809118060E944420E0
:104CD0008FEFE81AF80A24969FE0E916F10409F725
:104CE0000E94B425F801848190E001968170992793
:104CF0008483CDB7DEB7E6E00C94E928A0E0B0E00D
:104D0000E4E8F6E20C94C728EC014C81042F10E093
:104D10009801D8010E94002A9B01AC010E94CB2976
:104D20006B017C01E0E2F0E0E01BF10BA5E5B0E0F7
:104D30009B01AC010E94CB294B015C019F01DF016B
:104D40000E94372A9B01AC010E94D6299B01AC012D
:104D50002C0D3D1D4E1D5F1DC501B4010E94DE29B5
:104D6000822FF22E99E2921728F093E0299F90016A
:104D700011240DC025E530E0281B3109C901880F39
:104D8000991F280F391F37FF02C02F5F3F4F3595FE
:104D90002795122F10959BEDC92E95E0D92E00E096
:104DA00085E5E82EEF1801FD02C08E2D01C08F2D84
:104DB0009601412F609119060E9444200F5F84E004
:104DC000C80ED11C0F3079F70E94B4258C81811157
:104DD00002C091E003C0803219F49FEF90932B0141
:104DE00090912B01890F8C83CDB7DEB7ECE00C944A
:104DF000E3280F931F93CF93DF93CBEDD5E0FE0114
:104E00001182108212821382349686E0E731F8070D
:104E1000B9F700E010E08091D905082E000C990B3D
:104E20000817190794F080912A01082E000C990B9D
:104E30008017910754F09E0140911A06609119065F
:104E4000809118060E94442004C0198218821A8298
:104E50001B820F5F1F4F24960F301105E1F60E9451
:104E6000B425809129019091D905980F9093D90587
:104E700020912A01280F20932A01121614F49E3043
:104E80001CF0819580932901DF91CF911F910F91A3
:104E90000895A0E0B0E0EFE4F7E20C94CA28FC012A
:104EA000828180FF03C0DD24DA9402C0DD24D39424
:104EB0000BED15E0C0E0D0E02FE0B22EF80111823A
:104EC00010821282138294E0E92EF12CC12C809181
:104ED000D8058C0D80312CF06B2D0E940F2A892F64
:104EE00002C087FD815F082E000C990BC817D907F7
:104EF00091F480911A068E9DA0018F9D500D112472
:104F0000559547955595479598016091190680915B
:104F100018060E944420CD0CF1E0EF1AF108B9F612
:104F200021960C5F1F4FCF30D10541F60E94B4256A
:104F30008091D80591E0D91206C0811102C08EE09F
:104F400007C0815005C090E00196BE010E941D2A55
:104F50008093D805CDB7DEB7E9E00C94E628EF9250
:104F6000FF921F93CF93DF93EC018BEDE82E85E04A
:104F7000F82E10E08C81970140911A066091190675
:104F8000810F0E9444201F5E84E0E80EF11C1F3F49
:104F900089F70E94B4259A818C8190FF02C08F5FAF
:104FA00001C081508C83DF91CF911F91FF90EF90D2
:104FB00008951092B9008CE08093B8000895A0E0A5
:104FC000B0E0E5EEF7E20C94C828B82EEB010E94A1
:104FD000A3246C01C431D10558F0CF3F8FEFD8071F
:104FE00059F0CE0164E170E00E94AD287B0107C05A
:104FF000EE24E394F12C03C025E0E22EF12C84E8AA
:10500000A82E94EA992E1092BC009092BC000E94A7
:10501000A3248C018091BC0087FD08C00E94A324BA
:10502000801B910B8E159F05A8F32AC08091B900B3
:10503000887F883041F08091B900887F803119F0F5
:105040000FEF1FEF1FC0B092BB00A092BC000E94E8
:10505000A3248C018091BC0087FD08C00E94A3247A
:10506000801B910B8E159F05A8F30AC08091B90093
:10507000887F883111F0803419F700E010E00EC00D
:105080000EEF1FEFCF3F8FEFD80709F4BCCFC6015B
:105090000E9494248C179D0708F4B5CFC801CDB7A2
:1050A000DEB7EBE00C94E4280F931F93CF93DF93CC
:1050B000EB018093BB0084E88093BC000E94A32492
:1050C0008C018091BC0087FD0EC0CF3F8FEFD807C9
:1050D000C1F30E94A324801B910B8C179D0788F3BA
:1050E0008EEF9FEF0CC02091B900287F81E090E007
:1050F000283211F480E090E0919581959109DF913B
:10510000CF911F910F9108950F931F93CF93DF932A
:10511000EC0184E88093BC000E94A3248C01809160
:10512000BC0087FD0EC0CF3F8FEFD807C1F30E94B0
:10513000A324801B910B8C179D0788F38EEF9FEFA4
:1051400003C08091BB0090E0DF91CF911F910F9140
:10515000089584E98093BC000895AA1BBB1B51E10C
:1051600007C0AA1FBB1FA617B70710F0A61BB70BD7
:10517000881F991F5A95A9F780959095BC01CD017C
:1051800008952F923F924F925F926F927F928F92EB
:105190009F92AF92BF92CF92DF92EF92FF920F93C6
:1051A0001F93CF93DF93CDB7DEB7CA1BDB0B0FB6D0
:1051B000F894DEBF0FBECDBF09942A88398848888D
:1051C0005F846E847D848C849B84AA84B984C88423
:1051D000DF80EE80FD800C811B81AA81B981CE0F1A
:1051E000D11D0FB6F894DEBF0FBECDBFED010895FF
:1051F0008F929F92AF92BF92CF92DF92EF92FF92E7
:10520000CF93DF93EC01688179818A819B8161155D
:1052100071058105910521F464E279ED8BE597E054
:105220002DE133EF41E050E00E94AC2949015A01E1
:105230009B01AC01A7EAB1E40E94CB296B017C0180
:10524000ACEEB4EFA50194010E94D929DC01CB0199
:105250008C0D9D1DAE1DBF1DB7FF03C00197A10999
:10526000B04888839983AA83BB839F77DF91CF91CE
:10527000FF90EF90DF90CF90BF90AF909F908F9076
:1052800008950E94F828089580E091E00E94F8288F
:105290000895A0E0B0E08093000190930101A093F5
:1052A0000201B09303010895DC01CB01FC01F999DF
:1052B000FECF06C0F2BDE1BDF89A319600B40D9262
:1052C00041505040B8F70895F999FECF92BD81BD85
:1052D000F89A992780B50895A6E1B0E044E050E03F
:1052E0000C945629A8E1B0E042E050E00C94562915
:1052F000DC01A40FB51F4150504048F0CB01840F92
:10530000951F2E910E94892941505040D0F7089551
:10531000262FF999FECF92BD81BDF89A019700B46E
:10532000021639F01FBA20BD0FB6F894FA9AF99A0E
:105330000FBE08950396272F0E9489290E9488296D
:10534000252F0E948929242F0C9489290196272F23
:105350000E9489290C948829052E97FB1EF400943D
:105360000E94C32957FD07D00E94DE2907FC03D005
:105370004EF40C94C32950954095309521953F4F9C
:105380004F4F5F4F089590958095709561957F4F31
:105390008F4F9F4F08950E94002AA59F900DB49FA4
:1053A000900DA49F800D911D11240895B7FF0C94BA
:1053B000CB290E94CB29821B930B0895A1E21A2EC0
:1053C000AA1BBB1BFD010DC0AA1FBB1FEE1FFF1FA9
:1053D000A217B307E407F50720F0A21BB30BE40BF9
:1053E000F50B661F771F881F991F1A9469F7609540
:1053F0007095809590959B01AC01BD01CF010895FA
:10540000A29FB001B39FC001A39F700D811D112405
:10541000911DB29F700D811D1124911D089587FB70
:10542000082E062687FD819567FD61950E94462A14
:105430000EF4919507FC8195089597FB072E16F4BD
:10544000009407D077FD09D00E94AD2807FC05D055
:105450003EF4909581959F4F0895709561957F4F8B
:105460000895EE0FFF1F0590F491E02D09940E941E
:10547000002A332312F48A1B9B0B0C94412A0E94AE
:10548000002AB7FF0895821B930B0895991B79E0BA
:1054900004C0991F961708F0961B881F7A95C9F7C4
:1054A000809508950F931F93CF93DF9382309105DA
:1054B00010F482E090E0E0912F06F091300620E0B9
:1054C00030E0A0E0B0E0309719F1408151810281D5
:1054D000138148175907C8F08417950769F4109786
:1054E00031F012960C93129713961C9327C00093D9
:1054F0002F061093300622C02115310519F04217EE
:10550000530718F49A01BD01EF01DF01F801DBCF69
:1055100021153105F9F0281B390B2430310580F4B1
:105520008A819B816115710521F0FB019383828340
:1055300004C09093300680932F06FE01329644C03B
:10554000FE01E20FF31F81939193225031093983B9
:1055500028833AC020912D0630912E06232B41F44A
:10556000209106013091070130932E0620932D06DD
:1055700020910401309105012115310541F42DB729
:105580003EB74091080150910901241B350BE09171
:105590002D06F0912E06E217F307A0F42E1B3F0B09
:1055A0002817390778F0AC014E5F5F4F2417350795
:1055B00048F04E0F5F1F50932E0640932D068193A7
:1055C000919302C0E0E0F0E0CF01DF91CF911F9115
:1055D0000F910895CF93DF93009709F481C0FC01E8
:1055E000329713821282A0912F06B0913006109745
:1055F00081F420813181820F931F20912D063091FB
:105600002E062817390751F5F0932E06E0932D0644
:1056100067C0ED0120E030E0CE17DF0740F44A819B
:105620005B819E0141155105F1F0EA01F5CFD3836D
:10563000C28340815181840F951FC817D90759F43F
:1056400088819981840F951F0296918380838A8136
:105650009B81938382832115310529F4F0933006D1
:10566000E0932F063DC0E901FB83EA8349915991FC
:10567000C40FD51FEC17FD0761F480819181840F61
:10568000951F0296E90199838883828193819B8388
:105690008A83E0E0F0E012968D919C911397009739
:1056A00019F0FD01DC01F7CF8D919C9111979D01BF
:1056B0002E5F3F4F820F931F20912D0630912E06B3
:1056C0002817390769F4309729F4109230061092A0
:1056D0002F0602C013821282B0932E06A0932D06CD
:1056E000DF91CF910895FC014150504030F001907E
:1056F0000616D1F73197CF01089588279927089585
:10570000FB01DC0104C08D910190801921F441500E
:0E5710005040C8F7881B990B0895F894FFCFFE
:10571E00010000000000310620009E04A40101815A
:10572E0023A4238523EB0AE60AE50A0120000119CA
:10573E001A1B1C1D1E1F2021220102014022476D33
:10574E00D801B6016F0102012A02430263027C02F4
:10575E00623764456A2F6D6F4A6E4400818283E220
:10576E0000E900EA00B500B600B700CD008301CC19
:10577E00008A0192019401210223022402250226AD
:10578E000227022A02B300B4006F0070000001026B
:10579E000202020606060909090909090F0F0F0F71
:1057AE000F0F15151518191919191919191919197C
:0257BE002324A2
:00000001FF
