:100000000C94CD030C94EA030C94EA030C94EA03D9
:100010000C94EA030C94EA030C94EA030C94EA03AC
:100020000C94EA030C94EA030C94490E0C948B0D87
:100030000C9469210C94EA030C94EA030C94EA03EF
:100040000C94EA030C94EA030C94EA030C94EA037C
:100050000C94EA030C9428210C94EA030C94EA0310
:100060000C94EA030C94EA030C94EA030C94EA035C
:100070000C94EA030C94EA030C94EA030C94EA034C
:100080000C94EA030C94EA030C94EA030C94EA033C
:100090000C94EA030C94EA030C94EA030C94EA032C
:1000A0000C94EA030C94EA030C94EA034B074B0705
:1000B0007D077D07E7070308970997090E08EC08F5
:1000C000FD08FD089E0BC50B730DC50B730D110CC0
:1000D000340C730D290D390D69196C196F197219CA
:1000E00077197C197A19161B191B1C1B1F1B221B45
:1000F000251B281B05010980A101850319012AB7C9
:1001000000150126B700950175108100C0050C0986
:1001100001A101850419012AA002150126A002955A
:100120000175108100C005010906A10185060507BA
:1001300019E029E7150025019508750181020507D9
:10014000190029EF1500250195F0750181020508B8
:100150001901290595057501910295017503910114
:10016000C005010902A1010901A100050919012920
:10017000081500250195087501810205010930095E
:10018000311581257F95027508810609381581256D
:100190007F950175088106050C0A38021581257FB7
:1001A000950175088106C0C00660FF0961A10109BB
:1001B00062150026FF00952075088102096315006D
:1001C00026FF00952075089102C005010906A101CE
:1001D000050719E029E71500250195087501810239
:1001E0009501750881010507190029FF150026FFF3
:1001F0000095067508810005081901290595057502
:10020000019102950175039101C009027400040176
:1002100000A0FA09040000010301010009211101F5
:1002200000012240000705810308000109040100C4
:10023000020300000009211101000122220007052C
:1002400083032000010705040320000109040200C4
:1002500001030102000921110100012247000705E5
:1002600082030800010904030001030000000921C2
:1002700011010001226D0007058503200001120114
:1002800000020000000897327549010001020001D8
:1002900022034500720067006F0044006F00780081
:1002A000200045005A0020005300680069006E00DD
:1002B0006500000028035A0053004100200054004C
:1002C0006500630068006E006F006C006F006700DF
:1002D000790020004C0061006200730000000403FC
:1002E000090400047F3F1F643214643214783C1EFA
:1002F0001E140A0524022B0029000151E000000011
:100300002F00330004003461E2004D002F0236005C
:1003100012001400E30031683002370008000D00BD
:1003200050002A002602130018000E004F004A0059
:100330002E001C000C001B000000C35C21020253B5
:100340000000000F0000CB5C1F02035300000007F9
:100350000000CA5C25020900070005000000B25D2C
:1003600027020A000B00100052004B002E0206006C
:1003700017001A0051002C00300015001100190060
:10038000060828001E020F0016001D7119084E00F5
:10039000200238002D0001513100000022022B0202
:1003A00029020100E00200002400330204023402AA
:1003B000E2024D022200360212021402E302E302BC
:1003C0002000370208020D0201002A021E0013025B
:1003D00018020E0201004A0226001C020C021B0237
:1003E0000000C45C35020100000001000000CD5C8B
:1003F00023020100000001000000CC5C270009027C
:1004000007020502000001001F000A020B02100291
:1004100001004B022100060217021A0201002C0201
:1004200023001502110219020100280225000F0203
:1004300016021D0201004E02350038022D02010095
:1004400031020000010001002B000100010000004A
:100450003A00A800AA000100005C045D3B00AC006B
:10046000EF0001000100F2003C00ED00EE00010091
:100470005000F1003D00AB00F00001004F00010012
:100480003E000100A9000100000001003F00010042
:100490000000095D0000A600400001000000095DA9
:1004A0000000A50041002A002A002A000000065D85
:1004B0004200240021001E00270001004300250007
:1004C00022001F003600FA0044002600230020000E
:1004D0003700F9004500250257002E000100055D98
:1004E00001003800280001000100000001000100A7
:1004F00001000100010000000100010001000100F5
:100500000100010001000100010001000100E20002
:1005100001000100010001000100010001000100D3
:1005200001000100010001000100010001000100C3
:1005300000000100010001000000010000000100B6
:1005400001000100000001000000010001000100A5
:10055000010001000000E3040100010001000100AE
:100560000100E20201000100010001000100E301BD
:1005700001000100010001000100E302010001008F
:10058000010001000100E201010001000100010081
:10059000010000002223252628292A2C2D2F303265
:1005A000333536383A3B3D3E4042434547494A4C55
:1005B0004E5051535557595A5C5E60626466686983
:1005C0006B6D6F71737577797B7D7F81838587898B
:1005D0008A8C8E90929496989A9C9E9FA1A3A5A790
:1005E000A8AAACAEAFB1B3B4B6B8B9BBBCBEBFC1BC
:1005F000C2C3C5C6C7C9CACBCCCDCED0D1D2D2D347
:10060000D4D5D6D7D7D8D9D9DADADBDBDBDCDCDC5A
:10061000DCDCDDDDDDDDDCDCDCDCDCDBDBDBDADA1D
:10062000D9D9D8D7D7D6D5D4D3D2D2D1D0CECDCC94
:10063000CBCAC9C7C6C5C3C2C1BFBEBCBBB9B8B6A9
:10064000B4B3B1AFAEACAAA8A7A5A3A19F9E9C9A34
:1006500098969492908E8C8A89878583817F7D7B02
:1006600079777573716F6D6B6968666462605E5CE3
:100670005A5957555351504E4C4A494745434240A9
:100680003E3D3B3A3836353332302F2D2C2A29283F
:1006900026252322000101010101010101010202BD
:1006A0000202020202020203030303030303030420
:1006B00004040404040405050505050606060606EB
:1006C000070707070708080808090909090A0A0AA5
:1006D0000B0B0B0C0C0C0D0D0D0E0E0E0F0F0F1047
:1006E00010111111121213131414151516161717D1
:1006F000181819191A1A1B1B1C1D1D1E1E1F20203D
:10070000212222232424252626272829292A2B2C86
:100710002D2D2E2F30313232333435363738393AA9
:100720003B3C3D3E3F404142434445464748494AA1
:100730004C4D4E4F50515354555658595A5B5D5E6F
:100740005F616264656668696B6C6D6F707273750A
:1007500077787A7B7D7E8082838587888A8C8E8F6E
:1007600091939596989A9C9EA0A2A3A5A7A9ABAD9C
:10077000AFB1B3B5B7BABCBEC0C2C4C6C9CBCDCF8A
:10078000D1D4D6D8DBDDDFE2E4E7E9EBEEF0F3F538
:10079000F8FAFDFFFFAA7F55400011241FBECFEFDE
:1007A000DAE0DEBFCDBF11E0A0E0B1E0E0EAF7E5BE
:1007B00002C005900D92A23AB107D9F726E0A2EA4D
:1007C000B1E001C01D92AD34B207E1F70E94A90F5C
:1007D0000C94CE2B0C940000A5E2B0E0E2EFF3E025
:1007E0000C940829FC018081918123813481232B81
:1007F00031F09F3F31F491E08F3F19F403C091E055
:1008000001C090E090FDD1C57F0185E0DE019196A9
:1008100001900D928A95E1F7D70112962C9189A14A
:100820009AA1222349F00E945314182F682F89A1FE
:100830009AA10E94781603C00E944316182F69A13E
:100840007AA1812F0E94CC1B8C018091A40481117C
:1008500047C0F70182818111B3C00530FDE51F0754
:1008600029F198F404303DE5130709F0A9C00E946E
:100870007F1B0E944A170E94391784EA91E09093E7
:10088000D6048093D50481E01EC007308DE518079B
:10089000E9F008309DE5190709F092C060910A015E
:1008A00070910B014FEF8EE994E017C00E947F1BFF
:1008B0000E944A170E9439178EE994E09093D6045B
:1008C0008093D50482E08093A4045FC560910C01FD
:1008D00070910D0141E084EA91E00E94F32155C539
:1008E000980124503D452330310508F052C091E075
:1008F0000630ADE51A0709F490E0F70122812917C7
:1009000009F443C58130A1F0823009F03FC0009165
:10091000D5041091D6041092D905609129067091E2
:100920002A0680912B0690912C060E944E1926C013
:100930000091D5041091D6041092D9056091290632
:1009400070912A0680912B0690912C060E944E19D8
:10095000F1E0043A1F0739F0F801369782818823C5
:1009600011F08F01F5CF10930D0100930C010EC013
:10097000F80136968281882329F08F0124E00E3910
:100980001207B1F710930B0100930A011092A4040F
:10099000FCC4813059F0823099F460910C0170915F
:1009A0000D0197014FEF8EE994E008C060910A01B4
:1009B00070910B01970141E084EA91E00E94960A50
:1009C0009091D704D70112968C91992309F44DC0C8
:1009D0008111DBC4E091A504E330A0F481E08E0F27
:1009E0008093A504F0E0EE0FFF1FE15FFA4FD701FF
:1009F0008D919C919183808382E08983CE010196C1
:100A00000E947D0FBFEFE3EDF0E3B150E040F04016
:100A1000E1F700C000008091A504833009F0B5C45F
:100A20001092A504E5E1F5E0AFE0B5E08BE195E0DB
:100A3000318111962C91119732132EC030812C9157
:100A400032132AC0329612968E179F0789F784E0D8
:100A5000898381E08093D8048EEF8A831092D70433
:100A6000CE0101960E947D0F90C49091D8049923E5
:100A7000C1F0882311F086E001C087E08983D701A7
:100A80008C918A8311968C918B838EEF8C83CE010F
:100A900001960E947D0F05C083E089831092D804DF
:100AA000DBCFF70182810F3AFDE51F0709F040C057
:100AB000882309F467C09091DC0481E0890F877076
:100AC000987F853020F4892B8093DC0402C09093BA
:100AD000DC048091DC048770BFEF8B9FC001112480
:100AE00095958795959587959927909389008093FB
:100AF000880090938B0080938A0090938D00809360
:100B00008C004091DC045091DD046091DE04709112
:100B1000DF048FE090E00E94DB296091290670914C
:100B20002A0680912B0690912C060E944E192AC00D
:100B3000013BEDE51E0749F0023BFDE51F0799F07B
:100B4000003B2DE5120729F01DC0882309F41DC4C0
:100B500034C0882309F419C49091A60481E0892740
:100B60008093A60412C4882309F40FC40E94C026EF
:100B700081E00E94BC2621E04FEF6FEF81E80E94E8
:100B8000B62503C4D70112968C918111CCC08091F7
:100B9000CD0582720D3C3CE5130709F4AAC020F193
:100BA000023D8CE5180709F4B1C048F40F3CACE5F0
:100BB0001A0709F4A5C008F05CC081E012C0053D29
:100BC0002CE5120709F4A8C008F060C0033D8CE5CD
:100BD000180709F49EC0043D9CE5190709F00FC1F0
:100BE00088E10E94BC26D1C3073CACE51A0709F492
:100BF0006CC0D8F4043CECE51E0709F45CC030F48A
:100C0000033C2CE5120709F44CC0F9C0053C3CE557
:100C1000130709F455C0063C9CE5190709F0EFC01D
:100C200043E656E26DE676E268C00A3CACE51A0798
:100C300009F455C078F4083CECE51E0709F44AC0F5
:100C4000093CFCE51F0709F0DAC046E556E269E415
:100C500076E253C00B3C2CE5120709F445C00C3C6E
:100C60003CE5130709F0CBC044EC54E266ED74E2B6
:100C700044C0003DECE51E0709F445C0013DFCE51C
:100C80001F0709F0BCC06EE089E048C0063DACE536
:100C90001A0709F446C00F35BDE51B0709F475C3F3
:100CA000AEC08091240680FF03C00E94E8246DC37B
:100CB0000E94C0266AC349EC56E263ED76E21DC08D
:100CC00043ED56E269EC76E218C04DE656E263E683
:100CD00076E213C049E456E266E576E20EC04FE2E2
:100CE00056E26CE376E209C04CE356E26FE276E24C
:100CF00004C046ED54E264EC74E20E945C2245C3F9
:100D000065E082E00BC068E086E008C064E18FE047
:100D100005C067E185E102C062E289E10E944922E3
:100D200034C383E25ECF0C35EDE51E0709F462C0E3
:100D300060F401152CE51207A9F00F3D3CE51307FF
:100D400009F05DC00E947F1D4AC00E358DE5180771
:100D500009F448C008F450C0093AADE51A0709F48F
:100D60003EC04DC00E944A17BFEFE4E3FCE0B15023
:100D7000E040F040E1F700C00000F89481E080938B
:100D8000E00080E28093D8001092C9008FE19EE4D9
:100D90000197F1F700C000001DBA109268001CBC5A
:100DA00010BE1FBA10927A0010926E0010926F005F
:100DB00010927100109272001092C9001092BC0043
:100DC00014B817B81AB81DB810BA1092BC0015B8EC
:100DD00018B81BB81EB811BA0C94003FD6C20E94B6
:100DE0003819D3C28091390682FB882780F991E0B7
:100DF000892703C081E001C080E00E947B1EF701CB
:100E0000828100811181882349F0C8010E94531416
:100E1000D82E682FC8010E94781604C0C8010E940D
:100E20004316D82EB8018D2D0E94CC1B0E94E51BC5
:100E30008C01982EF701D280A580A2949FE0A92270
:100E40008091AB058770B9F0DD20A9F0812F807FFC
:100E5000803421F080E2800F883068F0809139067C
:100E600082FF09C082E00E945E1E8091AB05877000
:100E7000CC24C3948111C12CB12EB2948FE0B8223E
:100E80008B2D90E08C30910508F051C2FC01EA5A9C
:100E9000FF4F0C94722A812F807F1F70882311F0DE
:100EA0001295107FDD20B9F0112309F42DC280E2E4
:100EB000800F883010F0911006C08091CD05182B5E
:100EC0001093CD0505C08091CC05182B1093CC054F
:100ED0000E94091E19C2802F0E947117112309F464
:100EE00026C2005E083078F1992069F11095809152
:100EF000CC0518231093CC0529C0812F807F1F704B
:100F0000803211F01295107F992021F0F1E09F16A8
:100F1000D9F147C08091390682FD1BC0DD2069F000
:100F2000112339F08091CD05182B1093CD050E9427
:100F3000091E80E00E94A617FAC180E00E94711786
:100F4000112309F4F4C1812F0E94021E0E94091E80
:100F5000EEC1DD2081F08091CE05AA2051F001E0A4
:100F6000A01207C0182B181709F4E1C11093CE0581
:100F7000DEC1812B10C0AA2021F021E0A21609F4C5
:100F8000D6C10E94FC1D1FC0DD2041F031E03A15A2
:100F900008F4CDC1812F0E946717C9C1A110C7C134
:100FA00012C0DD2019F0AA20A9F3AEC1AA2059F081
:100FB000093309F0B9C18FEF97EEA3E0815090405B
:100FC000A040E1F7AFC1812F0E946017B0C1812F0F
:100FD00086958695837019F0813059F0A8C1DD207F
:100FE00019F0C801937002C080E090E00E94D02107
:100FF000A4C1DD2019F0C801937002C080E090E028
:101000000E94BA219AC1802FDD2019F00E949827F2
:1010100002C00E94DE260E94F3278FC1812F8370B9
:1010200009F069C0D11087C1902F9295969597705D
:10103000990F990F802F8F70882E912CA12CB12C95
:10104000092E04C0880C991CAA1CBB1C0A94D2F758
:1010500004FF12C04FE050E060E070E004C0440FB5
:10106000551F661F771F9A95D2F7DB01CA0180953D
:101070009095A095B09503C080E090E0DC011695B6
:101080001695412F4370423019F1C8F40091CF05F5
:101090001091D0052091D1053091D205413059F001
:1010A00088299929AA29BB29BC01CD016023712374
:1010B000822393230AC0802A912AA22AB32ABC0140
:1010C000CD01682979298A299B290E943F1733C1BC
:1010D00088299929AA29BB290091CF051091D0050B
:1010E0002091D1053091D205BC01CD016027712737
:1010F00082279327EACFDD2019F0812F817001C06C
:101100008695882309F417C1902F9295969597702C
:10111000990F990F802F8F70882E912CA12CB12CB4
:10112000092E04C0880C991CAA1CBB1C0A94D2F777
:1011300004FF12C04FE050E060E070E004C0440FD4
:10114000551F661F771F9A95D2F7DB01CA0180955C
:101150009095A095B09503C080E090E0DC011695D5
:101160001695412F43704230D9F068F50091290659
:1011700010912A0620912B0630912C06413059F00F
:1011800088299929AA29BB29BC01CD016023712393
:10119000822393231EC0802A912AA22AB32A13C035
:1011A00088299929AA29BB290091290610912A0684
:1011B00020912B0630912C06BC01CD0160277127B0
:1011C0008227932706C0BC01CD01682979298A2985
:1011D0009B290E94AE16AFC01F70DD2039F0812F11
:1011E0000E941717802F0E946717A5C0802F0E94AA
:1011F0006017812F0E94F1169EC0802FB2EF9B16C0
:1012000009F441C0B91538F0E0EF9E1659F0F1EF3E
:101210009F16A1F174C023EF9216E1F134EF9316FB
:1012200049F16DC0DD2009F1A11081C01F7181E07D
:1012300090E0A0E0B0E0AC01BD0104C0440F551F38
:10124000661F771F1A95D2F78091290690912A067A
:10125000A0912B06B0912C068A019B010827192723
:101260002A273B27C901B80125C021E02A1508F427
:101270005EC0DCCF8091390682FD22C0DD2029F0DE
:10128000812F8F712FC0DD20D9F3812F8F710E94A4
:10129000F1164DC0DD2089F01F7181E090E0A0E0E3
:1012A000B0E0BC01CD0104C0660F771F881F991FF5
:1012B0001A95D2F70E94AE163AC00E94391737C06D
:1012C000DD2099F01F71812F0E9417178091390638
:1012D00082FF07C038E0139FC00111248360809310
:1012E000AB05812F0E94171722C081E00E945E1E6D
:1012F00081E08A15E0F482E00E945E1E18C0DD20C5
:1013000029F0AA2009F4BCCF802F14CEAA2009F41A
:10131000BCCF893349F49FEFA7EEB3E09150A040D2
:10132000B040E1F700C00000802F0E94711788EFE5
:101330008B0D843010F40E94E621CC20A9F080911E
:10134000AB0580FD11C0F7011282859585958595C5
:101350000E941717C7010E94EC038091AB05859589
:10136000859585950E94F11685E0F701DE011196BD
:1013700001900D928A95E1F709811A81C8010E94B6
:101380004316B8010E94CC1B10C08091AB0587703A
:1013900061F0D70112968C91882339F0809139063B
:1013A00082FF03C082E00E945E1EA596ECE00C94D2
:1013B00024298091CD0487FF11C08091E80082FD2F
:1013C00005C08091D9048111F8CF11C08091E80047
:1013D0008B770BC08091D904882349F08091E80075
:1013E00080FFF8CF8091E8008E778093E800089521
:1013F000982F973068F59093E900981739F070911D
:10140000EC002091ED005091F00003C0242F762FC6
:1014100050E021FD02C09F5FECCF3091EB003E7F9A
:101420003093EB003091ED003D7F3093ED00309133
:10143000EB0031603093EB007093EC002093ED00F3
:101440005093F0002091EE0027FDE5CF80E0089555
:101450008F708093E90081E008952091D30430914A
:10146000D4042617370748F06115710539F4209127
:10147000E8002E772093E80001C0B901FC0120E0CC
:101480006115710579F18091D9048823F1F18530D6
:10149000F1F18091E80083FD3CC08091E80082FD7D
:1014A0002EC08091E80080FFEBCF2091F300809167
:1014B000F20090E0922B6115710551F08830910592
:1014C00038F421912093F100615071090196F3CF16
:1014D00021E0089709F020E08091E8008E77809362
:1014E000E800CECF2111CFCF0AC08091D904882344
:1014F00061F0853061F08091E80083FD0AC0809141
:10150000E80082FFF2CF80E0089582E0089583E052
:10151000089581E008950895BC0184E00E94FD20B3
:101520000895BC0183E00E94FD200895F901228105
:10153000A091D504B091D604211103C0A817B90712
:10154000C9F086E04802A0011124CD01841B950B4F
:101550006817790779F086E001900D928A95E1F796
:101560008091D5049091D604480F591F5093D6040A
:101570004093D5040895AAE2B0E0E1ECFAE00C94BF
:101580001129EDECF4E085ED94E02091F100219338
:101590008E179F07D1F78091CE04833009F463C082
:1015A00030F4813071F0823009F49DC0B4C08A30CB
:1015B00009F489C08B3009F46EC0893009F0ABC0E2
:1015C00020C08091CD04813A09F0A5C08091E80047
:1015D000877F8093E8008091D1049091D204892B79
:1015E00021F460E28AEA94E003C060E080E090E0E9
:1015F00070E00E942D0A8091E8008B778093E800CC
:101600008AC08091CD04813209F085C08091D104D7
:101610009091D204009719F0039709F07CC0809153
:10162000E800877F8093E8008091E80082FD05C094
:101630008091D9048111F8CF6EC02091F300809180
:10164000F20090E0922B029731F48091F10081300A
:1016500011F0863021F48091F1008093A9048091EB
:10166000E8008B7754C08091CD04813A09F053C0D3
:101670008091D1049091D204892B09F04CC08091C3
:10168000E800877F8093E8008091E80080FFFCCF2E
:1016900080910E0137C08091CD048132E1F58091B7
:1016A000D1049091D204892BB1F58091E800877F15
:1016B0008093E8000E94D9098091CF0480930E01A5
:1016C0000E944A1728C08091CD04813221F5809173
:1016D000E800877F8093E8000E94D9098091D004B8
:1016E0008093A80418C08091CD04813AA1F4809120
:1016F000E800877F8093E8008091E80080FFFCCFBE
:101700008091A8048093F1008091E8008E77809307
:10171000E8000E94D9098091E80083FFE4C180912C
:10172000CD049091CE04492F50E04A30510508F085
:10173000DAC1FA01EE59FF4F0C94722A803821F079
:10174000823809F0D0C108C08091CA049091CB04BE
:10175000992389F082600FC08091D1048F70873007
:1017600008F0C1C18093E9008091EB0085FB8827D8
:1017700080F91092E9009091E800977F9093E8003B
:101780008093F1001092F10070C1282F2D7F09F095
:10179000AAC1882319F0823061F0A5C18091CF04DD
:1017A000813009F0A0C1933009F080E08093CB0430
:1017B0002EC08091CF0481112AC08091D1048F70F6
:1017C0002FEF280F263008F08EC18093E90020917A
:1017D000EB0020FF1CC0933021F48091EB0080626D
:1017E00014C09091EB0090619093EB0021E030E009
:1017F000A90102C0440F551F8A95E2F74093EA0001
:101800001092EA008091EB0088608093EB001092C8
:10181000E9008091E800877F8093E8000E94D90961
:1018200062C1811160C11091CF041F778091E300E4
:101830008078812B8093E3008091E800877F8093FC
:10184000E8000E94D9098091E80080FFFCCF8091D8
:10185000E30080688093E300111102C082E001C0C0
:1018600083E08093D9043FC18058823008F03BC1A7
:101870002091CF043091D0042C3D53E0350779F509
:1018800083E08A838AE289834FB7F894DE01139656
:1018900020E03EE051E2E32FF0E050935700E49166
:1018A00020FF03C0E295EF703F5FEF708E2F90E056
:1018B000EA3010F0C79601C0C0968D939D932F5FBC
:1018C000243149F74FBF8091E800877F8093E8007B
:1018D0006AE270E0CE0101960E942D0AB4C08091A8
:1018E000D1049091D204432F552743305105A9F0DC
:1018F00068F44130510509F405C14230510509F041
:10190000F2C084E790E0EAE0F2E04BC041325105DA
:1019100029F14232510589F1E6C0C9019927813088
:101920009105A1F058F0029709F0DDC0E0E9F2E07E
:10193000E4918E2F90E0E0E9F2E030C0EEEDF2E0CD
:10194000E4918E2F90E0EEEDF2E028C0E4EBF2E0BF
:10195000E4918E2F90E0E4EBF2E020C0843091051A
:1019600008F0C1C0880F991FFC01E95CFE4F01908F
:10197000F081E02D89E090E014C08430910508F0FA
:10198000B2C0FC01EE0FFF1FE15DFE4F0190F08140
:10199000E02DDC01A55DBE4F8C9190E0009709F42D
:1019A000A2C02091E800277F2093E8002091D30473
:1019B0003091D4042817390708F4C90140E0009792
:1019C00089F12091D904222309F43DC02530D9F1B1
:1019D0002091E80023FD37C02091E80022FD2FC0B0
:1019E0002091E80020FFEBCF4091F3002091F2001E
:1019F00030E0342B009759F02830310540F4449101
:101A00004093F100319601972F5F3F4FF3CF41E0B4
:101A10002830310509F040E02091E8002E7720932E
:101A2000E800CDCF4111CDCF0AC08091D9048823E1
:101A300051F0853041F08091E80083FD04C0809131
:101A4000E80082FFF2CF8091E8008B778093E80076
:101A50004AC0803809F047C08091E800877F8093B2
:101A6000E8008091CC048093F1008091E8008E77AB
:101A7000D3CE811138C08091CF049091D0049927A2
:101A800002978CF58091E800877F8093E8001091A1
:101A9000CF041093CC040E94D909111106C0809183
:101AA000E30087FD02C081E001C084E08093D90497
:101AB00042E061EC81E00E94F80942E061EC82E0E2
:101AC0000E94F80942E261EC85E00E94F80942E2D6
:101AD00061EC83E00E94F80942E260EC84E00E943D
:101AE000F8098091D9048091E80083FF10C08091AB
:101AF000E800877F8093E8008091EB00806280930C
:101B0000EB0005C082E190E0EEE7F2E04ACFAA9652
:101B1000E3E00C942D291F920F920FB60F9211241F
:101B20002F933F934F935F936F937F938F939F93E5
:101B3000AF93BF93CF93DF93EF93FF93C091E900EF
:101B4000CF708091EC00D82FD17080FDD0E810923A
:101B5000E9008091F000877F8093F00078940E94E4
:101B6000BB0A1092E9008091F00088608093F00039
:101B7000CD2BCF70C093E900FF91EF91DF91CF9112
:101B8000BF91AF919F918F917F916F915F914F9195
:101B90003F912F910F900FBE0F901F901895E8ED79
:101BA000F0E080818E7F80831092E2001092DA0054
:101BB0001092E100A0EEB0E08C9181608C93808166
:101BC0008F77808319BCA7EDB0E08C918E7F8C93CA
:101BD00080818F7E80831092A7040895A0E0B0E0FA
:101BE000E4EFFDE00C940C29C8EDD0E088818F7EF5
:101BF0008883E7EDF0E080818160808384E082BFAC
:101C000081E08093A70488818E7F888302EE10E0B4
:101C1000F80110821092DA0081EEC82ED12CF60164
:101C2000108288818F778883888180688883888103
:101C30008F7D888319BC1092D9041092CC04109225
:101C4000CB041092CA0490EEE92EF12CF7018081AA
:101C50008B7F808388818160888342E060E080E0C0
:101C60000E94F809F60180818E7F8083F8018081CF
:101C700081608083808188608083F70180818E7F8E
:101C80008083888180618883CDB7DEB7E8E00C94DB
:101C900028291F920F920FB60F9211242F933F9372
:101CA0004F935F936F937F938F939F93AF93BF9364
:101CB000EF93FF938091E10082FF09C08091E200E1
:101CC00082FF05C08091E1008B7F8093E1008091CD
:101CD000DA0080FF2AC08091D80080FF26C0809162
:101CE000DA008E7F8093DA008091D90080FF18C0DF
:101CF00080E189BD82E189BD09B400FEFDCF81E0AC
:101D00008093D9048091A70481110FC00E94CF0D48
:101D10000E94EE0D8091E20084608093E20005C095
:101D200019BC1092D9041092A7048091E10080FFA1
:101D300017C08091E20080FF13C08091E2008E7F87
:101D40008093E2008091E20080618093E2008091C4
:101D5000D80080628093D80019BC85E08093D904B4
:101D60008091E10084FF30C08091E20084FF2CC0AC
:101D700080E189BD82E189BD09B400FEFDCF80917B
:101D8000D8008F7D8093D8008091E1008F7E809372
:101D9000E1008091E2008F7E8093E2008091E2007A
:101DA00081608093E2008091CC04882311F084E06C
:101DB00007C08091E30087FD02C081E001C083E09D
:101DC0008093D9048091D9048091E10083FF27C0DA
:101DD0008091E20083FF23C08091E100877F8093A0
:101DE000E10082E08093D9041092CC048091E1005C
:101DF0008E7F8093E1008091E2008E7F8093E200ED
:101E00008091E20080618093E20042E060E080E047
:101E10000E94F8098091F00088608093F000FF91A3
:101E2000EF91BF91AF919F918F917F916F915F9152
:101E30004F913F912F910F900FBE0F901F901895CB
:101E40002091E4003091E50095E64091EC00842F6C
:101E5000817040FF23C08091E80080FD1DC080910B
:101E6000D904882399F0853099F08091EB0085FDA5
:101E700011C04091E4005091E5002417350729F383
:101E8000915011F09A01E1CF84E0089582E0089525
:101E900083E0089581E0089580E008954091E8008E
:101EA00042FFDDCF0895EF92FF920F931F93CF93E0
:101EB000DF937C018B010E94200F811119C0E70183
:101EC00001151105A1F08091E80085FD0AC08091FF
:101ED000E8008E778093E8000E94200F882381F32A
:101EE00007C089918093F10001501109E9CF80E08A
:101EF000CDB7DEB7E6E00C942A29CF932091D90420
:101F0000243029F5C091E900CF703091EC00232FE7
:101F1000217030FD20E8C22B23E02093E9002091BE
:101F2000E80020FF11C040E050E060E270E00E9455
:101F3000530F882321F01092D7041092D804809177
:101F4000E8008E778093E800CF70C093E900CF91CE
:101F50000895CF93DF93CDB7DEB7CC55D1090FB637
:101F6000F894DEBF0FBECDBF85B7806885BF85B74B
:101F7000806885BF84B7877F84BF0FB6F894A89523
:101F800080916000886180936000109260000FBEB5
:101F900090E080E80FB6F894809361009093610020
:101FA0000FBE87E89BE19093A3018093A2010E945A
:101FB000CF0D0E94EE0D8091E20084608093E200DC
:101FC00078948091D9048823A1F01091E9001F70C2
:101FD0009091EC00892F817090FD80E8182B109271
:101FE000E9008091E80083FD0E94BB0A1F701093F6
:101FF000E90082E084BD93E095BD9AEF97BD8093A0
:102000006E000E94F11990E090931C0180931B01D7
:102010000E942C1B0E94721BE0EEF4E0A1EFB4E0E2
:1020200011921D9224E0EE3EF207D1F78EE090E08F
:102030000E94932A8093DA049093DB04FC010E96AD
:102040001192E817F907E1F789EA8093800089E0A7
:102050008093810024982C983F988AB18F7C8AB90C
:102060006E98479A8BB180638BB9769A8FE090E037
:102070000E94AD296093DC047093DD048093DE043C
:102080009093DF0467703FEF639FB0011124759553
:102090006795759567957727709389006093880099
:1020A00070938B0060938A0070938D0060938C0016
:1020B0000E94681A80E090E00E94B329883E9E4FFB
:1020C00011F00E947F1D82E090E00E94A52980937C
:1020D000FF0484E090E00E94A529182F82E290E09E
:1020E0000E94A529212F30E0382B30933906209308
:1020F000380683E090E00E94A529682F70E080E018
:1021000090E00E943F176091290670912A06809105
:102110002B0690912C060E944E198091EE0481119D
:1021200036C080E090E00E94B329883E9E4F21F0A7
:102130000E947F1D0E94012588E090E00E94AD2949
:1021400060932406709325068093260690932706B5
:102150006E7F71F40E94012588E090E00E94AD2915
:102160006093240670932506809326069093270695
:102170000E949E241092E4058091240680FF04C0F2
:1021800060E086950E94772681E08093EE0460915E
:10219000290670912A0680912B0690912C060E94A8
:1021A0004E198FE091E09093300680932F06A8E1BE
:1021B000CA2ED12CB0E4BB2E1FEFE12E14E0F12E7D
:1021C0008091D904853009F079C09924939400E175
:1021D00012E18091D904853009F063C08091D9045F
:1021E000843009F43DC01092E4058091F00481111F
:1021F00016C09092F00480912406982F91709093CD
:10220000EF048E7F80932406FFEF20E732E0F15049
:1022100020403040E1F700C000000E947922109277
:1022200033060FB6F894A895C09260000FBEB09226
:10223000600083B7817F846083BF83B7816083BF81
:102240007894889583B78E7F83BF0FB6F894A8954E
:1022500080916000886180936000109260000FBEE2
:102260008091CB04882309F4B4CF0E94F11990E047
:1022700090931C0180931B010E942C1B0E94721BD7
:10228000E1EFF4E01192EE16FF06E1F70E940A1F5B
:10229000E1EFF4E081918111CBC2EE16FF06D1F798
:1022A00098CF0E944A170E94E6211092F004809174
:1022B000EF0481110E94B2260E9463220E940A1F2D
:1022C000882359F08FB7F894409134065091350621
:1022D00060913606709137068FBFE0E0F5E0A1EF20
:1022E000B4E000E010E0302F2D9191919227A1F100
:1022F00080E099249394492D492351F164968FAF3E
:10230000649765963FAF6597292181E009F480E0E5
:1023100066968FAF66970E945D218160782F6896E0
:102320009FAF8EAF689764964FAD649765965FAD2B
:10233000659766966FAD669768968FAD68970E94B1
:102340004B18F801E050FB4F8081982690822AC0FC
:102350008F5F990C863079F60F5F1F4F0E30110595
:1023600009F0C1CF8FEF69968FAF69976A968FAFEB
:102370006A976B961FAE6B970E945D218160782FE4
:102380006D969FAF8EAF6D9769964FAD69976A96C0
:102390005FAD6A976B966FAD6B976D968FAD6D97CE
:1023A0000E944B188091E405882309F493C0809122
:1023B000E305E0912406E695E81BE093DF05823013
:1023C00059F4F0E0E051FD4FE4910E2F10E0F9EEEA
:1023D0008F2EF0E29F2E59C0863059F4F0E0E35181
:1023E000FD4FE4910E2F10E0E9ED8E2EE0E29E2EDF
:1023F0004CC0893061F4E695F0E0E651FD4FE49180
:102400000E2F10E072E6872E74E2972E3EC08F30BA
:1024100061F4E695F0E0E951FD4FE4910E2F10E0F4
:102420006CEF862E63E2962E30C0853159F4F0E0D1
:10243000EC51FD4FE4910E2F10E05CEA852E53E243
:10244000952E23C08831A1F0833249F4E2EEF2E008
:10245000059114914FE9842E40E2942E16C08432E7
:1024600071F404EF11E039EF832E32E2932E0DC0A8
:1024700008E210E021E3822E23E2922E06C000ED56
:1024800017E09EE3892E90E2992E8091E005882343
:1024900061F01092E0050E945D219093DE0580932B
:1024A000DD051092E2051092E1050E945D21E091A8
:1024B000DD05F091DE058E1B9F0B8F3F9F4750F48B
:1024C0000E0F1F1F1093DE050093DD058DED95E0C7
:1024D000F401099585E0E4E4F6E0DE01119601904F
:1024E0000D928A95E1F710924506109246061092D9
:1024F0004706109248061A81111104C08B81882367
:1025000009F452C080914206909143060E944E21E8
:102510009C0190913E06992309F4A0C12531310513
:1025200008F442C09F3F19F09F5F90933E0611232D
:1025300061F00E947527111614F09FEF01C091E021
:10254000899F802D1124809345061B81112361F002
:102550000E947527111614F09FEF01C091E0899F2A
:10256000802D112480934606309145063323E1F0F7
:10257000209146062223C1F045EB3403C00111240B
:10258000992319F09093450603C081E08093450696
:1025900035EB2303C0011124992319F090934606CB
:1025A00003C081E0809346061C81111104C08D8117
:1025B000882309F452C080914006909141060E9400
:1025C0004E219C0190913D06992309F44BC1253180
:1025D000310508F442C09F3F19F09F5F90933D067C
:1025E000112361F00E945527111614F09FEF01C0CE
:1025F00091E0899F802D1124809347061D8111232E
:1026000061F00E945527111614F09FEF01C091E070
:10261000899F802D112480934806309147063323EB
:10262000E1F0209148062223C1F045EB3403C001BC
:102630001124992319F09093470603C081E08093F9
:10264000470635EB2303C0011124992319F0909319
:10265000480603C081E08093480645E050E0BE0193
:102660006F5F7F4F84E496E00E94C12B892B11F0AD
:102670000E94F32785E0FE013196A4E4B6E00190C4
:102680000D928A95E1F70E94E62190910E0589133B
:1026900080930E058091D904843009F091CD809308
:1026A000E9008091E80082FF8BCD8091E80085FFF2
:1026B00022C00E94200F81111CC000E210E04E01D8
:1026C00041E2840E911C08C08091F100F4018193D5
:1026D0004F010150110969F08091E80085FDF4CFA8
:1026E0008091E8008B778093E8000E94200F882378
:1026F00099F391E001C090E08091E8008B7780939E
:10270000E800992309F45CCD89A18130E9F158F101
:10271000823021F0843009F480C052CD8BA19AA17F
:1027200090930F05809310058DA19CA190931105A6
:10273000809312058FA19EA1909313058093140599
:1027400042E150E063E270E0CE018F5B9F4F0E9458
:10275000952984E0898381E08093D8048EEF8A8371
:102760001092D7040CC019828CE0EFE3F1E0DE0197
:10277000129601900D928A95E1F78EEF8D87CE012A
:1027800001960E947D0F1CCD05E115E08BE1882E9E
:1027900085E0982E0E942A22F801819391938F015F
:1027A0008E169F06B9F781E08983909115059A836B
:1027B000909116059B83909117059C839091180525
:1027C0009D83909119059E8390911A059F839EEF9A
:1027D00098878093D704CE0101960E947D0F42E135
:1027E00050E063E270E0CE0101960E949529FE015F
:1027F000319682E183301CF09189928B01C0128A5C
:10280000815031978F3FB1F742E150E063E270E0D1
:10281000CE0101960E94B929D3CC8091D804882397
:1028200009F4CECC0E9439178AA10E941717C8CC90
:1028300009BD19BD09B400FEFDCF8091D8008F7D80
:102840008093D8008091E00082608093E0008091C6
:10285000E00081FDFCCF0E944A17BBCC232B09F07E
:1028600063CEA2CE2139314008F0B7CEF6CE80E05B
:1028700090E00E94D02180E090E00E94BA21109266
:10288000CC050E94091EE4E4F6E085E0DF011D921C
:102890008A95E9F710923E0610923D0610923F0687
:1028A0000E94F3270895A0E0B0E0E9E5F4E10C947C
:1028B0000B298C01C0902906D0902A06E0902B06A7
:1028C000F0902C068091CF059091D005A091D10574
:1028D000B091D205C82AD92AEA2AFB2ACFE1D0E052
:1028E000D701C6010C2E04C0B695A795979587957C
:1028F0000A94D2F780FD04C0219790F7B12C09C04B
:10290000BC2EB8018C2F0E94CC1B0E94E51B0197A6
:1029100099F38B2DCDB7DEB7E9E00C942729CF933F
:10292000DF93EC010E945314BE010E94CC1B0E9455
:10293000E51BDF91CF910895FC01808191810E9478
:102940008F1492959F70963079F010F4925001C0D8
:102950009A50923068F4803F69F018F4883E40F451
:1029600009C0843F29F406C0883E20F0813F11F061
:1029700080E0089581E00895A1E1B0E0E2ECF4E1A7
:102980000C9409298C0185E0F801DE011D96019067
:102990000D928A95E1F7F801E280909173056091BC
:1029A000740540917605509177054115510531F038
:1029B0006F3F31F481E09F3F19F403C081E001C013
:1029C00080E0F82FF1709F2E80FD1BC1F80130814F
:1029D0002181C380D48083E7A82E85E0B82EF090B3
:1029E0007505F601E41BF50BFF2009F4C7C08091C3
:1029F0007805E83CF10508F092C0482F407F09F0C7
:102A000051C0621311C093130FC0FE2CE1100CC013
:102A10008F70806180937805C5010E94EC038091DE
:102A20007805F80185832AC1C114D10431F02F3F04
:102A300031F481E03F3F19F403C081E001C080E040
:102A400080FD03C081E08E2502C080E090E0F82F79
:102A5000F170FF2E80FF1CC08091AA05409179057E
:102A600056E0841709F4E8C090E0589FF001599FA0
:102A7000F00D1124E658FA4F6181261306C06081DB
:102A8000631303C06281E61203C001968770E9CF29
:102A9000FE2CEE2009F4F2C08091780581608093CD
:102AA000780549C0621306C0931304C0E11002C048
:102AB000F80186C0C8010E949C14882351F1EE20C1
:102AC00041F120917805822F82958F7090E00297D6
:102AD00074F0809173059091740598878F8319869F
:102AE000DB86CA862C87CE0107960E94EC0386E01F
:102AF000F801A3E7B5E001900D928A95E1F70E94F5
:102B0000A11E0AC06217C9F0C8010E949C1481115D
:102B10001EC0C8010E94EC03FF24F394AFC0482FED
:102B2000407F81F783E795E00E94EC0386E0F501A2
:102B300011928A95E9F7F12CA1C09313E5CFE1102A
:102B4000E3CFF8018583C8010E94EC0354C0EE2056
:102B500001F320917805822F82958F7090E0029783
:102B600034F280917305909174059A8389831B8256
:102B7000DD82CC822E83CE010196B7CFE83CF105F1
:102B8000D0F5FE2CEE2029F2621327C0931325C046
:102B90002091780520FD18C0822F82958F70482FD4
:102BA00050E04115510581F0F80125834F30510562
:102BB00041F08F5F982F9295907F822F8F70892B95
:102BC0008583C8010E94EC0386E0F801A3E7B5E025
:102BD00001900D928A95E1F751C0C8010E949C14A2
:102BE000811185CF80917805816080937805C80137
:102BF0000E94EC0343C086E0F50111928A95E9F743
:102C00003DC0EE2009F485CFC8010E949C14F82E27
:102C1000882309F47ECF86E0F801A3E7B5E00190B0
:102C20000D928A95E1F780917305909174050E9449
:102C30008F140E94A11E22C03D872E878D859E8500
:102C40000E948F14292F22952F70223028F49F7014
:102C500039F0811105C00BC0243028F49F7049F46D
:102C6000805E883020F0C8010E94EC039F2CF92C74
:102C700005C0F8019581907F99F7F9CF8F2D619666
:102C8000EBE00C942529292F9E3080F5863070F5D5
:102C900090E036E0239F800D911D1124682F67700E
:102CA00023E0969587952A95E1F725E0289FF00186
:102CB000299FF00D1124E55EFA4F40E050E080E0DE
:102CC000219130E0062E02C0369527950A94E2F74E
:102CD00021703327042E01C0220F0A94EAF7822BB9
:102CE0004F5F5F4F4530510559F7089580E00895D3
:102CF000292F9E3090F5863080F590E036E0239FB6
:102D0000800D911D1124282F277051E001C0550F0F
:102D10002A95EAF723E0969587952A95E1F725E02D
:102D2000289FF001299FF00D1124E55EFA4F20E065
:102D300030E070E04081CB01022E02C0969587956D
:102D40000A94E2F7817081958427852384278193F3
:102D50002F5F3F4F2530310569F70895CF92DF92FD
:102D6000EF92FF92CF93DF93CDB7DEB7A0970FB668
:102D7000F894DEBF0FBECDBF0E944E196B017C01DF
:102D80008091D8048823B1F02FEF80E792E02150A2
:102D900080409040E1F700C0000085E08983C701D2
:102DA000B6010E94E8188A838EEF8B83CE010196CC
:102DB0000E947D0FC0922906D0922A06E0922B062F
:102DC000F0922C060E943714A0960FB6F894DEBF3E
:102DD0000FBECDBFDF91CF91FF90EF90DF90CF90EE
:102DE00008950F931F9341E050E060E070E004C04D
:102DF000440F551F661F771F8A95D2F7409550954F
:102E0000609570958091290690912A06A0912B06D5
:102E1000B0912C068A019B01082319232A233B2306
:102E2000C901B8010E94AE161F910F9108950F932A
:102E30001F9341E050E060E070E004C0440F551F74
:102E4000661F771F8A95D2F78091290690912A06EE
:102E5000A0912B06B0912C068A019B01082B192BFF
:102E60002A2B3B2BC901B8010E94AE161F910F916E
:102E7000089560E070E0CB010E94AE160895609363
:102E8000CF057093D0058093D1059093D2050E9411
:102E9000371408951092CD0580910E01882331F0EA
:102EA0008091380687FF02C08EE101C086E0E5E52B
:102EB000F5E0DF011D928A95E9F70E943714089525
:102EC000882321F00E94021E0E94091E0895882373
:102ED00039F09091CD05892B8093CD050E94091E74
:102EE0000895882391F19CEF980F913A30F4682F60
:102EF00083E595E00E9492210DC090E2980F9830F2
:102F000060F4877091E001C0990F8A95EAF7892FE4
:102F10000E94021E0E94091E08959BE5980F93309F
:102F200028F480E090E00E94D021089598E5980F61
:102F3000973128F480E090E00E94BA2108958D3EF8
:102F400020F00E94DE260E94F3270895CF93882365
:102F500009F49FC0C82F8CEF8C0F813A08F05BC03A
:102F600080910E018823E1F08091380687FF18C018
:102F7000EC2FE695E695E695F0E0ED5AFA4F828162
:102F8000282F30E04C2F477081E090E002C0880F7E
:102F9000991F4A95E2F782239323892B59F411C094
:102FA000E5E5F5E08191C81729F085E0EB35F807F4
:102FB000C9F707C06C2F83E595E00E9492210E941B
:102FC000091E80910E018823B1F08091380687FF99
:102FD00012C0EC2FE695E695E695F0E0ED5AFA4F33
:102FE000C77081E090E001C0880FCA95EAF792812E
:102FF000892B828320C0A5E5B5E0EFEF80E09D91AD
:10300000C917C9F0EF3F19F4911101C0E82F8F5F84
:103010008630A9F735C080E28C0F883078F4C7700D
:1030200081E090E001C0880FCA95EAF79091CD0544
:10303000892B8093CD050E94091E2BC0EBE5EC0F78
:10304000E33040F4F0E0E55BFE4F808190E00E94C9
:10305000D0211FC0E8E5EC0FE73150F4F0E0EE0FAF
:10306000FF1FE25BFE4F808191810E94BA2111C057
:10307000CD3E78F08C2F0E9498270E94F32709C03C
:10308000EF3FC9F20E2E000CFF0BED5AFA4FC28330
:10309000D2CFCF910895A7E1B0E0E1E5F8E10C943B
:1030A00011294B8B5C8B6D8B7E8B8F8B61111092FA
:1030B000CC0586E09E01235F3F4FD901E82F1D928A
:1030C000EA95E9F795E0FE017396D90101900D921A
:1030D0009A95E1F79C894E895F897B897D879E87D8
:1030E0006F87598B488BF901DE01179601900D927D
:1030F0008A95E1F7CE0107960E94BC1481113EC06B
:1031000086E0FE013796DE01119601900D928A95B8
:10311000E1F7FF81E8856A857B856115710531F0EE
:10312000EF3F31F481E0FF3F19F403C081E001C0BB
:1031300080E080FD23C02091790530E0C90101962F
:10314000877099274091AA0550E08417950779F177
:10315000F983EA837D836C8396E0929FD001939FED
:10316000B00D1124A658BA4FFE01319601900D9270
:103170009A95E1F7809379050E94971E16E0809159
:10318000AA05909179058917F9F0189FC0011124BB
:1031900086589A4F0E94BC148823B1F08091AA05EA
:1031A00090E00196877099278093AA05E8CF0E9446
:1031B0004A17109279051092AA05E3E7F5E086E038
:1031C000DF011D928A95E9F76796E3E00C942D29BB
:1031D000CF92DF92EF92FF926C01EE24FF24C11494
:1031E000D104E104F10421F0C701B60120E101C0DE
:1031F00020E0C72ED82EE92EFF24C114D104E1040B
:10320000F10419F0285FC701B6016B017C0154E09D
:10321000F694E794D794C7945A95D1F7C114D10482
:10322000E104F10419F02C5FC701B6016B017C01C8
:1032300042E0F694E794D794C7944A95D1F7C11425
:10324000D104E104F10419F02E5FC701B601DC01DD
:10325000CB01B695A79597958795892B8A2B8B2BB4
:1032600009F02F5F822FFF90EF90DF90CF900895AD
:103270000E944A172FEF84E39CE021508040904049
:10328000E1F700C000009AE088E10FB6F894A89535
:10329000809360000FBE90936000FFCFCF92DF92CB
:1032A000EF92FF926B017C010E94E81856985E989D
:1032B00025982D9826982E9827982F98482F50E0DB
:1032C000FA013197E730F105E0F4E459FF4F0C942F
:1032D000722A259A2D9A2CC0269A2E9A38C0279A9F
:1032E0002F9A44C0259A2D9A269A2E9A50C0259A34
:1032F0002D9A04C0259A2D9A269A2E9A279A2F9AAB
:1033000046C08130A9F028F0823009F1833071F194
:103310003EC08091A60481115DC00E94B22660E08B
:1033200081E00E94772620E047EF61E88EE92CC01B
:103330008091A60481114EC00E94B22660E081E017
:103340000E94772620E04EEC6BE78FE31DC0809152
:10335000A60481113FC00E94B22660E081E00E9475
:10336000772620E04FEF6BE980E10EC08091A60444
:10337000811130C00E94B22660E081E00E94772671
:1033800020E047EF65E88AEF0E94B62523C08091D0
:10339000A60481111FC088E090E00E94AD296093CF
:1033A000240670932506809326069093270660FFD7
:1033B0000FC00E94C0268091240686950E94BC26DC
:1033C00021E0409127066091260680912506DCCFFA
:1033D0000E94E824C701B601FF90EF90DF90CF90E4
:1033E000089580E290E090931C0180931B018091EE
:1033F000520581110EC00E941A2881E08093520567
:103400002FEF83ED90E3215080409040E1F700C022
:10341000000064E670E080E40E94202890931C0184
:1034200080931B01892B09F04EC064E670E080E0B8
:103430000E94952890931C0180931B01892B09F011
:1034400042C064E670E080E00E94952890931C01E1
:1034500080931B01892BB9F564E670E08FE30E942D
:10346000952890931C0180931B01892B61F50E9484
:10347000EA2864E670E080E40E94202890931C0112
:1034800080931B01892BF9F464E670E08CE00E94C4
:10349000952890931C0180931B01892BA1F464E66D
:1034A00070E080E00E94952890931C0180931B019E
:1034B000892B49F464E670E08FE30E94952890938D
:1034C0001C0180931B010E94EA2880911B01089532
:1034D000CF93DF9356985E9825982D9826982E982E
:1034E00027982F98C8E8D0E08FEF90E099838883E1
:1034F000AAE8B0E011969C938E93ECE8F0E09183FB
:103500008083259A2D9A2FEF80E792E0215080400A
:103510009040E1F700C00000269A2E9A2FEF80E736
:1035200092E0215080409040E1F700C00000279ACF
:103530002F9A2FEF80E792E0215080409040E1F7F2
:1035400000C0000025982D982FEF80E792E02150D1
:1035500080409040E1F700C0000026982E982FEFA1
:1035600080E792E0215080409040E1F700C00000E9
:1035700027982F988091DC0487702FEF829FC001DD
:103580001124959587959595879599279983888393
:1035900011969C938E939183808356985E9825987C
:1035A0002D9826982E9827982F98DF91CF910895DF
:1035B000CF93E82F873080F580911B0190911C01FB
:1035C000892B09F047C0CE2F64E670E080E40E94AA
:1035D000202890931C0180931B01892BD1F464E671
:1035E00070E082E10E94952890931C0180931B015A
:1035F000892B79F481E090E001C0880FCA95EAF741
:1036000064E670E080950E94952890931C01809359
:103610001B010E94EA281EC090E0FC013797E730AA
:10362000F105C0F4ED58FF4F0C94722A209A2898A7
:1036300011C0219A29980EC0229A2A980BC0239A69
:103640002B9808C0529A5A9805C0539A5B9802C0AA
:103650003E9A4698CF9108952098289821982998C5
:1036600022982A9823982B9852985A9853985B98A6
:103670003E9846980895CF93873040F580911B017E
:1036800090911C01892B59F564E670E081E40E9459
:10369000202890931C0180931B01892B11F0C0E01E
:1036A00011C084E690E00E94C52897FF05C0909362
:1036B0001C0180931B01F3CFC82FC09510921C01F1
:1036C00010921B010E94EA288C2F0AC09FB18FB173
:1036D000807F869586959370892B809501C080E0C8
:1036E000CF9108958098889A8198899A84988C9A25
:1036F00085988D9A86988E9A87988F9A089581E0FA
:103700008093D9050E945D21259A2D9A089580E025
:1037100008959091380692FF0DC0282F2871283007
:1037200019F4877F846006C0282F2471243011F497
:103730008B7F886093FF0DC0282F2871283119F4E2
:10374000877E846106C0282F2471243111F48B7E7A
:1037500088612091390620FF0DC0382F387138302C
:1037600019F4877F816006C0382F3171313011F430
:103770008E7F886021FF0DC0282F2871283119F411
:10378000877E816106C0282F2171213111F48E7E40
:10379000886194FD877E08957E30A0F4663090F4B1
:1037A00094E5899FF001112486E0789FE00DF11DDA
:1037B0001124E60FF11DEE0FFF1FEC50FD4F859118
:1037C0009491089580E090E00895CF93DF9382383C
:1037D000910569F1B0F48133910509F46FC048F4A3
:1037E0008932910509F465C08A32910509F46BC0EC
:1037F0008AC08533910509F457C089339105B9F022
:1038000082C0833E910571F138F4803E9105B1F09C
:10381000823E910511F177C0863E9105B9F1873E50
:103820009105C9F1843E910509F06DC024C0209135
:10383000380620FD53C021FD51C065C08091380677
:1038400080FD46C08091390680FF48C080913806CF
:1038500084FD50C183EE90E04FC18091380682FF15
:103860003AC0F4CF8091380682FD35C08091390688
:1038700080FD34C0EBCF8091390681FF35C0809147
:10388000380684FD37C187EE90E036C18091380656
:1038900083FF27C0F4CF8091380683FD22C080913A
:1038A000390681FD21C0EBCF8091380685FD1FC010
:1038B00021C08091380685FD1DC019C08091380651
:1038C00086FD1BC01DC08091380686FD19C015C03D
:1038D00089E390E011C182EE90E00EC180EE90E0AD
:1038E0000BC186EE90E008C184EE90E005C189E24C
:1038F00090E002C185E390E0FFC08AE290E0FCC066
:1039000081E390E0F9C0811531E5930708F069C0C3
:10391000811540E59407F0F09C0174E036952795F9
:103920007A95E1F7922F9370482F437021E030E0B1
:1039300002C0220F331F4A95E2F73C68392B982FBB
:103940009F709695969540E2949FC0011124822B1A
:10395000932BD2C0883E910568F5803E910508F012
:10396000CBC0883A9105B8F4853A910548F0855A5C
:10397000E82FF0E0E55BFE4F808190E09064BCC0F2
:103980008130910509F4B3C008F4B4C084309105C6
:1039900008F4B0C0B1C08F3B910508F0ABC0885AA5
:1039A000E82FF0E0EE0FFF1FE25BFE4F8081918178
:1039B0009464A2C0811520E2920758F4811531E089
:1039C000930708F099C08D3E910508F493C0906567
:1039D00093C0811540E4940708F48CC09F70906AEE
:1039E0008BC0811525E5920708F042C0811534E5AA
:1039F000930728F0982F8827846F906A7DC08115DF
:103A000043E59407B0F09C012370332741E050E078
:103A100002C0440F551F2A95E2F7282F26952695B8
:103A200080E2289F90011124CA01822B932B9A686F
:103A300063C0811522E5920728F4982F8827816FAB
:103A4000906A5AC09C012370332741E050E002C0C5
:103A5000440F551F2A95E2F7282F2695269580E2D8
:103A6000289F90011124CA01822B932B9C6844C08B
:103A7000EC01811539E59307A8F48115984528F0E4
:103A80009C2F8827806F906A37C0C11586E5D807BC
:103A900088F58C2F0E94891B8F7190E0982F8827C2
:103AA00090622AC081152AE5920790F48C2F8F70BE
:103AB0000E94891B94E0D695C7959A95E1F7CF703F
:103AC000D0E0DC2FCC27D0699E01282BC90114C07F
:103AD00090568115904270F48D2F8F710E94891B32
:103AE000282F2F71CE0199279062922B05C081E07B
:103AF00090E002C080E090E0DF91CF91089568EE01
:103B00007EEF80E090E00E94E72960E082E090E0B4
:103B10000E94C92960E083E090E00E94C9291092C8
:103B2000CF051092D0051092D1051092D20560E019
:103B300084E090E00E94C92964E082E290E00E9463
:103B4000C92960E085E090E00E94C92960E086E034
:103B500090E00E94C9296FEF87E090E00E94C92998
:103B600040E050E0BA0188E090E00E94DB2960E08C
:103B70008DE090E00E94C92940E050E0BA0188E160
:103B800090E00E94DB2960E087E190E00E94C92973
:103B900040E050E0BA018CE190E00E94DB2960E057
:103BA00070E080E290E00E94E72940E050E0BA0136
:103BB00088E190E00E94DB291092DC041092DD0481
:103BC0001092DE041092DF0484E080618093DC04B4
:103BD0004091DC045091DD046091DE047091DF04BB
:103BE0008FE090E00E94DB2940E050E0BA0183E1E1
:103BF00090E00E94DB2908958091CE0581111092FA
:103C0000CE05089580959091CD0589238093CD05AB
:103C100008959091CD058091CC05982B90935305F4
:103C20008091CE058823D9F0892B8093530580910C
:103C30000E01882331F08091380687FF02C08EE1A3
:103C400001C086E0E5E5F5E090E0815028F02191A3
:103C50002223D9F39F5FF9CF91110E94FC1D40E20E
:103C600050E06CEA75E083E595E00E94C12B892B5A
:103C700021F180E2E3E5F5E0ACEAB5E001900D92D8
:103C80008A95E1F7E0912F06F09130063097A9F080
:103C900080910E01882359F08091380687FF07C074
:103CA000809153058093540586E0809353050280EC
:103CB000F381E02D83E595E0099508952091AB050A
:103CC000809582238093AB05982F977099F430E00C
:103CD000482F082E000C550B2417350759F09091EA
:103CE000390692FF07C08595859585950E94F11646
:103CF0001092AB050895CF93C0913906C2FB992766
:103D000090F9981791F080FBC2F9C0933906609141
:103D1000380684E090E00E94C9296C2F82E290E08E
:103D20000E94C92982E00E945E1ECF910895809171
:103D3000AA0590917905891719F08F5F8770FBCFDD
:103D400008950F931F93CF93DF9380917805829509
:103D50008F7009F05AC080917505882309F455C009
:103D60008091AA0510917905609173057091740591
:103D7000C0917605D091770591E06F3F09F090E012
:103D8000292F06E0811709F440C0209721F07F3FDA
:103D900021F030E003C031E001C0322F90E030FD6F
:103DA00031C0089FF001099FF00D1124DF01A658D2
:103DB000BA4F11963C911197371324C03C9136139A
:103DC00021C012963C91129731111CC013964D914F
:103DD0005C9114974C1B5D0B483C510598F4809105
:103DE00078058F70806180937805E158FA4F808163
:103DF0008F708061808383E795E00E94EC030E94CE
:103E0000971E03C001968770BDCFDF91CF911F91A0
:103E10000F910895A0E0B0E0E0E1FFE10C940B29E0
:103E200080911B0190911C01892B91F08091D30509
:103E30008F5F8093D30581110BC00E94F11990E030
:103E400090931C0180931B01892B11F40E94681A26
:103E500000EE14E07801B12CC0E087E0C82ECC0E53
:103E60008C2F0E94D81A8C2D0E94D81A8C2F0E9459
:103E70003B1B8F73F7019081891721F08083DD242C
:103E8000D39401C0D12C8C2D0E943B1B8F73F70162
:103E90009781891719F0878381E001C080E0D82AD3
:103EA000BD280E942C1BCF5FFFEFEF1AFF0AC7301F
:103EB000A1F6C091D705CC23C9F10E945D212091C4
:103EC000D5053091D605AC01421B530B9A01909356
:103ED000D6058093D5054F3F510509F020F4452BB9
:103EE00009F4BFC002C02FEF30E01092D705109246
:103EF000D405E091DA04F091DB04AF01425F5F4F3B
:103F000090E030E08081882341F0281718F010827B
:103F10009C2F03C0821B80833C2F3196E417F5074A
:103F200089F73093D7059093D4059BC0BB2009F443
:103F30008FC00E945D219093D6058093D505E091B6
:103F4000DA04F091DB048091D705A1EFB4E09F0182
:103F5000225F3F4F4EE1E80199918E015C91591724
:103F600031F05081511103C040839C9381E0319620
:103F70001196E217F30779F78093D7052091D704BC
:103F80008091DB059091DC05222309F43FC0892B49
:103F900031F425982D9826982E9827982F9880915F
:103FA000DB059091DC059170892B79F48091DA051D
:103FB000882319F026982E9802C0269A2E9A90915E
:103FC000DA0581E089278093DA058091DB059091FD
:103FD000DC058130984780F01092D7046091290663
:103FE00070912A0680912B0690912C060E944E1902
:103FF0001092DC051092DB058091DB059091DC05C9
:1040000001969093DC058093DB0510C0892B71F03D
:104010001092DC051092DB056091290670912A064A
:1040200080912B0690912C060E944E198091D90503
:104030008823D9F025982D988091D8058F5F80939B
:10404000D805853610F0259A2D9A0E945D210DC065
:1040500080E09091D405992309F490CF81116FCF1E
:1040600068CFB1106CCF81E0F4CF8B2DCDB7DEB728
:10407000E9E00C9427298091A9040895089522E08D
:104080002093E9002FEF3091E800215035FD06C064
:1040900035ED3A95F1F700002111F5CF2091E800B8
:1040A00025FF0BC040E050E065E070E00E94530F38
:1040B0008091E8008E778093E8000895CF93DF9396
:1040C00020910E01222339F02091380627FF03C0EA
:1040D00060E225E002C068E021E02093E9002FEFD4
:1040E0003091E800215035FD06C035ED3A95F1F7E5
:1040F00000002111F5CF2091E80025FF1DC0EC0143
:1041000080910E01811105C040E050E068E070E050
:1041100003C070E040E050E0CE010E94530F809158
:10412000E8008E778093E80080E2FE01AAEAB4E01E
:1041300001900D928A95E1F7DF91CF910895A4E067
:10414000B0E0E5EAF0E20C9410298C018091E705DB
:1041500081110AC09E012F5F3F4F4FEF6FEF0E940A
:1041600011258A818093E705F8018481813051F01F
:1041700028F0823061F44091E7050AC08091E7059C
:1041800040E007C06091E70540E080E003C040E008
:1041900080E060E00E948C24F801848190E0019628
:1041A00063E070E00E945E2A84832496E4E00C942D
:1041B0002C29CF93DF93EC01E4E2F6E043816281A6
:1041C0008C810E949E258C818F5F8C83DF91CF91A3
:1041D0000895CF93DF93EC01EC81F0E0EC56FA4FB9
:1041E0004491E4E2F6E0628181810E949E258C8107
:1041F0008F5F8C83DF91CF91089580933A067093FF
:104200003C0660933B068091D904843001F585E03B
:104210008093E9008FEF9091E800815095FD06C0F2
:1042200095ED9A95F1F700008111F5CF8091E800A6
:1042300085FF0DC040E050E063E070E08AE396E067
:104240000E94530F8091E8008E778093E8000895D4
:1042500078941F920F920FB60F9211248F939F9311
:10426000AF93BF938091340690913506A0913606A6
:10427000B09137060196A11DB11D8093340690932D
:104280003506A0933606B0933706BF91AF919F9144
:104290008F910F900FBE0F901F9018959C014FB7F4
:1042A000F8948091340690913506A0913606B0912D
:1042B00037064FBF821B930B08952FB7F894809158
:1042C000340690913506A0913606B09137062FBF7F
:1042D00008951F920F920FB60F9211248F939F9300
:1042E000AF93BF9380913306811113C08091340640
:1042F00090913506A0913606B09137064196A11DE2
:10430000B11D8093340690933506A0933606B09382
:104310003706BF91AF919F918F910F900FBE0F9075
:104320001F90189520910E012223C9F02091380684
:1043300027FF15C0262F2695269526952E31C8F4E1
:10434000FC01E20FF11D677081E090E001C0880F71
:104350006A95EAF780959281892382830895FC010A
:1043600006962281621301C012823196E817F9077E
:10437000C1F7089520913106309132062817390788
:1043800071F09093320680933106E0912F06F09100
:104390003006309721F00084F185E02D09950895CD
:1043A00020912D0630912E062817390771F0909331
:1043B0002E0680932D06E0912F06F091300630975F
:1043C00021F00680F781E02D09950895E0912F06F0
:1043D000F0913006309729F00190F081E02D099599
:1043E000089580E008958F929F92AF92BF92EF92CE
:1043F000FF920F931F93CF93DF93EC017B01042F68
:104400008090290690902A06A0902B06B0902C064A
:104410000E944A170E94391786E008028001112481
:10442000CE15DF0531F0CE010E94EC03C00FD11F85
:10443000F7CF0E944A17C501B4010E94AE16DF9162
:10444000CF911F910F91FF90EF90BF90AF909F90F1
:104450008F900895CF93DF930E94852966E070E0E6
:104460000E945E2AD82F0E9485296EE070E00E948B
:104470005E2AC82F6D2F782F80E00E94CC1B892BDD
:1044800019F08D2F9C2F02C00E942A22DF91CF911C
:1044900008959091240690FF04C09695981748F0CF
:1044A00003C0811106C090E0961718F40E94D3262D
:1044B00008950E94BC260895882311F0FA0101C0D6
:1044C000FB010995089560912406669570E04BE024
:1044D00050E08DE191E00E94B42B892B19F481E02A
:1044E0008093E4050E945D219093DE058093DD05B5
:1044F0000895EF92FF920F931F93CF93DF938091D4
:10450000240680FF08C008EE15E084E2E82E86E06D
:10451000F82EF8010DC0E8EEF5E084E296E0118295
:1045200010821282138234968E179F07C1F7EBCF49
:10453000928120813181892F291708F4822F381721
:1045400008F4832F8383381B3183281B2083981B17
:1045500092833496EE16FF0659F70E941A2864E6F5
:1045600070E084E80E942028C8EED5E064E670E0A0
:1045700088810E94952864E670E089810E949528D0
:1045800064E670E08A810E94952864E670E08B8181
:104590000E9495282496EC16FD0641F70E94EA2811
:1045A000579A8BB18F779BB190682FB7F894E0162C
:1045B000F10699F0F80131918F0148E09BB90000B4
:1045C00000C037FF8BB9330F000000C000C000C02F
:1045D0008BB900C04A9591F7EACF2FBF8FE594E0E1
:1045E0000197F1F700C00000CDB7DEB7E6E00C940C
:1045F0002A29EF92FF920F931F93CF93DF938C01A1
:10460000C8EED5E0E12CF12CF8018481F7E0EF163B
:10461000F1041CF4882339F002C0811104C09E010A
:104620004091270602C09E0140E0609126068091DD
:1046300025060E9411258FEFE81AF80A24969FE0BC
:10464000E916F10409F70E947922F801848190E0CB
:104650000196817099278483CDB7DEB7E6E00C948C
:104660002A29A0E0B0E0E7E3F3E20C940829EC018A
:104670004C81042F10E09801D8010E94412A9B012F
:10468000AC010E940C2A6B017C01E0E2F0E0E01B2F
:10469000F10BA5E5B0E09B01AC010E940C2A4B0197
:1046A0005C019F01DF010E94782A9B01AC010E94FE
:1046B000172A9B01AC012C0D3D1D4E1D5F1DC50130
:1046C000B4010E941F2A822FF22E99E2921728F03D
:1046D00093E0299F900111240DC025E530E0281BAF
:1046E0003109C901880F991F280F391F37FF02C0F0
:1046F0002F5F3F4F35952795122F109598EEC92EB5
:1047000095E0D92E00E085E5E82EEF1801FD02C006
:104710008E2D01C08F2D9601412F609126060E949B
:1047200011250F5F84E0C80ED11C0F3079F70E946D
:1047300079228C81811102C091E003C0803219F48A
:104740009FEF90932A0190912A01890F8C83CDB716
:10475000DEB7ECE00C9424290F931F93CF93DF93E3
:10476000C8EED5E0FE0111821082128213823496C7
:1047700086E0E432F807B9F700E010E08091E60542
:10478000082E000C990B0817190794F08091290145
:10479000082E000C990B8017910754F09E01409150
:1047A000270660912606809125060E94112504C0E7
:1047B000198218821A821B820F5F1F4F24960F30B6
:1047C0001105E1F60E947922809128019091E60579
:1047D000980F9093E60520912901280F2093290135
:1047E000121614F49E301CF0819580932801DF91FD
:1047F000CF911F910F910895A0E0B0E0E2E0F4E2C4
:104800000C940B29FC01828180FF03C0DD24DA9423
:1048100002C0DD24D39408EE15E0C0E0D0E02FE024
:10482000B22EF801118210821282138294E0E92ED6
:10483000F12CC12C8091E5058C0D80312CF06B2D75
:104840000E94502A892F02C087FD815F082E000C2C
:10485000990BC817D90791F4809127068E9DA00166
:104860008F9D500D11245595479555954795980165
:1048700060912606809125060E941125CD0CF1E05D
:10488000EF1AF108B9F621960C5F1F4FCF30D10512
:1048900041F60E9479228091E50591E0D91206C087
:1048A000811102C08EE007C0815005C090E00196E2
:1048B000BE010E945E2A8093E505CDB7DEB7E9E030
:1048C0000C942729EF92FF921F93CF93DF93EC0173
:1048D00088EEE82E85E0F82E10E08C81970140915B
:1048E000270660912606810F0E9411251F5E84E035
:1048F000E80EF11C1F3F89F70E9479229A818C8172
:1049000090FF02C08F5F01C081508C83DF91CF91F7
:104910001F91FF90EF9008959091240690FF0DC095
:10492000E8EEF5E08183608342831382349696E05B
:10493000E432F907B9F70E9479220895809124069C
:10494000282F269530E02115310519F481708260F9
:1049500005C02532310524F08170886480932406D7
:104960000895CF92DF92EF92FF926B017C010E943B
:104970009E24B701A60188E090E00E94DB29FF9009
:10498000EF90DF90CF90089580912806882319F04A
:1049900081508093280660912406709125068091AD
:1049A0002606909127060E94B1240895809128063A
:1049B000833018F48F5F80932806609124067091ED
:1049C000250680912606909127060E94B12408951D
:1049D000E4E2F6E080818E7F808360817181828154
:1049E00093810E94B1241092E4052FEF80E792E0BA
:1049F000215080409040E1F700C000000E947922E1
:104A00000895E4E2F6E083E0808311828FEF8283F1
:104A10008383148260817181828193810E94B12499
:104A20000895A0E0B0E0E7E1F5E20C940A29E82E51
:104A3000F62EE901E42FF0E0611106C0EC56F94FC3
:104A4000E4914E2F2E2F71C0062F10E0EC56F94F37
:104A50004491F42FC42ED12C26E0829FC001112452
:104A60002FEF30E0B9010E94EE285BEA5603C00147
:104A7000579F900D11248E0D911D8E0D911D582F55
:104A8000550F580FD901A01BB10BAC9DC001AD9DB6
:104A9000900DBC9D900D1124E92FF59ED00111249D
:104AA000AB2FBB277901EA1AFB0AEC9CD001ED9CE5
:104AB000B00DFC9CB00D11245901A51AB108A09E9F
:104AC0007001A19EF00CB09EF00C1124EF2CFF247D
:104AD0002E193F092C9D80012D9D100D3C9D100D20
:104AE0001124212F6230710591F048F46115710590
:104AF000E1F061307105B9F4242F4B2F16C06430FA
:104B0000710569F040F06630710579F00CC0242F12
:104B1000492FE12F0AC0492FEF2F2B2F06C0292F35
:104B2000E42F412F02C0292FEB2F49832883EA83EA
:104B30001B82CDB7DEB7EAE00C942629A4E0B0E0F2
:104B4000E4EAF5E20C9412299091240690FF0AC041
:104B50009E012F5F3F4F0E9411254B8169818A8101
:104B60000E948C242496E2E00C942E29A4E0B0E06C
:104B7000ECEBF5E20C940529F82E762EE42E622E4D
:104B80009091240690FF67C0E92FE695AE2FB0E024
:104B9000A458BE4F8C918093E3059E7F923061F4C0
:104BA0009E012F5F3F4F8F2D0E9411254B81698100
:104BB0008A810E948C243DC0823019F4E09027063F
:104BC00038C0863019F4F090250633C08930D9F307
:104BD000893179F5E9518E2F8170582EE695F0E0F4
:104BE000EC56F84FE4910E2F10E088EEC82E85E0C9
:104BF000D82EA12CB12C9FE0892E912CC501B40197
:104C00000E94EE288F2D511002C0860F01C0861B16
:104C100096014E2D672D0E941125A00EB11E84E035
:104C2000C80ED11C84E2C81686E0D80639F70E9467
:104C30007922F092250670922606E09227066620D9
:104C400051F060912406709125068091260690917E
:104C500027060E94B1242496EFE00C942129E4E277
:104C6000F6E043812CE0421B08F440E021E0628141
:104C700081810E94B6250895E4E2F6E043812CE0AC
:104C8000420F08F44FEF21E0628181810E94B62536
:104C90000895E4E2F6E062812FEF621B08F460E021
:104CA00021E0438181810E94B6250895E4E2F6E087
:104CB00062812FEF620F08F46FEF21E04381818161
:104CC0000E94B6250895E4E2F6E0818121E0438167
:104CD00062818C500E94B6250895E4E2F6E081815D
:104CE00021E043816281845F0E94B62508959091FE
:104CF000240690FF36C09170811102C0926006C0F8
:104D0000853210F0986402C0880F982B9093240687
:104D1000662351F060912406709125068091260645
:104D2000909127060E94B12460912406669570E058
:104D30004BE050E08DE191E00E94B42B892B19F0FB
:104D40001092E40502C00E94632281E08093E00596
:104D500020E04091270660912606809125060E945A
:104D6000B6250895E4E2F6E080818160808360E00A
:104D700086950E947726089561E00E94772608951F
:104D8000E4E2F6E080818160808386950E94BC2603
:104D90000895809124068695815009F484E261E0AB
:104DA0000E94772608958091240686958F5F85322C
:104DB00008F081E061E00E94772608958D3E39F485
:104DC0009091460697FF35C01092460659C08E3E18
:104DD00029F4909146061916BCF32BC09091450614
:104DE0008F3E29F497FF25C01092450649C0803FA9
:104DF00019F41916CCF31DC090914706893F29F488
:104E00001916BCF4109247063BC08A3F19F497FF6D
:104E100010C0F8CF8B3F39F49091480697FF09C036
:104E2000109248062DC08C3F21F490914806191627
:104E3000BCF39FE0980F983080F421E030E0A901A6
:104E400002C0440F551F9A95E2F7CA0180959091D0
:104E5000440689238093440613C08D3F21F480913A
:104E60003F068E7F0BC08E3F21F480913F068D7FE1
:104E700005C08F3F29F480913F068B7F80933F06CA
:104E800080914506811106C080914606811102C0BD
:104E900010923E0680914706811106C08091480617
:104EA000811102C010923D06089580913F0680FD59
:104EB00018C081FD14C082FD16C080913D06882374
:104EC00081F08C3380F427E0829FC00111246CE3D1
:104ED00070E00E945E2A862F672B19F005C083E0E0
:104EE000089581E0089587E0089580913F0680FD50
:104EF00017C081FD17C082FD19C080913E0688232E
:104F000099F08C3398F428E3829FC00111246CE35C
:104F100070E00E945E2A862F672B49F481E0089595
:104F20008EE008958CE1089588E0089588E308955F
:104F30008D3E21F40E947527819504C08E3E29F490
:104F40000E9475278093460608958F3E21F40E94A3
:104F50007527819504C0803F29F40E9475278093AE
:104F600045060895893F19F40E94552705C08A3FD8
:104F700031F40E94552781958093470608958B3F11
:104F800021F40E945527819504C08C3F29F40E948A
:104F900055278093480608959FE0980F983078F43D
:104FA00021E030E0A90102C0440F551F9A95E2F7B5
:104FB000CA0190914406892B8093440608958D3F41
:104FC00021F480913F0681600BC08E3F21F48091D7
:104FD0003F06826005C08F3F29F480913F068460C0
:104FE00080933F0608950E945D212091450621117E
:104FF00004C020914606222321F09093430680931B
:10500000420620914706211104C020914806222320
:1050100021F09093410680934006E0912F06F09195
:105020003006309731F00480F581E02D84E496E07D
:10503000099508951092B9008CE08093B800089506
:10504000A0E0B0E0E6E2F8E20C940929B82EEB010A
:105050000E945D216C01C431D10558F0CF3F8FEF24
:10506000D80759F0CE0164E170E00E94EE287B0180
:1050700007C0EE24E394F12C03C025E0E22EF12CCE
:1050800084E8A82E94EA992E1092BC009092BC005D
:105090000E945D218C018091BC0087FD08C00E94A8
:1050A0005D21801B910B8E159F05A8F32AC080916E
:1050B000B900887F883041F08091B900887F8031C5
:1050C00019F00FEF1FEF1FC0B092BB00A092BC0001
:1050D0000E945D218C018091BC0087FD08C00E9468
:1050E0005D21801B910B8E159F05A8F30AC080914E
:1050F000B900887F883111F0803419F700E010E0A2
:105100000EC00EEF1FEFCF3F8FEFD80709F4BCCFD3
:10511000C6010E944E218C179D0708F4B5CFC80127
:10512000CDB7DEB7EBE00C9425290F931F93CF93F7
:10513000DF93EB018093BB0084E88093BC000E9466
:105140005D218C018091BC0087FD0EC0CF3F8FEFA9
:10515000D807C1F30E945D21801B910B8C179D071E
:1051600088F38EEF9FEF0CC02091B900287F81E07B
:1051700090E0283211F480E090E0919581959109BA
:10518000DF91CF911F910F9108950F931F93CF93AC
:10519000DF93EC0184E88093BC000E945D218C01C8
:1051A0008091BC0087FD0EC0CF3F8FEFD807C1F3C1
:1051B0000E945D21801B910B8C179D0788F38EEF59
:1051C0009FEF03C08091BB0090E0DF91CF911F91D2
:1051D0000F91089584E98093BC000895AA1BBB1B1E
:1051E00051E107C0AA1FBB1FA617B70710F0A61BE7
:1051F000B70B881F991F5A95A9F780959095BC0108
:10520000CD0108952F923F924F925F926F927F92BD
:105210008F929F92AF92BF92CF92DF92EF92FF92C6
:105220000F931F93CF93DF93CDB7DEB7CA1BDB0B72
:105230000FB6F894DEBF0FBECDBF09942A88398817
:1052400048885F846E847D848C849B84AA84B9841E
:10525000C884DF80EE80FD800C811B81AA81B9812A
:10526000CE0FD11D0FB6F894DEBF0FBECDBFED013E
:1052700008958F929F92AF92BF92CF92DF92EF925A
:10528000FF92CF93DF93EC01688179818A819B81C2
:10529000611571058105910521F464E279ED8BE5D5
:1052A00097E02DE133EF41E050E00E94ED29490104
:1052B0005A019B01AC01A7EAB1E40E940C2A6B01E0
:1052C0007C01ACEEB4EFA50194010E941A2ADC0126
:1052D000CB018C0D9D1DAE1DBF1DB7FF03C00197F7
:1052E000A109B04888839983AA83BB839F77DF9104
:1052F000CF91FF90EF90DF90CF90BF90AF909F90B5
:105300008F9008950E943929089580E091E00E94CD
:1053100039290895A0E0B0E0809300019093010145
:10532000A0930201B09303010895DC01CB01FC01BD
:10533000F999FECF06C0F2BDE1BDF89A319600B4EE
:105340000D9241505040B8F70895F999FECF92BDA3
:1053500081BDF89A992780B50895A6E1B0E044E0B0
:1053600050E00C949729A8E1B0E042E050E00C94A2
:105370009729DC01A40FB51F4150504048F0CB01E4
:10538000840F951F2E910E94CA2941505040D0F79A
:105390000895262FF999FECF92BD81BDF89A019705
:1053A00000B4021639F01FBA20BD0FB6F894FA9A6D
:1053B000F99A0FBE08950396272F0E94CA290E94CA
:1053C000C929252F0E94CA29242F0C94CA29019685
:1053D000272F0E94CA290C94C929052E97FB1EF479
:1053E00000940E94042A57FD07D00E941F2A07FC40
:1053F00003D04EF40C94042A509540953095219595
:105400003F4F4F4F5F4F08959095809570956195F0
:105410007F4F8F4F9F4F08950E94412AA59F900D67
:10542000B49F900DA49F800D911D11240895B7FF86
:105430000C940C2A0E940C2A821B930B0895A1E263
:105440001A2EAA1BBB1BFD010DC0AA1FBB1FEE1FFE
:10545000FF1FA217B307E407F50720F0A21BB30B49
:10546000E40BF50B661F771F881F991F1A9469F7C5
:1054700060957095809590959B01AC01BD01CF0121
:105480000895A29FB001B39FC001A39F700D811D1D
:105490001124911DB29F700D811D1124911D08953D
:1054A00087FB082E062687FD819567FD61950E9482
:1054B000872A0EF4919507FC8195089597FB072E96
:1054C00016F4009407D077FD09D00E94EE2807FC5F
:1054D00005D03EF4909581959F4F08957095619504
:1054E0007F4F0895EE0FFF1F0590F491E02D099472
:1054F0000E94412A332312F48A1B9B0B0C94822AAC
:105500000E94412AB7FF0895821B930B0895991BAF
:1055100079E004C0991F961708F0961B881F7A95AA
:10552000C9F7809508950F931F93CF93DF9382302F
:10553000910510F482E090E0E0914B06F0914C066A
:1055400020E030E0A0E0B0E0309719F140815181D7
:105550000281138148175907C8F08417950769F429
:10556000109731F012960C93129713961C9327C044
:1055700000934B0610934C0622C02115310519F0FB
:105580004217530718F49A01BD01EF01DF01F8013A
:10559000DBCF21153105F9F0281B390B24303105FB
:1055A00080F48A819B816115710521F0FB01938351
:1055B000828304C090934C0680934B06FE01329682
:1055C00044C0FE01E20FF31F8193919322503109F1
:1055D000398328833AC02091490630914A06232B0B
:1055E00041F4209106013091070130934A0620933F
:1055F000490620910401309105012115310541F43E
:105600002DB73EB74091080150910901241B350B7D
:10561000E0914906F0914A06E217F307A0F42E1B29
:105620003F0B2817390778F0AC014E5F5F4F241706
:10563000350748F04E0F5F1F50934A0640934906C6
:105640008193919302C0E0E0F0E0CF01DF91CF9130
:105650001F910F910895CF93DF93009709F481C0B4
:10566000FC01329713821282A0914B06B0914C0636
:10567000109781F420813181820F931F2091490678
:1056800030914A062817390751F5F0934A06E093FE
:10569000490667C0ED0120E030E0CE17DF0740F497
:1056A0004A815B819E0141155105F1F0EA01F5CF78
:1056B000D383C28340815181840F951FC817D907B6
:1056C00059F488819981840F951F02969183808374
:1056D0008A819B81938382832115310529F4F0937C
:1056E0004C06E0934B063DC0E901FB83EA834991F8
:1056F0005991C40FD51FEC17FD0761F4808191818A
:10570000840F951F0296E901998388838281938192
:105710009B838A83E0E0F0E012968D919C91139731
:10572000009719F0FD01DC01F7CF8D919C91119745
:105730009D012E5F3F4F820F931F209149063091AC
:105740004A062817390769F4309729F410924C0655
:1057500010924B0602C013821282B0934A06A093A5
:105760004906DF91CF910895FC014150504030F03F
:1057700001900616D1F73197CF0108958827992710
:105780000895FB01DC0104C08D910190801921F482
:1057900041505040C8F7881B990B0895F894FFCFEB
:1057A0000100000000004D0620009E04A401013B02
:1057B000205E203F20910A8C0A8B0A200001191AD2
:1057C0001B1C1D1E1F2021220102014022476DCA01
:1057D00001A8016101F4001C02350255026E024F5E
:1057E00079716A572F787A33375900818283E200C2
:1057F000E900EA00B500B600B700CD008301CC0097
:105800008A01920194012102230224022502260228
:1058100027022A02B300B4006F00700000010202E8
:1058200002020606060909090909090F0F0F0F0FE1
:105830000F151515181919191919191919191923E5
:02584000240042
:00000001FF
