:100000000C94CD030C94EA030C94EA030C94EA03D9
:100010000C94EA030C94EA030C94EA030C94EA03AC
:100020000C94EA030C94EA030C94A00D0C94E20CDB
:100030000C9413200C94EA030C94EA030C94EA0346
:100040000C94EA030C94EA030C94EA030C94EA037C
:100050000C94EA030C94D21F0C94EA030C94EA0368
:100060000C94EA030C94EA030C94EA030C94EA035C
:100070000C94EA030C94EA030C94EA030C94EA034C
:100080000C94EA030C94EA030C94EA030C94EA033C
:100090000C94EA030C94EA030C94EA030C94EA032C
:1000A0000C94EA030C94EA030C94EA03280728074B
:1000B0005B075B07C607E407EE08EE08EF07630877
:1000C00074087408F50A1C0BCA0C1C0BCA0C680BCC
:1000D0008B0BCA0C800C900C70147314761479146A
:1000E0007E14831481141E162116241627162A1630
:1000F0002D16301605010980A101850319012AB7C3
:1001000000150126B700950175108100C0050C0986
:1001100001A101850419012AA002150126A002955A
:100120000175108100C005010906A10185060507BA
:1001300019E029E7150025019508750181020507D9
:10014000190029EF1500250195F0750181020508B8
:100150001901290595057501910295017503910114
:10016000C005010902A1010901A100050919012920
:10017000081500250195087501810205010930095E
:10018000311581257F95027508810609381581256D
:100190007F950175088106050C0A38021581257FB7
:1001A000950175088106C0C00660FF0961A10109BB
:1001B00062150026FF00952075088102096315006D
:1001C00026FF00952075089102C005010906A101CE
:1001D000050719E029E71500250195087501810239
:1001E0009501750881010507190029FF150026FFF3
:1001F0000095067508810005081901290595057502
:10020000019102950175039101C009027400040176
:1002100000A0FA09040000010301010009211101F5
:1002200000012240000705810308000109040100C4
:10023000020300000009211101000122220007052C
:1002400083032000010705040320000109040200C4
:1002500001030102000921110100012247000705E5
:1002600082030800010904030001030000000921C2
:1002700011010001226D0007058503200001120114
:1002800000020000000897327549010001020001D8
:1002900022034500720067006F0044006F00780081
:1002A000200045005A0020005300680069006E00DD
:1002B0006500000028035A0053004100200054004C
:1002C0006500630068006E006F006C006F006700DF
:1002D000790020004C0061006200730000000403FC
:1002E000090400047F3F1F643214643214783C1EFA
:1002F0001E140A0524022B0029000151E000000011
:100300002F00330004003461E2004D002F0236005C
:1003100012001400E300E3003002370008000D0073
:1003200050002A002602130018000E004F004A0059
:100330002E001C000C001B000000C35C21020253B5
:100340000000000F0000CB5C1F02035300000007F9
:100350000000CA5C25020900070005000000C35C1C
:1003600027020A000B00100051004B672E02060006
:1003700017001A0052002C0030001500110019005F
:10038000060828001E020F0016001D7119084E6F86
:10039000200238002D0001513100000022022B0202
:1003A00029020100E00200002400330204023402AA
:1003B000E20201002200360212021402E302E3020A
:1003C0002000370208020D0201002A021E0013025B
:1003D00018020E0201004A0226001C020C021B0237
:1003E0000000C45C35020100000001000000CD5C8B
:1003F00023020100000001000000CC5C270009027C
:1004000007020502000001001F000A020B02100291
:1004100001004B022100060217021A0201002C0201
:1004200023001502110219020100280225000F0203
:1004300016021D0201004E02350038022D02010095
:1004400031020000010001002B000100010000004A
:100450003A00A800AA000100005C045D3B00AC006B
:10046000EF0001000100F2003C00ED00EE00010091
:100470005000F1003D00AB00F00001004F00010012
:100480003E000100A9000100000001003F00010042
:100490000000095D0000A600400001000000095DA9
:1004A0000000A50041002A002A002A000000065D85
:1004B0004200240021001E00270001004300250007
:1004C00022001F003600FA0044002600230020000E
:1004D0003700F9004500250257002E000100055D98
:1004E00001003800280001000100000001000100A7
:1004F00001000100010000000100010001000100F5
:100500000100010001003A003D004000010001002F
:1005100001003B003E0041000100010001003C00E1
:100520003F00420001000100010001000100010044
:1005300000000100010001000000010000000100B6
:1005400001000100000001000000010001000100A5
:100550000100010000000100010001000100010094
:100560000100010001000100010001000100010083
:100570000100010001000100010001000100010073
:100580000100010001000100010001000100010063
:10059000010000002223252628292A2C2D2F303265
:1005A000333536383A3B3D3E4042434547494A4C55
:1005B0004E5051535557595A5C5E60626466686983
:1005C0006B6D6F71737577797B7D7F81838587898B
:1005D0008A8C8E90929496989A9C9E9FA1A3A5A790
:1005E000A8AAACAEAFB1B3B4B6B8B9BBBCBEBFC1BC
:1005F000C2C3C5C6C7C9CACBCCCDCED0D1D2D2D347
:10060000D4D5D6D7D7D8D9D9DADADBDBDBDCDCDC5A
:10061000DCDCDDDDDDDDDCDCDCDCDCDBDBDBDADA1D
:10062000D9D9D8D7D7D6D5D4D3D2D2D1D0CECDCC94
:10063000CBCAC9C7C6C5C3C2C1BFBEBCBBB9B8B6A9
:10064000B4B3B1AFAEACAAA8A7A5A3A19F9E9C9A34
:1006500098969492908E8C8A89878583817F7D7B02
:1006600079777573716F6D6B6968666462605E5CE3
:100670005A5957555351504E4C4A494745434240A9
:100680003E3D3B3A3836353332302F2D2C2A29283F
:1006900026252322000101010101010101010202BD
:1006A0000202020202020203030303030303030420
:1006B00004040404040405050505050606060606EB
:1006C000070707070708080808090909090A0A0AA5
:1006D0000B0B0B0C0C0C0D0D0D0E0E0E0F0F0F1047
:1006E00010111111121213131414151516161717D1
:1006F000181819191A1A1B1B1C1D1D1E1E1F20203D
:10070000212222232424252626272829292A2B2C86
:100710002D2D2E2F30313232333435363738393AA9
:100720003B3C3D3E3F404142434445464748494AA1
:100730004C4D4E4F50515354555658595A5B5D5E6F
:100740005F616264656668696B6C6D6F707273750A
:1007500077787A7B7D7E8082838587888A8C8E8F6E
:1007600091939596989A9C9EA0A2A3A5A7A9ABAD9C
:10077000AFB1B3B5B7BABCBEC0C2C4C6C9CBCDCF8A
:10078000D1D4D6D8DBDDDFE2E4E7E9EBEEF0F3F538
:10079000F8FAFDFFFFAA7F55400011241FBECFEFDE
:1007A000DAE0DEBFCDBF11E0A0E0B1E0E0EFF4E5BC
:1007B00002C005900D92A23AB107D9F726E0A2EA4D
:1007C000B1E001C01D92A133B207E1F70E94000F12
:1007D0000C94762A0C940000A5E2B0E0E2EFF3E07E
:1007E0000C94B127FC018081918123813481232BDA
:1007F00031F09F3F31F491E08F3F19F403C091E055
:1008000001C090E090FD28C57F0185E0DE01919652
:1008100001900D928A95E1F7D70112962C9189A14A
:100820009AA1222349F00E94501B182F682F89A1FA
:100830009AA10E94671D03C00E94331D182F69A151
:100840007AA1812F0E94D4168C018091A404811179
:1008500049C0F70182818111A8C00530FDE51F075D
:1008600031F1A0F404308DE5180709F09EC00E9414
:1008700087160E94E41D80E00E949C1D84EA91E09E
:100880009093D6048093D50481E01FC007309DE586
:100890001907F1F00830ADE51A0709F086C060913C
:1008A0000A0170910B014FEF8EE994E018C00E948D
:1008B00087160E94E41D80E00E949C1D8EE994E052
:1008C0009093D6048093D50482E08093A404B4C4AA
:1008D00060910C0170910D0141E084EA91E00E9469
:1008E0009D20AAC4980124503D452330310508F0CD
:1008F00045C091E00630BDE51B0709F490E0F70123
:100900002281291709F498C4813069F0823099F561
:100910000091D5041091D60410929E058091100686
:100920000E94591420C00091D5041091D604109251
:100930009E05809110060E945914F1E0043A1F07A9
:1009400039F0F80136978281882311F08F01F5CFB5
:1009500010930D0100930C010EC0F80136968281B0
:10096000882329F08F0124E00E391207B1F7109384
:100970000B0100930A011092A4045EC4813059F067
:10098000823099F460910C0170910D0197014FEF45
:100990008EE994E008C060910A0170910B01970103
:1009A00041E084EA91E00E94ED099091D704D701DB
:1009B00012968C91992309F44DC081113DC4E091A8
:1009C000A504E330A0F481E08E0F8093A504F0E04D
:1009D000EE0FFF1FE15FFA4FD7018D919C9191833C
:1009E000808382E08983CE0101960E94D40EBFEFFE
:1009F000E3EDF0E3B150E040F040E1F700C000006B
:100A00008091A504833009F017C41092A504E5E194
:100A1000F5E0AFE0B5E08BE195E0318111962C91E6
:100A2000119732132EC030812C9132132AC0329686
:100A300012968E179F0789F784E0898381E080935F
:100A4000D8048EEF8A831092D704CE0101960E94BB
:100A5000D40EF2C39091D8049923C1F0882311F0E9
:100A600086E001C087E08983D7018C918A83119643
:100A70008C918B838EEF8C83CE0101960E94D40ED5
:100A800005C083E089831092D804DBCFF70182810F
:100A90000F3AFDE51F07D1F5882309F44DC0909169
:100AA000DC0481E0890F8770987F853020F4892BE2
:100AB0008093DC0402C09093DC048091DC04877096
:100AC000BFEF8B9FC00111249595879595958795CC
:100AD0009927909389008093880090938B0080934E
:100AE0008A0090938D0080938C004091DC0450919B
:100AF000DD046091DE047091DF048FE090E00E94DD
:100B00008328809110060E94591416C0003BEDE521
:100B10001E0741F0013BFDE51F0771F4882309F42E
:100B20008BC326C0882309F487C39091A60481E073
:100B300089278093A60480C3D70112968C918111D6
:100B4000CEC08091950582720D3C2CE5120709F408
:100B5000ACC0B8F0023DBCE51B0709F4B3C008F017
:100B600062C00F3CFCE51F0709F4A6C008F04EC0A8
:100B700081E004C0816080930B0686950E946D25FC
:100B80005BC3073CACE51A0709F47BC0D8F4043C0E
:100B9000ECE51E0709F46BC030F4033C2CE51207AA
:100BA00009F45EC008C1053C9CE5190709F464C05E
:100BB000063CACE51A0709F0FEC044E155E26EE1DF
:100BC00075E277C00A3CBCE51B0709F464C078F401
:100BD000083CFCE51F0709F459C0093C2CE5120745
:100BE00009F0E9C047E055E26AEF74E262C00B3CED
:100BF0009CE5190709F454C00C3CACE51A0709F050
:100C0000DAC045E753E267E873E253C0003D8CE584
:100C1000180709F454C0013D9CE5190709F0CBC041
:100C20006EE089E057C0053DACE51A0709F450C0F5
:100C300060F4033DECE51E0709F447C0043DFCE504
:100C40001F0709F0B8C088E199CF063D2CE51207CF
:100C500009F443C00F358DE5180709F4EDC2ABC0A8
:100C600080910B0680FF86CF0E949923E5C241E761
:100C700055E26BE775E21DC04BE755E261E775E2AF
:100C800018C04EE155E264E175E213C04AEF54E248
:100C900067E075E20EC040EE54E26DEE74E209C00A
:100CA0004DEE54E260EE74E204C047E853E265E7BB
:100CB00073E20E94FB20C0C265E082E00BC068E0E6
:100CC00086E008C064E18FE005C067E185E102C00D
:100CD00062E289E10E94E820AFC283E24FCF0C3587
:100CE0009DE5190709F462C060F40115BCE51B0716
:100CF000A9F00F3DECE51E0709F05DC00E948718C2
:100D00004AC00E35FDE51F0709F448C008F450C07D
:100D1000093A8DE5180709F43EC04DC00E94E41D54
:100D20009FEFA4E3BCE09150A040B040E1F700C0C9
:100D30000000F89481E08093E00080E28093D80086
:100D40001092C900EFE1FEE43197F1F700C0000016
:100D50001DBA109268001CBC10BE1FBA10927A0017
:100D600010926E0010926F0010927100109272003B
:100D70001092C9001092BC0014B817B81AB81DB868
:100D800010BA1092BC0015B818B81BB81EB811BA2A
:100D90000C94003F51C20E9443144EC280911D0624
:100DA00082FB882780F991E0892703C081E001C098
:100DB00080E00E947C19F7018281008111818823E3
:100DC00049F0C8010E94501BD82E682FC8010E940C
:100DD000671D04C0C8010E94331DD82EB8018D2D97
:100DE0000E94D4160E94ED16B82E192F982EF701E6
:100DF0000281A580A2949FE0A9228091730587704B
:100E0000B9F00023A9F0812F807F803421F080E2A7
:100E10008B0D883068F080911D0682FF09C082E04A
:100E20000E945F19809173058770DD24D39481112E
:100E3000D12CC12EC2948FE0C8228C2D90E08C3032
:100E4000910508F0CBC1FC01EA5AFF4F0C941A2916
:100E5000812F807F1F70882311F01295107F00234F
:100E6000B9F0112309F4A8C180E28B0D883010F08D
:100E7000911006C080919505182B1093950505C01B
:100E800080919405182B109394050E940A1994C11F
:100E90008B2D0E940B1E112309F4A0C180E28B0D43
:100EA000883080F1992071F1109580919405182374
:100EB000109394052AC0812F807F1F70803211F01B
:100EC0001295107F8B2D992021F0F1E09F16D9F11A
:100ED00047C080911D0682FD1BC0002369F01123CD
:100EE00039F080919505182B109395050E940A19E9
:100EF00080E00E94401E72C180E00E940B1E112300
:100F000009F46CC1812F0E9403190E940A1966C15D
:100F1000002381F080919605AA2051F021E0A212D1
:100F200007C0182B181709F459C11093960556C11C
:100F3000812B10C0AA2021F081E0A81609F44EC12F
:100F40000E94FD181FC0002341F091E09A1508F49B
:100F500045C1812F0E94011E41C1A1103FC112C095
:100F6000002319F0AA20A9F327C1AA2059F0893338
:100F700009F031C1AFEFB7EEE3E0A150B040E0407F
:100F8000E1F727C1812F0E94FA1D28C1812F869584
:100F90008695837019F0813061F020C1002321F023
:100FA0008B2D912F937002C080E090E00E947A20F8
:100FB0001BC1002321F08B2D912F937002C080E084
:100FC00090E00E94642010C18B2D002319F00E9434
:100FD000402602C00E9486250E949B2605C1812FC3
:100FE0008370A9F50111FEC04B2D429546954770BF
:100FF000440F440F8B2D8F7090E09C01042E01C094
:10100000220F0A94EAF7B4FE08C08FE090E001C016
:10101000880F4A95EAF7809501C080E016951695ED
:101020001370123069F088F490919705113019F01F
:10103000822B892302C0922B892B0E94DF1DD2C0F4
:10104000822B909197058927F8CF822BF6CF00232A
:1010500019F0812F817001C08695882309F4C2C0E0
:101060004B2D429546954770440F440F8B2D8F7042
:1010700090E09C01042E01C0220F0A94EAF7B4FE0E
:1010800008C08FE090E001C0880F4A95EAF780958C
:1010900001C080E0169516951370123059F078F45F
:1010A00090911006113019F0822B892309C0922BE0
:1010B000892B06C0822B90911006892701C0822BB4
:1010C0000E949C1D8FC01F70002339F0812F0E9449
:1010D000D31D8B2D0E94011E85C08B2D0E94FA1DF1
:1010E000812F0E94C61D7EC08B2DF2EF9F1669F1E5
:1010F000F91538F020EF921659F091EF991601F199
:1011000057C0A3EF9A1641F1B4EF9B16A9F050C057
:10111000002369F0A11062C01F7181E090E001C05E
:10112000880F1A95EAF79091100689271FC0E1E011
:10113000EA1508F453C0F0CF80911D0682FD19C056
:10114000002329F0812F8F7126C00023D9F3812F2E
:101150008F710E94C61D42C0002339F01F7181E0CB
:1011600001C0880F1A95EAF701C080E00E949C1D1B
:1011700035C0002399F01F71812F0E94D31D8091EB
:101180001D0682FF07C0F8E01F9FC0011124836085
:1011900080937305812F0E94D31D20C081E00E949F
:1011A0005F1921E02A15D0F482E00E945F1916C071
:1011B000002321F0AA2031F28B2D9BCEAA2039F2F8
:1011C000893349F48FEF97EEA3E081509040A0401F
:1011D000E1F700C000008B2D0E940B1E88EF8C0DE4
:1011E000843010F40E949020DD20A9F080917305D6
:1011F00080FD11C0F70112828595859585950E9425
:10120000D31DC7010E94EC038091730585958595D8
:1012100085950E94C61D85E0F701DE0111960190BB
:101220000D928A95E1F709811A81C8010E94331D48
:10123000B8010E94D41610C080917305877061F0C8
:10124000D70112968C91882339F080911D0682FF78
:1012500003C082E00E945F19A596EBE00C94CD27B5
:101260008091CD0487FF11C08091E80082FD05C008
:101270008091D9048111F8CF11C08091E8008B775B
:101280000BC08091D904882349F08091E80080FF49
:10129000F8CF8091E8008E778093E8000895982F2A
:1012A000973068F59093E900981739F07091EC0049
:1012B0002091ED005091F00003C0242F762F50E0D4
:1012C00021FD02C09F5FECCF3091EB003E7F309359
:1012D000EB003091ED003D7F3093ED003091EB005D
:1012E00031603093EB007093EC002093ED0050934D
:1012F000F0002091EE0027FDE5CF80E008958F708B
:101300008093E90081E008952091D3043091D404C2
:101310002617370748F06115710539F42091E80068
:101320002E772093E80001C0B901FC0120E061158F
:10133000710579F18091D9048823F1F18530F1F1BB
:101340008091E80083FD3CC08091E80082FD2EC0C2
:101350008091E80080FFEBCF2091F3008091F200B4
:1013600090E0922B6115710551F08830910538F4A9
:1013700021912093F100615071090196F3CF21E092
:10138000089709F020E08091E8008E778093E800CC
:10139000CECF2111CFCF0AC08091D904882361F02C
:1013A000853061F08091E80083FD0AC08091E800FB
:1013B00082FFF2CF80E0089582E0089583E00895EF
:1013C00081E008950895BC0184E00E94A71F08955C
:1013D000BC0183E00E94A71F0895F9012281A0911A
:1013E000D504B091D604211103C0A817B907C9F0DC
:1013F00086E04802A0011124CD01841B950B6817DB
:10140000790779F086E001900D928A95E1F7809155
:10141000D5049091D604480F591F5093D604409399
:10142000D5040895AAE2B0E0E8E1FAE00C94B92707
:10143000EDECF4E085ED94E02091F10021938E171E
:101440009F07D1F78091CE04833009F463C030F454
:10145000813071F0823009F49DC0B4C08A3009F443
:1014600089C08B3009F46EC0893009F0ABC020C050
:101470008091CD04813A09F0A5C08091E800877F72
:101480008093E8008091D1049091D204892B21F4BB
:1014900060E28AEA94E003C060E080E090E070E0FF
:1014A0000E9484098091E8008B778093E8008AC0CD
:1014B0008091CD04813209F085C08091D104909152
:1014C000D204009719F0039709F07CC08091E800DE
:1014D000877F8093E8008091E80082FD05C08091BD
:1014E000D9048111F8CF6EC02091F3008091F200F1
:1014F00090E0922B029731F48091F100813011F04D
:10150000863021F48091F1008093A9048091E80055
:101510008B7754C08091CD04813A09F053C08091FB
:10152000D1049091D204892B09F04CC08091E8003D
:10153000877F8093E8008091E80080FFFCCF809156
:101540000E0137C08091CD048132E1F58091D10444
:101550009091D204892BB1F58091E800877F809328
:10156000E8000E9430098091CF0480930E010E9410
:10157000E41D28C08091CD04813221F58091E800DE
:10158000877F8093E8000E9430098091D004809387
:10159000A80418C08091CD04813AA1F48091E8009C
:1015A000877F8093E8008091E80080FFFCCF8091E6
:1015B000A8048093F1008091E8008E778093E80082
:1015C0000E9430098091E80083FFE4C18091CD043E
:1015D0009091CE04492F50E04A30510508F0DAC10D
:1015E000FA01EE59FF4F0C941A29803821F0823805
:1015F00009F0D0C108C08091CA049091CB0499230E
:1016000089F082600FC08091D1048F70873008F01C
:10161000C1C18093E9008091EB0085FB882780F9A8
:101620001092E9009091E800977F9093E8008093F2
:10163000F1001092F10070C1282F2D7F09F0AAC18E
:10164000882319F0823061F0A5C18091CF048130E8
:1016500009F0A0C1933009F080E08093CB042EC044
:101660008091CF0481112AC08091D1048F702FEF17
:10167000280F263008F08EC18093E9002091EB00FE
:1016800020FF1CC0933021F48091EB00806214C0D5
:101690009091EB0090619093EB0021E030E0A90184
:1016A00002C0440F551F8A95E2F74093EA0010925A
:1016B000EA008091EB0088608093EB001092E900D3
:1016C0008091E800877F8093E8000E94300962C122
:1016D000811160C11091CF041F778091E300807861
:1016E000812B8093E3008091E800877F8093E8005E
:1016F0000E9430098091E80080FFFCCF8091E300D8
:1017000080688093E300111102C082E001C083E091
:101710008093D9043FC18058823008F03BC12091AA
:10172000CF043091D0042C3D53E0350779F583E0A8
:101730008A838AE289834FB7F894DE01139620E00A
:101740003EE051E2E32FF0E050935700E49120FF98
:1017500003C0E295EF703F5FEF708E2F90E0EA30AC
:1017600010F0C79601C0C0968D939D932F5F2431D2
:1017700049F74FBF8091E800877F8093E8006AE2D5
:1017800070E0CE0101960E948409B4C08091D1041A
:101790009091D204432F552743305105A9F068F4A6
:1017A0004130510509F405C14230510509F0F2C03C
:1017B00084E790E0EAE0F2E04BC04132510529F1C4
:1017C0004232510589F1E6C0C9019927813091055E
:1017D000A1F058F0029709F0DDC0E0E9F2E0E491F1
:1017E0008E2F90E0E0E9F2E030C0EEEDF2E0E4911F
:1017F0008E2F90E0EEEDF2E028C0E4EBF2E0E49111
:101800008E2F90E0E4EBF2E020C08430910508F0E8
:10181000C1C0880F991FFC01E85CFE4F0190F08168
:10182000E02D89E090E014C08430910508F0B2C04A
:10183000FC01EE0FFF1FE05DFE4F0190F081E02DF7
:10184000DC01A45DBE4F8C9190E0009709F4A2C02A
:101850002091E800277F2093E8002091D304309165
:10186000D4042817390708F4C90140E0009789F12A
:101870002091D904222309F43DC02530D9F12091CB
:10188000E80023FD37C02091E80022FD2FC0209101
:10189000E80020FFEBCF4091F3002091F20030E010
:1018A000342B009759F02830310540F4449140938F
:1018B000F100319601972F5F3F4FF3CF41E0283081
:1018C000310509F040E02091E8002E772093E800F0
:1018D000CDCF4111CDCF0AC08091D904882351F0DA
:1018E000853041F08091E80083FD04C08091E800DC
:1018F00082FFF2CF8091E8008B778093E8004AC0A6
:10190000803809F047C08091E800877F8093E80025
:101910008091CC048093F1008091E8008E77D3CE43
:10192000811138C08091CF049091D00499270297FB
:101930008CF58091E800877F8093E8001091CF04B8
:101940001093CC040E943009111106C08091E3006D
:1019500087FD02C081E001C084E08093D90442E0A9
:1019600061EC81E00E944F0942E061EC82E00E945C
:101970004F0942E261EC85E00E944F0942E261ECCE
:1019800083E00E944F0942E260EC84E00E944F092C
:101990008091D9048091E80083FF10C08091E80015
:1019A000877F8093E8008091EB0080628093EB005A
:1019B00005C082E190E0EEE7F2E04ACFAA96E3E0CC
:1019C0000C94D5271F920F920FB60F9211242F93CC
:1019D0003F934F935F936F937F938F939F93AF93B7
:1019E000BF93CF93DF93EF93FF93C091E900CF7044
:1019F0008091EC00D82FD17080FDD0E81092E900E2
:101A00008091F000877F8093F00078940E94120A02
:101A10001092E9008091F00088608093F000CD2B57
:101A2000CF70C093E900FF91EF91DF91CF91BF910B
:101A3000AF919F918F917F916F915F914F913F9166
:101A40002F910F900FBE0F901F901895E8EDF0E0CA
:101A500080818E7F80831092E2001092DA001092D3
:101A6000E100A0EEB0E08C9181608C9380818F7753
:101A7000808319BCA7EDB0E08C918E7F8C93808120
:101A80008F7E80831092A7040895A0E0B0E0EBE47D
:101A9000FDE00C94B427C8EDD0E088818F7E888368
:101AA000E7EDF0E080818160808384E082BF81E0A7
:101AB0008093A70488818E7F888302EE10E0F8016E
:101AC00010821092DA0081EEC82ED12CF60110821D
:101AD00088818F77888388818068888388818F7DDB
:101AE000888319BC1092D9041092CC041092CB04B4
:101AF0001092CA0490EEE92EF12CF70180818B7FC1
:101B0000808388818160888342E060E080E00E9479
:101B10004F09F60180818E7F8083F801808181608A
:101B20008083808188608083F70180818E7F8083BD
:101B3000888180618883CDB7DEB7E8E00C94D02738
:101B40001F920F920FB60F9211242F933F934F9332
:101B50005F936F937F938F939F93AF93BF93EF9315
:101B6000FF938091E10082FF09C08091E20082FF33
:101B700005C08091E1008B7F8093E1008091DA00C5
:101B800080FF2AC08091D80080FF26C08091DA00B3
:101B90008E7F8093DA008091D90080FF18C080E1A9
:101BA00089BD82E189BD09B400FEFDCF81E080934B
:101BB000D9048091A70481110FC00E94260D0E94B4
:101BC000450D8091E20084608093E20005C019BC5D
:101BD0001092D9041092A7048091E10080FF17C0F1
:101BE0008091E20080FF13C08091E2008E7F80939D
:101BF000E2008091E20080618093E2008091D80051
:101C000080628093D80019BC85E08093D9048091CC
:101C1000E10084FF30C08091E20084FF2CC080E1AD
:101C200089BD82E189BD09B400FEFDCF8091D80055
:101C30008F7D8093D8008091E1008F7E8093E100BA
:101C40008091E2008F7E8093E2008091E2008160CB
:101C50008093E2008091CC04882311F084E007C0D7
:101C60008091E30087FD02C081E001C083E08093A2
:101C7000D9048091D9048091E10083FF27C080912D
:101C8000E20083FF23C08091E100877F8093E10021
:101C900082E08093D9041092CC048091E1008E7F81
:101CA0008093E1008091E2008E7F8093E20080913A
:101CB000E20080618093E20042E060E080E00E9408
:101CC0004F098091F00088608093F000FF91EF91C0
:101CD000BF91AF919F918F917F916F915F914F9144
:101CE0003F912F910F900FBE0F901F90189520914C
:101CF000E4003091E50095E64091EC00842F81707E
:101D000040FF23C08091E80080FD1DC08091D90470
:101D1000882399F0853099F08091EB0085FD11C002
:101D20004091E4005091E5002417350729F39150C4
:101D300011F09A01E1CF84E0089582E0089583E0F4
:101D4000089581E0089580E008954091E80042FF01
:101D5000DDCF0895EF92FF920F931F93CF93DF9300
:101D60007C018B010E94770E811119C0E7010115DA
:101D70001105A1F08091E80085FD0AC08091E8007E
:101D80008E778093E8000E94770E882381F307C046
:101D900089918093F10001501109E9CF80E0CDB71E
:101DA000DEB7E6E00C94D227CF932091D9042430FB
:101DB00029F5C091E900CF703091EC00232F2170FC
:101DC00030FD20E8C22B23E02093E9002091E800B9
:101DD00020FF11C040E050E060E270E00E94AA0ED7
:101DE000882321F01092D7041092D8048091E80043
:101DF0008E778093E800CF70C093E900CF9108956B
:101E0000CF93DF93CDB7DEB7CC55D1090FB6F89499
:101E1000DEBF0FBECDBF85B7806885BF85B7806840
:101E200085BF84B7877F84BF0FB6F894A89580914B
:101E30006000886180936000109260000FBE90E0A7
:101E400080E80FB6F89480936100909361000FBE14
:101E50008FE896E19093A3018093A2010E94260D42
:101E60000E94450D8091E20084608093E2007894A6
:101E70008091D9048823A1F01091E9001F709091FE
:101E8000EC00892F817090FD80E8182B1092E900FA
:101E90008091E80083FD0E94120A1F701093E900F0
:101EA00082E084BD93E095BD9AEF97BD80936E006C
:101EB0000E94F91490E090931D0180931C010E94F0
:101EC00034160E947A16E0EEF4E0A1EFB4E011922D
:101ED0001D9224E0EE3EF207D1F78EE090E00E94E2
:101EE0003B298093DA049093DB04FC010E96119257
:101EF000E817F907E1F789EA8093800089E0809389
:101F0000810024982C983F988AB18F7C8AB96E986A
:101F1000479A8BB180638BB9769A8FE090E00E94EC
:101F200055286093DC047093DD048093DE04909365
:101F3000DF0467703FEF639FB001112475956795CB
:101F400075956795772770938900609388007093E3
:101F50008B0060938A0070938D0060938C000E94C8
:101F6000701580E090E00E945B28883E9E4F11F043
:101F70000E94871882E090E00E944D288093FF0421
:101F800084E090E00E944D28182F82E290E00E94A9
:101F90004D28212F30E0382B30931D0620931C064E
:101FA00083E090E00E944D280E94DF1D8091100682
:101FB0000E9459148091EE04811136C080E090E0B7
:101FC0000E945B28883E9E4F21F00E9487180E9445
:101FD000B22388E090E00E94552860930B0670932E
:101FE0000C0680930D0690930E066E7F71F40E948E
:101FF000B22388E090E00E94552860930B0670930E
:102000000C0680930D0690930E060E944F231092AB
:10201000CB0580910B0680FF04C060E086950E948E
:10202000282581E08093EE04809110060E945914C7
:102030008FE091E09093140680931306A8E1EA2EB6
:10204000F12CB0E4DB2E8091D904853009F07BC0FF
:10205000BB24B39400E112E18091D904853009F0EA
:1020600065C08091D904843009F43DC01092CB053D
:102070008091F004811116C0B092F00480910B069B
:10208000982F91709093EF048E7F80930B06FFEF53
:1020900020E732E0F15020403040E1F700C000007E
:1020A0000E941821109217060FB6F894A895E09296
:1020B00060000FBED092600083B7817F846083BFD1
:1020C00083B7816083BF7894889583B78E7F83BF01
:1020D0000FB6F894A89580916000886180936000A5
:1020E000109260000FBE8091CB04882309F4B4CF16
:1020F0000E94F91490E090931D0180931C010E94AE
:1021000034160E947A16E1EFF4E0119244E0EF3FBA
:10211000F407D9F70E940B1AE1EFF4E081918111E5
:10212000E2C284E0EF3FF807C9F796CF0E94E41DB2
:102130000E9490201092F0048091EF0481110E947F
:1021400063250E9402210E940B1A882359F08FB741
:10215000F894409118065091190660911A067091F2
:102160001B068FBFE0E0F5E0A1EFB4E000E010E077
:10217000302F2D9191919227A1F180E0BB24B3944F
:102180004B2D492351F164968FAF649765963FAF0D
:1021900065972B2181E009F480E066968FAF669702
:1021A0000E9407208160782F68969FAF8EAF689756
:1021B00064964FAD649765965FAD659766966FAD13
:1021C000669768968FAD68970E949213F801E05069
:1021D000FB4F8081B826B0822AC08F5FBB0C86304F
:1021E00079F60F5F1F4F0E30110509F0C1CF8FEF49
:1021F00069968FAF69976A968FAF6A976B961FAE95
:102200006B970E9407208160782F6D969FAF8EAFED
:102210006D9769964FAD69976A965FAD6A976B96B1
:102220006FAD6B976D968FAD6D970E9492138091F5
:10223000CB05882309F493C08091CA05E0910B0671
:10224000E695E81BE093C605823059F4F0E0E051D2
:10225000FD4FE4910E2F10E0F3E9AF2EFFE1BF2E0A
:1022600059C0863059F4F0E0E351FD4FE4910E2F50
:1022700010E0E3E8AE2EEFE1BE2E4CC0893061F4F1
:10228000E695F0E0E651FD4FE4910E2F10E073E18A
:10229000A72E73E2B72E3EC08F3061F4E695F0E0D2
:1022A000E951FD4FE4910E2F10E06DEAA62E62E297
:1022B000B62E30C0853159F4F0E0EC51FD4FE49179
:1022C0000E2F10E05DE5A52E52E2B52E23C0883119
:1022D000A1F0833249F4E2EEF2E00591149149E471
:1022E000A42E4FE1B42E16C0843271F404EF11E035
:1022F0003AEAA32E31E2B32E0DC008E210E022EE3E
:10230000A22E21E2B22E06C000ED17E098EEA92E13
:102310009EE1B92E8091C705882361F01092C70510
:102320000E9407209093C5058093C4051092C905AB
:102330001092C8050E940720E091C405F091C505E0
:102340008E1B9F0B8F3F9F4750F40E0F1F1F109344
:10235000C5050093C40584EC95E0F501099585E079
:10236000E8E2F6E0DE01119601900D928A95E1F720
:102370001092290610922A0610922B0610922C0613
:102380001A81111104C08B81882309F452C08091F5
:102390002606909127060E94F81F9C019091220624
:1023A000992309F4B6C12531310508F442C09F3F95
:1023B00019F09F5F90932206112361F00E941D2661
:1023C000111614F09FEF01C091E0899F802D112418
:1023D000809329061B81112361F00E941D2611168E
:1023E00014F09FEF01C091E0899F802D112480930C
:1023F0002A06309129063323E1F020912A06222370
:10240000C1F045EB3403C0011124992319F09093D6
:10241000290603C081E08093290635EB2303C00120
:102420001124992319F090932A0603C081E0809328
:102430002A061C81111104C08D81882309F452C021
:1024400080912406909125060E94F81F9C0190918E
:102450002106992309F461C12531310508F442C0F0
:102460009F3F19F09F5F90932106112361F00E9416
:10247000FD25111614F09FEF01C091E0899F802D7A
:10248000112480932B061D81112361F00E94FD25EC
:10249000111614F09FEF01C091E0899F802D112447
:1024A00080932C0630912B063323E1F020912C06EB
:1024B0002223C1F045EB3403C0011124992319F004
:1024C00090932B0603C081E080932B0635EB23030A
:1024D000C0011124992319F090932C0603C081E0C8
:1024E00080932C0645E050E0BE016F5F7F4F88E28D
:1024F00096E00E94692A892BA9F48091290681110E
:102500000FC080912A0681110BC080912B0681118A
:1025100007C081E090912C06911103C080E001C0BA
:1025200081E080FD0E949B2685E0FE013196A8E2B5
:10253000B6E001900D928A95E1F70E94902090916B
:102540000E05891380930E058091D904843009F01B
:102550007ACD8093E9008091E80082FF74CD80916C
:10256000E80085FF22C00E94770E81111CC000E2A6
:1025700010E05E0141E2A40EB11C08C08091F100A0
:10258000F50181935F010150110969F08091E80024
:1025900085FDF4CF8091E8008B778093E8000E945E
:1025A000770E882399F391E001C090E08091E800D4
:1025B0008B778093E800992309F445CD89A1813078
:1025C000E9F158F1823021F0843009F480C03BCD2C
:1025D0008BA19AA190930F05809310058DA19CA1CA
:1025E00090931105809312058FA19EA190931305DE
:1025F0008093140542E150E063E270E0CE018F5B0E
:102600009F4F0E943D2884E0898381E08093D80415
:102610008EEF8A831092D7040CC019828CE0E0E41C
:10262000F1E0DE01129601900D928A95E1F78EEFAE
:102630008D87CE0101960E94D40E05CD05E115E0EF
:102640008BE1A82E85E0B82E0E94C820F801819366
:1026500091938F01AE16BF06B9F781E089839091FF
:1026600015059A83909116059B83909117059C837D
:10267000909118059D83909119059E8390911A055C
:102680009F839EEF98878093D704CE0101960E9486
:10269000D40E42E150E063E270E0CE0101960E9468
:1026A0003D28FE01319682E183301CF09189928BA6
:1026B00001C0128A815031978F3FB1F742E150E05B
:1026C00063E270E0CE0101960E946128BCCC80914B
:1026D000D804882309F4B7CC80E00E949C1D8AA10D
:1026E0000E94D31DB0CC09BD19BD09B400FEFDCFB9
:1026F0008091D8008F7D8093D8008091E000826027
:102700008093E0008091E00081FDFCCF0E94E41DF9
:10271000A3CC232B09F04DCE8CCE2139314008F0CB
:10272000A1CEE0CEA7E1B0E0E8E9F3E10C94B9274F
:102730004B8B5C8B6D8B7E8B8F8B61111092940514
:1027400086E09E01235F3F4FD901E82F1D92EA9555
:10275000E9F795E0FE017396D90101900D929A95E3
:10276000E1F79C894E895F897B897D879E876F878A
:10277000598B488BF901DE01179601900D928A95CD
:10278000E1F7CE0107960E94AC1B81113EC086E0A6
:10279000FE013796DE01119601900D928A95E1F7C0
:1027A000FF81E8856A857B856115710531F0EF3F12
:1027B00031F481E0FF3F19F403C081E001C080E003
:1027C00080FD23C02091410530E0C901019687704A
:1027D00099274091720550E08417950779F1F983A4
:1027E000EA837D836C8396E0929FD001939FB00D26
:1027F0001124AE5BBA4FFE01319601900D929A956D
:10280000E1F7809341050E94981916E080917205C6
:10281000909141058917F9F0189FC00111248E5B32
:102820009A4F0E94AC1B8823B1F08091720590E012
:1028300001968770992780937205E8CF0E94E41D66
:102840001092410510927205EBE3F5E086E0DF019E
:102850001D928A95E9F76796E3E00C94D527982FA7
:1028600092959F7019F0892F24E001C020E0982FE5
:102870009695969511F02E5F892F982F969509F0D1
:102880002F5F822F08950E94E41D2FEF84E39CE0C8
:10289000215080409040E1F700C000009AE088E1BC
:1028A0000FB6F894A895809360000FBE90936000D7
:1028B000FFCFCF93C82F0E942F1456985E9825986B
:1028C0002D9826982E9827982F98482F50E0FA0197
:1028D0003197E730F105E0F4E459FF4F0C941A29E1
:1028E000259A2D9A2CC0269A2E9A38C0279A2F9A6C
:1028F00044C0259A2D9A269A2E9A50C0259A2D9A30
:1029000004C0259A2D9A269A2E9A279A2F9A46C065
:102910008130A9F028F0823009F1833071F13EC096
:102920008091A604811162C00E94632560E081E06D
:102930000E94282520E04CED67E284E22CC08091C3
:10294000A604811153C00E94632560E081E00E94CB
:10295000282520E04EEC6BE78FE31DC08091A60494
:10296000811144C00E94632560E081E00E94282517
:1029700020E048EB6EE48CEB0EC08091A604811140
:1029800035C00E94632560E081E00E94282520E098
:1029900043EF6DE686EF0E94672428C08091A6046D
:1029A000811124C088E090E00E94552860930B06B6
:1029B00070930C0680930D0690930E06862F60FF91
:1029C00013C0816080930B0686950E946D258091CF
:1029D0000B0686950E946D2521E040910E066091C0
:1029E0000D0680910C06D7CF0E9499238C2FCF9192
:1029F000089580E290E090931D0180931C018091E6
:102A0000C30581110EC00E94C22681E08093C305D8
:102A10002FEF83ED90E3215080409040E1F700C01C
:102A2000000060E570E080E40E94C82690931D01DC
:102A300080931C01892B09F04EC060E570E080E0B6
:102A40000E943D2790931D0180931C01892B09F062
:102A500042C060E570E080E00E943D2790931D0138
:102A600080931C01892BB9F560E570E08FE30E942B
:102A70003D2790931D0180931C01892B61F50E94D5
:102A8000922760E570E080E40E94C82690931D01C3
:102A900080931C01892BF9F460E570E08CE00E94C2
:102AA0003D2790931D0180931C01892BA1F460E5C3
:102AB00070E080E00E943D2790931D0180931C01EF
:102AC000892B49F460E570E08FE30E943D279093E5
:102AD0001D0180931C010E94922780911C01089582
:102AE000CF93DF9356985E9825982D9826982E9828
:102AF00027982F98C8E8D0E08FEF90E099838883DB
:102B0000AAE8B0E011969C938E93ECE8F0E09183F4
:102B10008083259A2D9A2FEF80E792E02150804004
:102B20009040E1F700C00000269A2E9A2FEF80E730
:102B300092E0215080409040E1F700C00000279AC9
:102B40002F9A2FEF80E792E0215080409040E1F7EC
:102B500000C0000025982D982FEF80E792E02150CB
:102B600080409040E1F700C0000026982E982FEF9B
:102B700080E792E0215080409040E1F700C00000E3
:102B800027982F988091DC0487702FEF829FC001D7
:102B9000112495958795959587959927998388838D
:102BA00011969C938E939183808356985E98259876
:102BB0002D9826982E9827982F98DF91CF910895D9
:102BC000CF93E82F873080F580911C0190911D01F3
:102BD000892B09F047C0CE2F60E570E080E40E94A9
:102BE000C82690931D0180931C01892BD1F460E5C8
:102BF00070E082E10E943D2790931D0180931C01AB
:102C0000892B79F481E090E001C0880FCA95EAF73A
:102C100060E570E080950E943D2790931D018093B0
:102C20001C010E9492271EC090E0FC013797E730FC
:102C3000F105C0F4ED58FF4F0C941A29209A2898FA
:102C400011C0219A29980EC0229A2A980BC0239A63
:102C50002B9808C0529A5A9805C0539A5B9802C0A4
:102C60003E9A4698CF9108952098289821982998BF
:102C700022982A9823982B9852985A9853985B98A0
:102C80003E9846980895CF93873040F580911C0177
:102C900090911D01892B59F560E570E081E40E9457
:102CA000C82690931D0180931C01892B11F0C0E070
:102CB00011C080E590E00E946D2797FF05C09093BA
:102CC0001D0180931C01F3CFC82FC09510921D01E8
:102CD00010921C010E9492278C2F0AC09FB18FB1C5
:102CE000807F869586959370892B809501C080E0C2
:102CF000CF9108958098889A8198899A84988C9A1F
:102D000085988D9A86988E9A87988F9A089581E0F3
:102D100080939E050E940720259A2D9A089580E0B1
:102D2000089590911C0692FF0DC0282F287128301D
:102D300019F4877F846006C0282F2471243011F491
:102D40008B7F886093FF0DC0282F2871283119F4DC
:102D5000877E846106C0282F2471243111F48B7E74
:102D6000886120911D0620FF0DC0382F3871383042
:102D700019F4877F816006C0382F3171313011F42A
:102D80008E7F886021FF0DC0282F2871283119F40B
:102D9000877E816106C0282F2171213111F48E7E3A
:102DA000886194FD877E08957E30A0F4663090F4AB
:102DB00094E5899FF001112486E0789FE00DF11DD4
:102DC0001124E60FF11DEE0FFF1FEC50FD4F859112
:102DD0009491089580E090E00895CF93DF93823836
:102DE000910569F1B0F48133910509F46FC048F49D
:102DF0008932910509F465C08A32910509F46BC0E6
:102E00008AC08533910509F457C089339105B9F01B
:102E100082C0833E910571F138F4803E9105B1F096
:102E2000823E910511F177C0863E9105B9F1873E4A
:102E30009105C9F1843E910509F06DC024C020912F
:102E40001C0620FD53C021FD51C065C080911C06A9
:102E500080FD46C080911D0680FF48C080911C0601
:102E600084FD50C183EE90E04FC180911C0682FF2B
:102E70003AC0F4CF80911C0682FD35C080911D06BA
:102E800080FD34C0EBCF80911D0681FF35C080915D
:102E90001C0684FD37C187EE90E036C180911C0688
:102EA00083FF27C0F4CF80911C0683FD22C0809150
:102EB0001D0681FD21C0EBCF80911C0685FD1FC042
:102EC00021C080911C0685FD1DC019C080911C0683
:102ED00086FD1BC01DC080911C0686FD19C015C053
:102EE00089E390E011C182EE90E00EC180EE90E0A7
:102EF0000BC186EE90E008C184EE90E005C189E246
:102F000090E002C185E390E0FFC08AE290E0FCC05F
:102F100081E390E0F9C0811531E5930708F069C0BD
:102F2000811540E59407F0F09C0174E036952795F3
:102F30007A95E1F7922F9370482F437021E030E0AB
:102F400002C0220F331F4A95E2F73C68392B982FB5
:102F50009F709695969540E2949FC0011124822B14
:102F6000932BD2C0883E910568F5803E910508F00C
:102F7000CBC0883A9105B8F4853A910548F0855A56
:102F8000E82FF0E0E45BFE4F808190E09064BCC0ED
:102F90008130910509F4B3C008F4B4C084309105C0
:102FA00008F4B0C0B1C08F3B910508F0ABC0885A9F
:102FB000E82FF0E0EE0FFF1FE15BFE4F8081918173
:102FC0009464A2C0811520E2920758F4811531E083
:102FD000930708F099C08D3E910508F493C0906561
:102FE00093C0811540E4940708F48CC09F70906AE8
:102FF0008BC0811525E5920708F042C0811534E5A4
:10300000930728F0982F8827846F906A7DC08115D8
:1030100043E59407B0F09C012370332741E050E072
:1030200002C0440F551F2A95E2F7282F26952695B2
:1030300080E2289F90011124CA01822B932B9A6869
:1030400063C0811522E5920728F4982F8827816FA5
:10305000906A5AC09C012370332741E050E002C0BF
:10306000440F551F2A95E2F7282F2695269580E2D2
:10307000289F90011124CA01822B932B9C6844C085
:10308000EC01811539E59307A8F48115984528F0DE
:103090009C2F8827806F906A37C0C11586E5D807B6
:1030A00088F58C2F0E9491168F7190E0982F8827B9
:1030B00090622AC081152AE5920790F48C2F8F70B8
:1030C0000E94911694E0D695C7959A95E1F7CF7036
:1030D000D0E0DC2FCC27D0699E01282BC90114C079
:1030E00090568115904270F48D2F8F710E94911629
:1030F000282F2F71CE0199279062922B05C081E075
:1031000090E002C080E090E0DF91CF91089568EEFA
:103110007EEF80E090E00E948F2860E082E090E007
:103120000E94712860E083E090E00E947128109274
:10313000970560E084E090E00E94712864E082E2FC
:1031400090E00E94712860E085E090E00E94712884
:1031500060E086E090E00E9471286FEF87E090E0E9
:103160000E94712840E050E0BA0188E090E00E949F
:10317000832860E08DE090E00E94712840E050E0FC
:10318000BA0188E190E00E94832860E087E190E046
:103190000E94712840E050E0BA018CE190E00E946A
:1031A000832860E070E080E290E00E948F2840E099
:1031B00050E0BA0188E190E00E9483281092DC047C
:1031C0001092DD041092DE041092DF0484E08093FC
:1031D000DC044091DC045091DD046091DE047091C8
:1031E000DF048FE090E00E94832840E050E0BA01C5
:1031F00083E190E00E9483280895809196058111D3
:103200001092960508958095909195058923809355
:10321000950508959091950580919405982B90932C
:103220001B05809196058823D9F0892B80931B0577
:1032300080910E01882331F080911C0687FF02C027
:103240008EE101C086E0EDE1F5E090E0815028F0EC
:1032500021912223D9F39F5FF9CF91110E94FD188C
:1032600040E250E064E775E08BE195E00E94692A56
:10327000892B21F180E2EBE1F5E0A4E7B5E00190D4
:103280000D928A95E1F7E0911306F09114063097BC
:10329000A9F080910E01882359F080911C0687FFC8
:1032A00007C080911B0580931C0586E080931B0559
:1032B0000280F381E02D8BE195E00995089520913E
:1032C00073058095822380937305982F977099F4E6
:1032D00030E0482F082E000C550B2417350759F005
:1032E00090911D0692FF07C08595859585950E9452
:1032F000C61D109273050895CF93C0911D06C2FBA1
:10330000992790F9981791F080FBC2F9C0931D0698
:1033100060911C0684E090E00E9471286C2F82E28C
:1033200090E00E94712882E00E945F19CF91089579
:103330008091720590914105891719F08F5F877010
:10334000FBCF08950F931F93CF93DF938091400598
:1033500082958F7009F05AC080913D05882309F449
:1033600055C0809172051091410560913B057091A7
:103370003C05C0913E05D0913F0591E06F3F09F0BB
:1033800090E0292F06E0811709F440C0209721F032
:103390007F3F21F030E003C031E001C0322F90E0E8
:1033A00030FD31C0089FF001099FF00D1124DF01AD
:1033B000AE5BBA4F11963C911197371324C03C91E4
:1033C000361321C012963C91129731111CC01396EE
:1033D0004D915C9114974C1B5D0B483C510598F442
:1033E000809140058F70806180934005E95BFA4FC2
:1033F00080818F70806180838BE395E00E94EC0375
:103400000E94981903C001968770BDCFDF91CF91BC
:103410001F910F910895A0E0B0E0E1E1FAE10C9472
:10342000B32780911C0190911D01892BB9F08091E7
:1034300098058F5F80939805811110C00E94F91440
:1034400090E090931D0180931C01892B39F40E9418
:10345000701581E080931B010E94182100EE14E09A
:103460007801B12CC0E087E0C82ECC0E8C2F0E94D2
:10347000E0158C2D0E94E0158C2F0E9443168F734F
:10348000F7019081891721F08083DD24D39401C056
:10349000D12C8C2D0E9443168F73F70197818917C9
:1034A00019F0878381E001C080E0D82ABD280E94FE
:1034B0003416CF5FFFEFEF1AFF0AC730A1F6C091B5
:1034C0009C05CC23C9F10E94072020919A053091D8
:1034D0009B05AC01421B530B9A0190939B05809373
:1034E0009A054F3F510509F020F4452B09F4B2C06D
:1034F00002C02FEF30E010929C0510929905E091E8
:10350000DA04F091DB04AF01425F5F4F90E030E0FE
:103510008081882341F0281718F010829C2F03C067
:10352000821B80833C2F3196E417F50789F730938F
:103530009C05909399058EC0BB2009F482C00E941F
:10354000072090939B0580939A05E091DA04F0910F
:10355000DB0480919C05A1EFB4E09F01225F3F4F07
:103560004EE1E80199918E015C91591731F050813B
:10357000511103C040839C9381E031961196E2176C
:10358000F30779F780939C052091D7048091A005DB
:103590009091A1052223C9F1892B31F425982D980A
:1035A00026982E9827982F988091A0059091A10594
:1035B0009170892B79F480919F05882319F02698C2
:1035C0002E9802C0269A2E9A90919F0581E0892715
:1035D00080939F058091A0059091A1058130984727
:1035E00050F01092D704809110060E945914109246
:1035F000A1051092A0058091A0059091A1050196CA
:103600009093A1058093A0050AC0892B41F01092E8
:10361000A1051092A005809110060E945914809176
:103620009E058823D9F025982D9880919D058F5F60
:1036300080939D05853610F0259A2D9A0E940720CB
:103640000DC080E090919905992309F49DCF8111D7
:103650007CCF75CFB11079CF81E0F4CF8B2DCDB772
:10366000DEB7E9E00C94CF2780E090E00E947A205A
:1036700080E090E00E946420109294050E940A1954
:10368000E8E2F6E085E0DF011D928A95E9F7109205
:10369000220610922106109223060E949B2608956E
:1036A000CF92DF92FF920F931F93CF93DF936C0122
:1036B0000091100680919705082BC7E0D0E010E03C
:1036C000C8010C2E02C0959587950A94E2F780FDFB
:1036D00004C02197A8F7F12C09C0FC2EB6018C2F4D
:1036E0000E94D4160E94ED16019799F38F2DDF9159
:1036F000CF911F910F91FF90DF90CF900895CF93BE
:10370000DF93EC010E94501BBE010E94D4160E9460
:10371000ED16DF91CF910895FC01808191810E9487
:103720007F1B92959F70963079F010F4925001C0F3
:103730009A50923068F4803F69F018F4883E40F463
:1037400009C0843F29F406C0883E20F0813F11F073
:1037500080E0089581E00895A1E1B0E0E2EBFBE1B3
:103760000C94B1278C0185E0F801DE011D960190D3
:103770000D928A95E1F7F801E28090913B05609106
:103780003C0540913E0550913F054115510531F0F2
:103790006F3F31F481E09F3F19F403C081E001C025
:1037A00080E0F82FF1709F2E80FD1BC1F801308161
:1037B0002181C380D4808BE3A82E85E0B82EF090C1
:1037C0003D05F601E41BF50BFF2009F4C7C080910D
:1037D0004005E83CF10508F092C0482F407F09F011
:1037E00051C0621311C093130FC0FE2CE1100CC026
:1037F0008F70806180934005C5010E94EC03809129
:103800004005F80185832AC1C114D10431F02F3F4E
:1038100031F481E03F3F19F403C081E001C080E052
:1038200080FD03C081E08E2502C080E090E0F82F8B
:10383000F170FF2E80FF1CC0809172054091410500
:1038400056E0841709F4E8C090E0589FF001599FB2
:10385000F00D1124EE5BFA4F6181261306C06081E2
:10386000631303C06281E61203C001968770E9CF3B
:10387000FE2CEE2009F4F2C0809140058160809317
:10388000400549C0621306C0931304C0E11002C092
:10389000F80186C0C8010E948C1B882351F1EE20DC
:1038A00041F120914005822F82958F7090E0029720
:1038B00074F080913B0590913C0598878F83198621
:1038C000DB86CA862C87CE0107960E94EC0386E031
:1038D000F801ABE3B5E001900D928A95E1F70E9403
:1038E000A2190AC06217C9F0C8010E948C1B81117D
:1038F0001EC0C8010E94EC03FF24F394AFC0482F00
:10390000407F81F78BE395E00E94EC0386E0F501B0
:1039100011928A95E9F7F12CA1C09313E5CFE1103C
:10392000E3CFF8018583C8010E94EC0354C0EE2068
:1039300001F320914005822F82958F7090E00297CD
:1039400034F280913B0590913C059A8389831B82D8
:10395000DD82CC822E83CE010196B7CFE83CF10503
:10396000D0F5FE2CEE2029F2621327C0931325C058
:103970002091400520FD18C0822F82958F70482F1E
:1039800050E04115510581F0F80125834F30510574
:1039900041F08F5F982F9295907F822F8F70892BA7
:1039A0008583C8010E94EC0386E0F801ABE3B5E033
:1039B00001900D928A95E1F751C0C8010E948C1BBD
:1039C000811185CF80914005816080934005C801B9
:1039D0000E94EC0343C086E0F50111928A95E9F755
:1039E0003DC0EE2009F485CFC8010E948C1BF82E43
:1039F000882309F47ECF86E0F801ABE3B5E00190BF
:103A00000D928A95E1F780913B0590913C050E94CB
:103A10007F1B0E94A21922C03D872E878D859E851F
:103A20000E947F1B292F22952F70223028F49F702F
:103A300039F0811105C00BC0243028F49F7049F47F
:103A4000805E883020F0C8010E94EC039F2CF92C86
:103A500005C0F8019581907F99F7F9CF8F2D619678
:103A6000EBE00C94CD27292F9E3078F5863068F551
:103A700090E036E0239F800D911D1124682F677020
:103A800023E0969587952A95E1F7FC01EE0FFF1F3D
:103A9000E80FF91FEE55FA4F40E050E080E0219129
:103AA00030E0062E02C0369527950A94E2F7217081
:103AB0003327042E01C0220F0A94EAF7822B4F5FAE
:103AC0005F4F4330510559F7089580E00895292F3D
:103AD0009E3088F5863078F590E036E0239F800DA3
:103AE000911D1124282F277051E001C0550F2A95F0
:103AF000EAF723E0969587952A95E1F7FC01EE0F0A
:103B0000FF1FE80FF91FEE55FA4F20E030E070E09C
:103B10004081CB01022E02C0969587950A94E2F768
:103B20008170819584278523842781932F5F3F4F60
:103B30002330310569F70895A0E2B0E0E2EAFDE143
:103B40000C94B9270E945914182F8091D804882307
:103B5000A9F02FEF80E792E0215080409040E1F7FC
:103B600000C0000085E08983812F0E942F148A8382
:103B70008EEF8B83CE0101960E94D40E1093100617
:103B80000E94341BA096E3E00C94D52721E030E09E
:103B900001C0220F8A95EAF72095809110068223B2
:103BA0000E949C1D089521E030E001C0220F8A95FB
:103BB000EAF780911006822B0E949C1D0895809345
:103BC00097050E94341B08951092950580910E016F
:103BD000882331F080911C0687FF02C08EE101C06E
:103BE00086E0EDE1F5E0DF011D928A95E9F70E949C
:103BF000341B0895882321F00E9403190E940A199A
:103C00000895882339F090919505892B8093950527
:103C10000E940A190895882391F19CEF980F913A18
:103C200030F4682F8BE195E00E943C200DC090E2BB
:103C3000980F983060F4877091E001C0990F8A95D1
:103C4000EAF7892F0E9403190E940A1908959BE53B
:103C5000980F933028F480E090E00E947A20089535
:103C600098E5980F973128F480E090E00E94642056
:103C700008958D3E20F00E9486250E949B2608957F
:103C8000CF93882309F49FC0C82F8CEF8C0F813A03
:103C900008F05BC080910E018823E1F080911C0642
:103CA00087FF18C0EC2FE695E695E695F0E0E55E17
:103CB000FA4F8281282F30E04C2F477081E090E04E
:103CC00002C0880F991F4A95E2F782239323892B1C
:103CD00059F411C0EDE1F5E08191C81729F085E0B4
:103CE000E332F807C9F707C06C2F8BE195E00E941B
:103CF0003C200E940A1980910E018823B1F0809126
:103D00001C0687FF12C0EC2FE695E695E695F0E0DD
:103D1000E55EFA4FC77081E090E001C0880FCA9558
:103D2000EAF79281892B828320C0ADE1B5E0EFEF05
:103D300080E09D91C917C9F0EF3F19F4911101C0BE
:103D4000E82F8F5F8630A9F735C080E28C0F88306E
:103D500078F4C77081E090E001C0880FCA95EAF757
:103D600090919505892B809395050E940A192BC087
:103D7000EBE5EC0FE33040F4F0E0E45BFE4F8081D4
:103D800090E00E947A201FC0E8E5EC0FE73150F484
:103D9000F0E0EE0FFF1FE15BFE4F808191810E94FA
:103DA000642011C0CD3E78F08C2F0E9440260E94E6
:103DB0009B2609C0EF3FC9F20E2E000CFF0BE55EFB
:103DC000FA4FC283D2CFCF9108958091A90408956C
:103DD000089522E02093E9002FEF3091E800215070
:103DE00035FD06C035ED3A95F1F700002111F5CF0C
:103DF0002091E80025FF0BC040E050E065E070E056
:103E00000E94AA0E8091E8008E778093E8000895C2
:103E1000CF93DF9320910E01222339F020911C06CD
:103E200027FF03C060E225E002C068E021E02093A4
:103E3000E9002FEF3091E800215035FD06C035ED47
:103E40003A95F1F700002111F5CF2091E80025FF08
:103E50001DC0EC0180910E01811105C040E050E0D1
:103E600068E070E003C070E040E050E0CE010E94E6
:103E7000AA0E8091E8008E778093E80080E2FE0130
:103E8000AAEAB4E001900D928A95E1F7DF91CF9113
:103E90000895A4E0B0E0EFE4FFE10C94B8278C01B2
:103EA0008091CE0581110AC09E012F5F3F4F4FEFD9
:103EB0006FEF0E94C2238A818093CE05F80184812E
:103EC000813051F028F0823061F44091CE050AC073
:103ED0008091CE0540E007C06091CE0540E080E0D3
:103EE00003C040E080E060E00E943D23F80184814F
:103EF00090E0019663E070E00E9406298483249696
:103F0000E4E00C94D427CF93DF93EC01EBE0F6E0F0
:103F1000438162818C810E944F248C818F5F8C83CE
:103F2000DF91CF910895CF93DF93EC01EC81F0E026
:103F3000EC56FA4F4491EBE0F6E0628181810E94F9
:103F40004F248C818F5F8C83DF91CF910895809374
:103F50001E067093200660931F068091D90484305A
:103F600001F585E08093E9008FEF9091E8008150A2
:103F700095FD06C095ED9A95F1F700008111F5CFFA
:103F80008091E80085FF0DC040E050E063E070E004
:103F90008EE196E00E94AA0E8091E8008E778093D1
:103FA000E800089578941F920F920FB60F92112493
:103FB0008F939F93AF93BF938091180690911906AA
:103FC000A0911A06B0911B060196A11DB11D809308
:103FD000180690931906A0931A06B0931B06BF917A
:103FE000AF919F918F910F900FBE0F901F901895DA
:103FF0009C014FB7F8948091180690911906A091F2
:104000001A06B0911B064FBF821B930B08952FB762
:10401000F8948091180690911906A0911A06B09113
:104020001B062FBF08951F920F920FB60F921124F7
:104030008F939F93AF93BF9380911706811113C005
:104040008091180690911906A0911A06B0911B064E
:104050004196A11DB11D8093180690931906A09357
:104060001A06B0931B06BF91AF919F918F910F904D
:104070000FBE0F901F90189520910E012223C9F0BA
:1040800020911C0627FF15C0262F269526952695DC
:104090002E31C8F4FC01E20FF11D677081E090E061
:1040A00001C0880F6A95EAF78095928189238283FF
:1040B0000895FC0106962281621301C01282319696
:1040C000E817F907C1F708952091150630911606F3
:1040D0002817390771F09093160680931506E09122
:1040E0001306F0911406309721F00084F185E02D3D
:1040F0000995089520911106309112062817390765
:1041000071F09093120680931106E0911306F091DE
:104110001406309721F00680F781E02D0995089567
:10412000E0911306F0911406309729F00190F08188
:10413000E02D0995089580E00895CF92DF92FF92D7
:104140000F931F93CF93DF93EC016B01042FF0903B
:1041500010060E94E41D80E00E949C1D86E008027B
:1041600080011124CC15DD0531F0CE010E94EC0355
:10417000C00FD11FF7CF0E94E41D8F2D0E949C1D00
:10418000DF91CF911F910F91FF90DF90CF90089515
:10419000CF93DF930E942D2866E070E00E940629ED
:1041A000D82F0E942D286EE070E00E940629C82FAB
:1041B0006D2F782F80E00E94D4160497C59718F4CD
:1041C0008D2F9C2F02C00E94C820DF91CF910895AF
:1041D00090910B0690FF04C09695981748F003C085
:1041E000811106C090E0961718F40E947B2508956F
:1041F0000E946D250895882311F0FA0101C0FB018A
:104200000995089560910B06669570E04BE050E0CB
:104210008EE191E00E945C2A892B19F481E0809361
:10422000CB050E9407209093C5058093C40508958F
:10423000EF92FF920F931F93CF93DF9380910B0622
:1042400080FF08C00FEC15E08BE0E82E86E0F82E2A
:10425000F8011BC0EFECF5E08BE096E011821082D4
:104260001282138234968E179F07C1F7EBCF38174F
:1042700008F4832F8383381B3183281B2083981BEA
:1042800092833496EE16FF0641F0928120813181AF
:10429000892F291760F7822FEACF8091C3058823E1
:1042A00081F180911C0190911D01892B51F5809124
:1042B0001B01882331F165E070E084E80E94C82684
:1042C000892B19F010921B011AC0CFECD5E065E0E4
:1042D00070E088810E943D2765E070E089810E943E
:1042E0003D2765E070E08A810E943D2765E070E02F
:1042F0008B810E943D272496EC16FD0641F70E9413
:104300009227579A8BB18F779BB190682FB7F8940B
:10431000E016F10699F0F80131918F0148E09BB960
:10432000000000C037FF8BB9330F000000C000C091
:1043300000C08BB900C04A9591F7EACF2FBF8FE537
:1043400094E00197F1F700C00000CDB7DEB7E6E0DA
:104350000C94D227EF92FF920F931F93CF93DF938A
:104360008C01CFECD5E0E12CF12CF8018481F7E051
:10437000EF16F1041CF4882339F002C0811104C047
:104380009E0140910E0602C09E0140E060910D0624
:1043900080910C060E94C2238FEFE81AF80A249637
:1043A0009FE0E916F10409F70E941821F8018481C1
:1043B00090E00196817099278483CDB7DEB7E6E05F
:1043C0000C94D227A0E0B0E0E8EEF1E20C94B02724
:1043D000EC014C81042F10E09801D8010E94E928DB
:1043E0009B01AC010E94B4286B017C01E0E2F0E08B
:1043F000E01BF10BA5E5B0E09B01AC010E94B428E5
:104400004B015C019F01DF010E9420299B01AC014F
:104410000E94BF289B01AC012C0D3D1D4E1D5F1D50
:10442000C501B4010E94C728822FF22E99E292178B
:1044300028F093E0299F900111240DC025E530E07C
:10444000281B3109C901880F991F280F391F37FF11
:1044500002C02F5F3F4F35952795122F10959FEC87
:10446000C92E95E0D92E00E085E5E82EEF1801FD74
:1044700002C08E2D01C08F2D9601412F60910D0637
:104480000E94C2230F5F84E0C80ED11C0F3079F761
:104490000E9418218C81811102C091E003C08032FA
:1044A00019F49FEF90932B0190912B01890F8C832E
:1044B000CDB7DEB7ECE00C94CC270F931F93CF93CE
:1044C000DF93CFECD5E0FE011182108212821382BD
:1044D000349686E0EB30F807B9F700E010E0809101
:1044E000CD05082E000C990B0817190794F0809140
:1044F0002A01082E000C990B8017910754F09E0199
:1045000040910E0660910D0680910C060E94C22318
:1045100004C0198218821A821B820F5F1F4F2496D3
:104520000F301105E1F60E94182180912901909128
:10453000CD05980F9093CD0520912A01280F209347
:104540002A01121614F49E301CF0819580932901E3
:10455000DF91CF911F910F910895A0E0B0E0E3EBC0
:10456000F2E20C94B327FC01828180FF03C0DD24BA
:10457000DA9402C0DD24D3940FEC15E0C0E0D0E063
:104580002FE0B22EF801118210821282138294E081
:10459000E92EF12CC12C8091CC058C0D80312CF0B2
:1045A0006B2D0E94F828892F02C087FD815F082E9D
:1045B000000C990BC817D90791F480910E068E9DB7
:1045C000A0018F9D500D1124559547955595479500
:1045D000980160910D0680910C060E94C223CD0CBB
:1045E000F1E0EF1AF108B9F621960C5F1F4FCF30BA
:1045F000D10541F60E9418218091CC0591E0D91295
:1046000006C0811102C08EE007C0815005C090E055
:104610000196BE010E9406298093CC05CDB7DEB776
:10462000E9E00C94CF27EF92FF921F93CF93DF9393
:10463000EC018FECE82E85E0F82E10E08C819701DC
:1046400040910E0660910D06810F0E94C2231F5EED
:1046500084E0E80EF11C1F3F89F70E9418219A811F
:104660008C8190FF02C08F5F01C081508C83DF91ED
:10467000CF911F91FF90EF90089590910B0690FFBE
:104680000DC0EFECF5E081836083428313823496A2
:1046900096E0EB30F907B9F70E9418210895809150
:1046A0000B06282F269530E02115310519F481706D
:1046B000826005C02532310524F0817088648093C2
:1046C0000B060895CF92DF92EF92FF926B017C016F
:1046D0000E944F23B701A60188E090E00E94832842
:1046E000FF90EF90DF90CF90089580910F06882380
:1046F00019F0815080930F0660910B0670910C06A3
:1047000080910D0690910E060E946223089580917B
:104710000F06833018F48F5F80930F0660910B06AD
:1047200070910C0680910D0690910E060E946223F6
:104730000895EBE0F6E080818E7F80836081718157
:10474000828193810E9462231092CB052FEF80E734
:1047500092E0215080409040E1F700C000000E94AC
:1047600018210895EBE0F6E083E0808311828FEF5B
:1047700082838383148260817181828193810E940C
:1047800062230895A0E0B0E0E8ECF3E20C94B227D5
:10479000E82EF62EE901E42FF0E0611106C0EC5698
:1047A000F94FE4914E2F2E2F71C0062F10E0EC56DA
:1047B000F94F4491F42FC42ED12C26E0829FC001E2
:1047C00011242FEF30E0B9010E9496275BEA5603CF
:1047D000C001579F900D11248E0D911D8E0D911DBE
:1047E000582F550F580FD901A01BB10BAC9DC0011C
:1047F000AD9D900DBC9D900D1124E92FF59ED0012B
:104800001124AB2FBB277901EA1AFB0AEC9CD001DB
:10481000ED9CB00DFC9CB00D11245901A51AB108F6
:10482000A09E7001A19EF00CB09EF00C1124EF2C04
:10483000FF242E193F092C9D80012D9D100D3C9DBC
:10484000100D1124212F6230710591F048F461158B
:104850007105E1F061307105B9F4242F4B2F16C0BA
:104860006430710569F040F06630710579F00CC074
:10487000242F492FE12F0AC0492FEF2F2B2F06C0DD
:10488000292FE42F412F02C0292FEB2F49832883A2
:10489000EA831B82CDB7DEB7EAE00C94CE27A4E012
:1048A000B0E0E5E5F4E20C94BA2790910B0690FF96
:1048B0000AC09E012F5F3F4F0E94C2234B81698136
:1048C0008A810E943D232496E2E00C94D627A4E03E
:1048D000B0E0EDE6F4E20C94AD27F82E762EE42E4F
:1048E000622E90910B0690FF67C0E92FE695AE2FE0
:1048F000B0E0A358BE4F8C918093CA059E7F923042
:1049000061F49E012F5F3F4F8F2D0E94C2234B8188
:1049100069818A810E943D233DC0823019F4E09074
:104920000E0638C0863019F4F0900C0633C089307A
:10493000D9F3893179F5E9518E2F8170582EE6959A
:10494000F0E0EC56F84FE4910E2F10E08FECC82EFB
:1049500085E0D82EA12CB12C9FE0892E912CC50189
:10496000B4010E9496278F2D511002C0860F01C0FE
:10497000861B96014E2D672D0E94C223A00EB11EEC
:1049800084E0C80ED11C8BE0C81686E0D80639F743
:104990000E941821F0920C0670920D06E0920E060D
:1049A000662051F060910B0670910C0680910D0607
:1049B00090910E060E9462232496EFE00C94C92782
:1049C000EBE0F6E043812CE0421B08F440E021E0FC
:1049D000628181810E9467240895EBE0F6E04381C3
:1049E0002CE0420F08F44FEF21E0628181810E94A8
:1049F00067240895EBE0F6E062812FEF621B08F474
:104A000060E021E0438181810E9467240895EBE00A
:104A1000F6E062812FEF620F08F46FEF21E043812F
:104A200081810E9467240895EBE0F6E0818121E016
:104A3000438162818C500E9467240895EBE0F6E088
:104A4000818121E043816281845F0E94672408950F
:104A500090910B0690FF36C09170811102C0926058
:104A600006C0853210F0986402C0880F982B90938E
:104A70000B06662351F060910B0670910C06809135
:104A80000D0690910E060E94622360910B066695BA
:104A900070E04BE050E08EE191E00E945C2A892BAF
:104AA00019F01092CB0502C00E94022181E0809390
:104AB000C70520E040910E0660910D0680910C061E
:104AC0000E9467240895EBE0F6E080818160808396
:104AD00060E086950E942825089561E00E942825BF
:104AE000089580910B068695815009F484E261E077
:104AF0000E942825089580910B0686958F5F853248
:104B000008F081E061E00E94282508958D3E39F487
:104B100090912A0697FF35C010922A0659C08E3E02
:104B200029F490912A061916BCF32BC090912906FE
:104B30008F3E29F497FF25C01092290649C0803F77
:104B400019F41916CCF31DC090912B06893F29F456
:104B50001916BCF410922B063BC08A3F19F497FF3C
:104B600010C0F8CF8B3F39F490912C0697FF09C005
:104B700010922C062DC08C3F21F490912C06191612
:104B8000BCF39FE0980F983080F421E030E0A90159
:104B900002C0440F551F9A95E2F7CA018095909183
:104BA000280689238093280613C08D3F21F4809125
:104BB00023068E7F0BC08E3F21F4809123068D7FCC
:104BC00005C08F3F29F4809123068B7F80932306B5
:104BD00080912906811106C080912A06811102C0A8
:104BE0001092220680912B06811106C080912C061E
:104BF000811102C01092210608958091230680FD44
:104C000018C081FD14C082FD16C080912106882342
:104C100081F08C3380F427E0829FC00111246CE383
:104C200070E00E940629862F672B19F005C083E0EB
:104C3000089581E0089587E008958091230680FD1E
:104C400017C081FD17C082FD19C0809122068823FC
:104C500099F08C3398F428E3829FC00111246CE30F
:104C600070E00E940629862F672B49F481E00895A1
:104C70008EE008958CE1089588E0089588E3089512
:104C80008D3E21F40E941D26819504C08E3E29F49C
:104C90000E941D2680932A0608958F3E21F40E94CB
:104CA0001D26819504C0803F29F40E941D26809313
:104CB00029060895893F19F40E94FD2505C08A3F01
:104CC00031F40E94FD25819580932B0608958B3F3A
:104CD00021F40E94FD25819504C08C3F29F40E9497
:104CE000FD2580932C0608959FE0980F983078F466
:104CF00021E030E0A90102C0440F551F9A95E2F768
:104D0000CA0190912806892B8093280608958D3F2B
:104D100021F48091230681600BC08E3F21F48091A5
:104D20002306826005C08F3F29F4809123068460AA
:104D30008093230608950E940720209129062111BF
:104D400004C020912A06222321F090932706809305
:104D5000260620912B06211104C020912C06222327
:104D600021F09093250680932406E0911306F0919C
:104D70001406309731F00480F581E02D88E296E04A
:104D8000099508951092B9008CE08093B8000895B9
:104D9000A0E0B0E0EEECF6E20C94B127B82EEB0107
:104DA0000E9407206C01C431D10558F0CF3F8FEF2E
:104DB000D80759F0CE0164E170E00E9496277B018C
:104DC00007C0EE24E394F12C03C025E0E22EF12C81
:104DD00084E8A82E94EA992E1092BC009092BC0010
:104DE0000E9407208C018091BC0087FD08C00E94B2
:104DF0000720801B910B8E159F05A8F32AC0809178
:104E0000B900887F883041F08091B900887F803177
:104E100019F00FEF1FEF1FC0B092BB00A092BC00B3
:104E20000E9407208C018091BC0087FD08C00E9471
:104E30000720801B910B8E159F05A8F30AC0809157
:104E4000B900887F883111F0803419F700E010E054
:104E50000EC00EEF1FEFCF3F8FEFD80709F4BCCF86
:104E6000C6010E94F81F8C179D0708F4B5CFC80132
:104E7000CDB7DEB7EBE00C94CD270F931F93CF9304
:104E8000DF93EB018093BB0084E88093BC000E9419
:104E900007208C018091BC0087FD0EC0CF3F8FEFB3
:104EA000D807C1F30E940720801B910B8C179D0728
:104EB00088F38EEF9FEF0CC02091B900287F81E02E
:104EC00090E0283211F480E090E09195819591096D
:104ED000DF91CF911F910F9108950F931F93CF935F
:104EE000DF93EC0184E88093BC000E9407208C01D2
:104EF0008091BC0087FD0EC0CF3F8FEFD807C1F374
:104F00000E940720801B910B8C179D0788F38EEF62
:104F10009FEF03C08091BB0090E0DF91CF911F9184
:104F20000F91089584E98093BC000895AA1BBB1BD0
:104F300051E107C0AA1FBB1FA617B70710F0A61B99
:104F4000B70B881F991F5A95A9F780959095BC01BA
:104F5000CD0108952F923F924F925F926F927F9270
:104F60008F929F92AF92BF92CF92DF92EF92FF9279
:104F70000F931F93CF93DF93CDB7DEB7CA1BDB0B25
:104F80000FB6F894DEBF0FBECDBF09942A883988CA
:104F900048885F846E847D848C849B84AA84B984D1
:104FA000C884DF80EE80FD800C811B81AA81B981DD
:104FB000CE0FD11D0FB6F894DEBF0FBECDBFED01F1
:104FC00008958F929F92AF92BF92CF92DF92EF920D
:104FD000FF92CF93DF93EC01688179818A819B8175
:104FE000611571058105910521F464E279ED8BE588
:104FF00097E02DE133EF41E050E00E949528490110
:105000005A019B01AC01A7EAB1E40E94B4286B01EC
:105010007C01ACEEB4EFA50194010E94C228DC0132
:10502000CB018C0D9D1DAE1DBF1DB7FF03C00197A9
:10503000A109B04888839983AA83BB839F77DF91B6
:10504000CF91FF90EF90DF90CF90BF90AF909F9067
:105050008F9008950E94E127089580E091E00E94DA
:10506000E1270895A0E0B0E0809300019093010152
:10507000A0930201B09303010895DC01CB01FC0170
:10508000F999FECF06C0F2BDE1BDF89A319600B4A1
:105090000D9241505040B8F70895F999FECF92BD56
:1050A00081BDF89A992780B50895A6E1B0E044E063
:1050B00050E00C943F28A8E1B0E042E050E00C94AE
:1050C0003F28DC01A40FB51F4150504048F0CB01F0
:1050D000840F951F2E910E94722841505040D0F7A6
:1050E0000895262FF999FECF92BD81BDF89A0197B8
:1050F00000B4021639F01FBA20BD0FB6F894FA9A20
:10510000F99A0FBE08950396272F0E9472280E94D5
:105110007128252F0E947228242F0C947228019642
:10512000272F0E9472280C947128052E97FB1EF4DD
:1051300000940E94AC2857FD07D00E94C72807FCA6
:1051400003D04EF40C94AC285095409530952195A1
:105150003F4F4F4F5F4F08959095809570956195A3
:105160007F4F8F4F9F4F08950E94E928A59F900D74
:10517000B49F900DA49F800D911D11240895B7FF39
:105180000C94B4280E94B428821B930B0895A1E2CA
:105190001A2EAA1BBB1BFD010DC0AA1FBB1FEE1FB1
:1051A000FF1FA217B307E407F50720F0A21BB30BFC
:1051B000E40BF50B661F771F881F991F1A9469F778
:1051C00060957095809590959B01AC01BD01CF01D4
:1051D0000895A29FB001B39FC001A39F700D811DD0
:1051E0001124911DB29F700D811D1124911D0895F0
:1051F00087FB082E062687FD819567FD61950E9435
:105200002F290EF4919507FC8195089597FB072EA1
:1052100016F4009407D077FD09D00E94962707FC6A
:1052200005D03EF4909581959F4F089570956195B6
:105230007F4F0895EE0FFF1F0590F491E02D099424
:105240000E94E928332312F48A1B9B0B0C942A2911
:105250000E94E928B7FF0895821B930B0895991BBC
:1052600079E004C0991F961708F0961B881F7A955D
:10527000C9F7809508950F931F93CF93DF938230E2
:10528000910510F482E090E0E0912F06F091300655
:1052900020E030E0A0E0B0E0309719F1408151818A
:1052A0000281138148175907C8F08417950769F4DC
:1052B000109731F012960C93129713961C9327C0F7
:1052C00000932F061093300622C02115310519F0E6
:1052D0004217530718F49A01BD01EF01DF01F801ED
:1052E000DBCF21153105F9F0281B390B24303105AE
:1052F00080F48A819B816115710521F0FB01938304
:10530000828304C09093300680932F06FE0132966C
:1053100044C0FE01E20FF31F8193919322503109A3
:10532000398328833AC020912D0630912E06232BF5
:1053300041F4209106013091070130932E0620930D
:105340002D0620910401309105012115310541F40C
:105350002DB73EB74091080150910901241B350B30
:10536000E0912D06F0912E06E217F307A0F42E1B14
:105370003F0B2817390778F0AC014E5F5F4F2417B9
:10538000350748F04E0F5F1F50932E0640932D06B1
:105390008193919302C0E0E0F0E0CF01DF91CF91E3
:1053A0001F910F910895CF93DF93009709F481C067
:1053B000FC01329713821282A0912F06B091300621
:1053C000109781F420813181820F931F20912D0647
:1053D00030912E062817390751F5F0932E06E093E9
:1053E0002D0667C0ED0120E030E0CE17DF0740F466
:1053F0004A815B819E0141155105F1F0EA01F5CF2B
:10540000D383C28340815181840F951FC817D90768
:1054100059F488819981840F951F02969183808326
:105420008A819B81938382832115310529F4F0932E
:105430003006E0932F063DC0E901FB83EA834991E2
:105440005991C40FD51FEC17FD0761F4808191813C
:10545000840F951F0296E901998388838281938145
:105460009B838A83E0E0F0E012968D919C911397E4
:10547000009719F0FD01DC01F7CF8D919C911197F8
:105480009D012E5F3F4F820F931F20912D0630917B
:105490002E062817390769F4309729F41092300640
:1054A00010922F0602C013821282B0932E06A09390
:1054B0002D06DF91CF910895FC014150504030F00E
:1054C00001900616D1F73197CF01089588279927C3
:1054D0000895FB01DC0104C08D910190801921F435
:1054E00041505040C8F7881B990B0895F894FFCF9E
:1054F000010000000000310620009E04A40101E527
:105500001E081FE91EE809E309E20901200001194C
:105510001A1B1C1D1E1F2021220102014022476D63
:10552000CA01A8016101F4001C02350255026E0295
:10553000623764456A2F446C4E475000818283E293
:1055400000E900EA00B500B600B700CD008301CC49
:10555000008A0192019401210223022402250226DD
:105560000227022A02B300B4006F0070000001029B
:105570000202020606060909090909090F0F0F0FA1
:105580000F0F1515151819191919191919191919AC
:025590002324D2
:00000001FF
