:100000000C94CB030C94E8030C94E8030C94E803E1
:100010000C94E8030C94E8030C94E8030C94E803B4
:100020000C94E8030C94E8030C940C130C9429171B
:100030000C9472290C94E8030C94E8030C94E803E4
:100040000C94E8030C94E8030C94E8030C94E80384
:100050000C94E8030C94E3130C94E8030C94E80369
:100060000C94E8030C94E8030C94E8030C94E80364
:100070000C94E8030C94E8030C94E8030C94E80354
:100080000C94E8030C94E8030C94E8030C94E80344
:100090000C94E8030C94E8030C94E8030C94E80334
:1000A0000C94E8030C94E8030C94E8030501098020
:1000B000A101850319012AB700150126B700950192
:1000C00075108100C0050C0901A101850419012AE0
:1000D000A002150126A002950175108100C005013E
:1000E0000906A1018505050719E029E71500250185
:1000F0009508750181020507190029EF15002501F2
:1001000095F075018102050819012905950575010C
:100110009102950175039101C005010902A1010930
:1001200001A100050919012905150025019505758D
:10013000018102950175038101050109300931151D
:1001400081257F95027508810609381581257F95DF
:100150000175088106050C0A38021581257F950175
:1001600075088106C0C005010906A101050719E04F
:1001700029E715002501950875018102950175088B
:1001800081010507190029FF150026FF0095067556
:100190000881000508190129059505750191029549
:1001A0000175039101C0000101010101010101017B
:1001B0000202020202020202020303030303030318
:1001C00003040404040404040505050505060606E5
:1001D0000606070707070708080808090909090AA2
:1001E0000A0A0B0B0B0C0C0C0D0D0D0E0E0E0F0F47
:1001F0000F101011111112121313141415151616D5
:100200001717181819191A1A1B1B1C1D1D1E1E1F43
:100210002020212222232424252626272829292A92
:100220002B2C2D2D2E2F30313232333435363738BA
:10023000393A3B3C3D3E3F404142434445464748B6
:10024000494A4C4D4E4F50515354555658595A5B8C
:100250005D5E5F616264656668696B6C6D6F70722C
:10026000737577787A7B7D7E8082838587888A8C98
:100270008E8F91939596989A9C9EA0A2A3A5A7A9CC
:10028000ABADAFB1B3B5B7BABCBEC0C2C4C6C9CBC3
:10029000CDCFD1D4D6D8DBDDDFE2E4E7E9EBEEF079
:1002A000F3F5F8FAFDFFFFAA7F5540222325262803
:1002B000292A2C2D2F3032333536383A3B3D3E40FB
:1002C00042434547494A4C4E5051535557595A5C41
:1002D0005E6062646668696B6D6F71737577797B58
:1002E0007D7F81838587898A8C8E90929496989A57
:1002F0009C9E9FA1A3A5A7A8AAACAEAFB1B3B4B66C
:10030000B8B9BBBCBEBFC1C2C3C5C6C7C9CACBCCC6
:10031000CDCED0D1D2D2D3D4D5D6D7D7D8D9D9DA99
:10032000DADBDBDBDCDCDCDCDCDDDDDDDDDCDCDC0E
:10033000DCDCDBDBDBDADAD9D9D8D7D7D6D5D4D336
:10034000D2D2D1D0CECDCCCBCAC9C7C6C5C3C2C10B
:10035000BFBEBCBBB9B8B6B4B3B1AFAEACAAA8A768
:10036000A5A3A19F9E9C9A98969492908E8C8A8920
:10037000878583817F7D7B79777573716F6D6B69FD
:1003800068666462605E5C5A5957555351504E4CD2
:100390004A4947454342403E3D3B3A383635333281
:1003A000302F2D2C2A29282625232224022B002910
:1003B000000151E00000002F00330004003461E22E
:1003C000004D002F02360012001400E300E300305D
:1003D00002370008000D0050002A00260213001802
:1003E000000E004F004A002E001C000C001B0000F5
:1003F00000C35C210202530000000F0000CB5C1F11
:10040000020253000000070000CA5C250209000731
:1004100000050000002D5D27020A000B00100052AD
:10042000004B002E02060017001A0051002C00306D
:1004300000150011001900060828001E020F001602
:10044000001D7119084E00200238002D00015131A5
:1004500000000022022B0229020100E00200002419
:1004600000330204023402E2024D0222003602127C
:10047000021402E302E3022000370208020D020127
:10048000002A021E00130218020E0201004A022670
:10049000001C020C021B020000C45C3502010000BB
:1004A0000001000000CD5C230201000000010000FB
:1004B00000CC5C2700090207020502000001001FB2
:1004C000000A020B02100201004B02210006021773
:1004D000021A0201002C0223001502110219020166
:1004E00000280225000F0216021D0201004E0235EF
:1004F0000038022D02010031020000010001002B32
:10050000000100010000003A00A800AA000100005C
:100510005C045D3B00AC00F20001000100F5003C12
:1005200000F000F10001005000F4003D00AB00F3CA
:100530000001004F0001003E000100A90001000081
:100540000001003F0001000000095D0000A600401E
:100550000001000000095D0000A50041002A002AFA
:10056000002A000000065D4200240021001E002732
:100570000001004300250022001F003600FA00445D
:10058000002600230020003700F90045002502570F
:10059000002E000100055D01003800280001000167
:1005A00000000032190A00047F3F1F6432146432D5
:1005B00014783C1E1E140A050A0000000000030601
:1005C000B200080001000000A800080002000300BB
:1005D000A0001400030057494E555342000000008C
:1005E0000000000000008400040007002A0044000E
:1005F0006500760069006300650049006E007400C4
:1006000065007200660061006300650047005500E8
:10061000490044007300000050007B003900440092
:100620004200370046003100460044002D003700EC
:100630004500370041002D00340030003000380004
:100640002D0039003300360042002D0036004200F4
:1006500041003600430031003900410033003000D2
:10066000380063007D00000000001B0301636F6E13
:100670006669677572652E6572676F646F782D6540
:100680007A2E636F6D0009026B00040100A0FA0965
:1006900004000001030101000921110100012240B1
:1006A000000705810308000A090401000103010293
:1006B00000092111010001224D00070582030800F5
:1006C0000A090402000103000000092111010001D0
:1006D000226D000705830320000A0904030002FFBE
:1006E00000000007058403400005070505034000DE
:1006F000051201100200000008973275490100013F
:1007000002000122034500720067006F0044006F81
:10071000007800200045005A00200053006800695E
:10072000006E006500000030035A005300410020B5
:100730000054006500630068006E006F006C006F7D
:10074000006700790020004C006100620073002007
:100750000049006E006300000004030904050F391E
:1007600000021C100500DF60DDD88945C74C9CD213
:10077000659D9E648A9F00000306B2004500181024
:10078000050038B60834A909A0478BFDA076881566
:10079000B6650001420011241FBECFEFDAE0DEBFD4
:1007A000CDBF26E0A0EAB1E001C01D92AB36B20792
:1007B000E1F711E0A0E0B1E0E2E5FAE502C0059062
:1007C0000D92A03AB107D9F70E94E7240C94E82CC7
:1007D0000C940000E8EDF0E080818E7F8083109221
:1007E000E2001092DA001092E100A0EEB0E08C91ED
:1007F00081608C9380818F77808319BCA7EDB0E0F6
:100800008C918E7F8C9380818F7E808310923506B1
:1008100008952091E4003091E50095E6A90120912A
:10082000EC00822F817020FF06C08091E80080FFDD
:1008300006C080E008952091E80022FD1AC0809152
:100840005A06882389F0853089F08091EB0085FD78
:100850000FC02091E4003091E50042175307F9F2F0
:100860009150E1F684E0089582E0089583E00895D0
:1008700081E00895EF92FF920F931F93CF937C0135
:100880008B010E940904C82F882371F08C2FCF910F
:100890001F910F91FF90EF900895F70181917F01D3
:1008A0008093F100015011090115110579F3809130
:1008B000E80085FDF2CF8091E8008E778093E80014
:1008C0000E940904882381F3C82FE0CF80915C0641
:1008D00087FF13C08091E80082FF06C08091E80086
:1008E0008B778093E80004C080915A068111F2CF83
:1008F000089580915A068823D9F38091E80080FFFB
:10090000F8CF8091E8008E77ECCF982F9093E90094
:10091000242F762F50E0891731F07091EC00209150
:10092000ED005091F00021FD07C09F5F973071F7F7
:100930008093E90081E008953091EB003E7F309391
:10094000EB003091ED003D7F3093ED003091EB00F6
:1009500031603093EB007093EC002093ED005093E6
:10096000F0002091EE0027FDE0CF80E00895CF92C7
:10097000DF92EF92FF920F931F93CF93DF93C8ED17
:10098000D0E088818F7E8883E7EDF0E08081816010
:10099000808384E082BF81E08093350688818E7FEA
:1009A000888302EE10E0F80110821092DA0081EEE6
:1009B000C82ED12CF601108288818F778883888198
:1009C0008068888388818F7D888319BC10925A063D
:1009D00010925B06109259061092580690EEE92E7E
:1009E000F12CF70180818B7F8083888181608883EF
:1009F00042E060E080E00E948504F60180818E7F05
:100A00008083F80180818160808380818860808319
:100A1000F70180818E7F8083888180618883DF9168
:100A2000CF911F910F91FF90EF90DF90CF9008959D
:100A3000FC01809162069091630686179707A0F0EB
:100A40006115710529F48091E8008E778093E800A4
:100A500090E06115710551F4911108C08091E80092
:100A600082FF35C080E00895BC01F2CF80915A0624
:100A70008823C9F18530C9F18091E80083FD31C038
:100A80008091E80082FDEACF8091E80080FFE1CF0D
:100A90008091F3002091F200382F6115710519F053
:100AA0002830310558F091E02830310509F090E008
:100AB0008091E8008E778093E800CBCF849180937B
:100AC000F1003196615071092F5F3F4FE6CF809161
:100AD0005A06882341F0853041F08091E80083FF79
:100AE000BDCF81E0089582E0089583E00895FC0180
:100AF000809162069091630686179707A0F06115B2
:100B0000710529F49091E8009E779093E80090E0B9
:100B10006115710551F4911108C08091E80082FFC0
:100B200034C080E00895BC01F2CF80915A0688233A
:100B3000C1F18530C1F18091E80083FD30C0809122
:100B4000E80082FDEACF8091E80080FFE1CF80914C
:100B5000F3002091F200382F6115710519F028304B
:100B6000310558F091E02830310509F090E02091EE
:100B7000E8002E772093E800CBCF81918093F1009D
:100B8000615071092F5F3F4FE7CF80915A0688234C
:100B900041F0853041F08091E80083FFBECF81E0D5
:100BA000089582E0089583E00895089580913706BE
:100BB000089520915A06243091F42093E90070E0C2
:100BC00050E040E00E943A04882321F0109233065E
:100BD000109234068091E8008E778093E8000895A3
:100BE00090911A06803F59F480911B0687FF0DC033
:100BF00010921B0691110BC01092160608C0813F7F
:100C000081F480911B0618169CF3992381F0809142
:100C10001C0690911D06892B09F064C010921306E2
:100C20000895823F49F497FFF0CF10921A06809101
:100C30001B068111ECCFE0CF833F19F41916ACF3FA
:100C4000E4CF20911C06893F29F41216F4F6109285
:100C50001C06DBCF8A3F19F427FFD7CFF8CF2091AE
:100C60001D068B3F29F427FFD0CF10921D06CDCF54
:100C70008C3F19F41216CCF3C8CF843F31F4809125
:100C800019068E7F80931906C0CF853F21F480918D
:100C900019068D7FF7CF863F21F4809119068B7F4F
:100CA000F1CF873F21F480911906877FEBCF883FF2
:100CB00021F4809119068F7EE5CF8D3F31F480912C
:100CC000DB058E7F8093DB05A0CF8E3F21F48091E2
:100CD000DB058D7FF7CF8F3F09F097CF8091DB0544
:100CE0008B7FF0CF08958091DB0580FD1AC081FDD8
:100CF00014C082FD14C080911306882391F08C33B8
:100D000070F427E0829FC00111246CE370E00E9420
:100D1000802A862F672B29F0089583E0089587E0C5
:100D2000089581E008958091DB0580FD16C081FD66
:100D300016C082FD18C080911606882391F08C336E
:100D400090F423E2829FC00111246CE370E00E94C2
:100D5000802A862F672B49F0089588E0089581E165
:100D6000089585E0089583E2089581E00895803F25
:100D700031F40E949306819580931B060895813F6C
:100D800019F40E949306F8CF823F31F40E94930633
:100D9000819580931A060895833F19F40E94930663
:100DA000F8CF893F29F40E94730680931C060895AA
:100DB0008A3F21F40E9473068195F7CF8B3F31F46F
:100DC0000E947306819580931D0608958C3F19F447
:100DD0000E947306F8CF843F31F480911906816038
:100DE000809319060895853F21F480911906826049
:100DF000F7CF863F21F4809119068460F1CF873FB9
:100E000021F4809119068860EBCF883F21F480910E
:100E100019068061E5CF8D3F31F48091DB0581605B
:100E20008093DB0508958E3F21F48091DB0582607D
:100E3000F7CF8F3FB9F78091DB058460F1CF9C013C
:100E40004FB7F8948091D7059091D805A091D90516
:100E5000B091DA054FBF821B930B089520912801B2
:100E60002223C9F02091F00527FF15C0E62FE69553
:100E7000E695E695EE31D8F4E80FF92FF11D67708D
:100E800021E030E001C0220F6A95EAF720958281C7
:100E9000282322830895FC0132960896219162133B
:100EA00003C0DF0111971C92E817F907B9F70895FD
:100EB000209128012223C1F02091F00527FF14C0C2
:100EC000E62FE695E695E695EE31F8F4E80FF92F72
:100ED000F11D677021E030E001C0220F6A95EAF74A
:100EE0008281822B82830895FC0132962FEF30E0BD
:100EF0004191641751F02F3F19F4411101C0232F84
:100F00003F5F3630A9F72F3F09F40895820F911DF6
:100F100027FD9A95FC0162830895CF92DF92EF92AC
:100F2000FF926C01EE24FF2420E0C114D104E104FF
:100F3000F10419F0C701B60120E1C72ED82EE92E21
:100F4000FF24C114D104E104F10419F0285FC701A2
:100F5000B6016B017C0154E0F694E794D794C794F2
:100F60005A95D1F7C114D104E104F10419F02C5FB2
:100F7000C701B6016B017C0142E0F694E794D79477
:100F8000C7944A95D1F7C114D104E104F10419F0D2
:100F90002E5FC701B6019695879577956795672B64
:100FA000682B692B09F02F5F822FFF90EF90DF9065
:100FB000CF9008958091D20581111092D2050895A5
:100FC0008091D1059091D005892B9091CF05892BE7
:100FD0008093A0019091D2059923A1F0892B809351
:100FE000A00180912801882341F18091F00587FFBD
:100FF00024C08EE1E2EAF1E090E0815000F5911129
:101000000E94DA07E091F305F091F4053097E1F0E2
:1010100080912801882359F08091F00587FF07C04F
:101020008091A0018093A10185E08093A0010280BE
:10103000F381E02D80EA91E0099486E0DBCF2191F5
:101040002223D9F29F5FD9CF0895E92FEE0FE90F40
:10105000EE0F8E0F982F977086958695869525E0D2
:10106000829FF0011124E956FA4F50E040E080E001
:10107000219130E0092E02C0369527950A94E2F7B7
:1010800021703327042E01C0220F0A94EAF7822B25
:101090004F5F5F4F4530510559F70895E92FEE0F27
:1010A000E90FEE0F8E0F982F977041E001C0440FAB
:1010B0009A95EAF786958695869595E0899FF00141
:1010C0001124E956FA4F30E020E070E05191DF0141
:1010D0001197CB01022E02C0969587950A94E2F7EC
:1010E000817081958527842385278C932F5F3F4FBF
:1010F0002530310559F70895809196059091650541
:10110000981301C008958F5F8770FACF882341F04C
:1011100080959091D10589238093D1050C94E007A7
:101120000895882339F09091D105982B9093D1059B
:101130000C94E00708952091570230915802281727
:10114000390771F09093580280935702E091F305AC
:10115000F091F405309721F00084F185E02D099499
:10116000089520915502309156022817390771F0E1
:101170009093560280935502E091F305F091F405A7
:10118000309721F00680F781E02D09940895E091D1
:10119000F305F091F405309721F00190F081E02DF6
:1011A000099480E00895FA01811101C0FB010994BE
:1011B00080910C06982F9E7F29F481708260809325
:1011C0000C0608958635E8F381708465F8CFAF92F8
:1011D000BF92DF92EF92FF920F931F93CF93DF9313
:1011E000082F162FE901E42FF0E0EA55FE4F6111B8
:1011F00011C0E4915E2F4E2F4983E8835A831B82EE
:10120000DF91CF911F910F91FF90EF90DF90BF90F2
:10121000AF900895E62EF12C4491D42EE42FF0E007
:1012200026E0829FC00111242FEF30E0B9010E9417
:101230006C2A802F90E0880F991F55E5569FD001AA
:10124000579FB00D11248A1B9B0B982F990F890F64
:101250005901AE18BF08AE9ED001AF9EB00DBE9E24
:10126000B00D11245B2F189F80011124012F11272D
:101270005901A01AB10AAE9E8001AF9E100DBE9E0C
:10128000100D11245901A81AB108AE9CC001AF9CE1
:10129000900DBE9C900D1124892F9927281B390B86
:1012A0002E9FC0012F9F900D3E9F900D1124E92F7E
:1012B00062307105A1F050F46115710509F49CCFFD
:1012C0006130710581F0EB2F512F96CF643071059D
:1012D00069F080F06630710509F48ECFF4CFE42F09
:1012E0004B2F592F89CFE42F412F86CFEB2F542F2F
:1012F000492F82CF4B2F5D2DE12F7ECF9091F005AE
:1013000092FF06C0282F28712830F9F4877F846067
:1013100093FF06C0282F28712831F1F4877E84615D
:101320002091F10520FF06C0382F38713830D9F4EC
:10133000877F816021FF06C0282F28712831D1F4D2
:10134000877E816194FD877E0895282F2471243043
:10135000F9F68B7F8860DCCF282F2471243101F7C8
:101360008B7E8861DDCF382F3171313019F78E7F58
:101370008860E0CF282F2171213121F78E7E88618E
:10138000E1CFCF93DF93972F70E026E0929F600D1F
:10139000711D1124FB0134E5839FE00DF11D112423
:1013A000EE0FFF1FE555FC4FC591D491CE01C23819
:1013B000D105B9F1E8F5C133D10509F499C050F56B
:1013C000C932D10509F48DC0CA32D10509F497C0DC
:1013D000C11521E5D20708F0BFC0C11530E5D3071C
:1013E00008F016C1C83ED10508F09DC0C03ED10529
:1013F00068F5C83AD10508F089C0C53AD10508F0AA
:10140000FFC0C130D10511F1209709F443C02497E2
:10141000E8F440C0C533D10509F45CC0C933D10537
:10142000B9F62091F005237089F080EE90E00EC0AF
:10143000C33ED10591F168F4C03ED105F9F0C23E3A
:10144000D10531F62091F00522FD20C0DF91CF912A
:101450000895C63ED10561F1C73ED10581F1C43E74
:10146000D10509F0B5CF2091F10521FFEFCF809193
:10147000F00584FD0FC087EE90E0E8CF2091F005E5
:1014800020FD12C13091F10530FFE0CF83EE90E0F6
:1014900024FFDCCF90E080E0D9CF2091F00522FD41
:1014A00006C13091F10530FDC0CF24FFCFCFF2CF80
:1014B0002091F00523FFCACF24FDECCFDCCF209193
:1014C000F00523FDF7C03091F10531FFEECF84EE3A
:1014D00090E0BCCF2091F00525FFB8CF89E290E0E5
:1014E000B5CF2091F00525FFB1CF85E390E0AECFD9
:1014F0002091F00526FFAACF8AE290E0A7CF2091A5
:10150000F00526FFA3CF81E390E0A0CFCF3BD1052C
:1015100008F6C85AD0E0CC0FDD1FCD59DE4F8881C8
:101520009981946493CFC11520E2D20760F4C1156C
:1015300031E0D30708F08ACFCE019065C03FD105D6
:1015400008F084CFA7CFC11580E4D80708F4A2CF54
:10155000CE019F70906A7ACFC11595E5D90710F535
:10156000C11524E5D20708F088C0C11533E5D307BB
:1015700008F06FC0C11582E5D80708F465C09E0168
:101580002370332781E090E002C0880F991F2A95CD
:10159000E2F7C695C69520E2C29FE00111248C2B8C
:1015A0009D2B50C0C11599E5D907A0F4C11528E5B8
:1015B000D20708F067C0C11536E5D30708F06ACF37
:1015C0008C2F0E947E0990E0982F882788279F7192
:1015D00090623CCFC1158AE5D80708F458C0CE0107
:1015E00090568115904208F055CF8D2F8F710E9433
:1015F0007E0990E0982F882788279F718C2BE8CF51
:10160000C55AD0E0C05ADE4F888190E090641ECF6A
:101610009E01E4E036952795EA95E1F723708C2F3B
:1016200086958695837030E2839FC0011124922BAA
:10163000C37021E030E002C0220F331FCA95E2F7E9
:10164000822B932B9C6802CF9C2F8827816F906AF6
:10165000FDCE9E012370332781E090E002C0880F09
:10166000991F2A95E2F7C695C69530E2C39FE0011F
:1016700011248C2B9D2B9A68E9CE9C2F8827846F90
:10168000906AE4CE9C2F8827806F906ADFCE8C2FE3
:101690008F700E947E0934E0D695C7953A95E1F7A0
:1016A000CF709C2F9069D2CE89E390E0CFCE82EEAE
:1016B00090E0CCCE86EE90E0C9CEBF92CF92DF9282
:1016C000EF92FF920F931F93CF93DF938C01C09003
:1016D0002E06D0902F06E0903006F09031068091D3
:1016E000D3059091D405A091D505B091D605C82A0F
:1016F000D92AEA2AFB2ACFE1D0E0BC2ED701C601C5
:101700000C2E04C0B695A795979587950A94D2F7A5
:1017100080FD0EC0219788F7B12C8B2DDF91CF91E2
:101720001F910F91FF90EF90DF90CF90BF900895A1
:10173000B8018C2F0E94C109019761F3EECFCF93BE
:10174000DF93EC010E945D0BBE01DF91CF910C9401
:10175000C1090E949F0B292F2F7092959F70925064
:101760009E3078F4E92FF0E0E651F34D0C94942A82
:10177000803F19F020F4883E20F481E00895843FF2
:10178000E1F380E00895883EC0F3813FD1F7F5CFC3
:10179000822F869586958695089527982F98089587
:1017A00026982E98089525982D98089556985E9815
:1017B0000895279A2F9A0895269A2E9A0895259A81
:1017C0002D9A0895209828982198299822982A9847
:1017D00023982B9852985A9853985B983E9846981D
:1017E00008958098889A8198899A84988C9A859887
:1017F0008D9A86988E9A87988F9A0895CF93DF93C3
:1018000000D00F92CDB7DEB790915A06943019F5FB
:1018100089837B836A8383E08093E9008FEF9091D3
:10182000E800815095FD06C095ED9A95F1F700000E
:101830008111F5CF8091E80085FF0DC050E040E0B8
:1018400063E070E0CE0101960E943A048091E800C6
:101850008E778093E8000F900F900F90DF91CF91DB
:101860000895BC0184E00C94FE0BBC0183E00C9451
:10187000FE0B9C0182E08093E9009FEF8091E800DD
:10188000915085FD06C085ED8A95F1F70000911114
:10189000F5CF8091E80085FF0CC050E040E065E0A6
:1018A00070E0C9010E943A048091E8008E7780932D
:1018B000E8000895CF93DF93EC01809128018823FD
:1018C000B1F18091F00587FF32C060E283E0809340
:1018D000E9008FEF9091E800815095FD06C095EDED
:1018E0009A95F1F700008111F5CF8091E80085FF0E
:1018F0001BC08091280170E050E040E0811104C0DD
:1019000050E040E068E070E0CE010E943A0480912F
:10191000E8008E778093E80080E2FE01A8E3B6E05D
:1019200001900D928A95E1F7DF91CF91089568E0DB
:1019300081E0CDCFEF92FF920F931F93CF93DF9370
:101940000E94D60B0E94D30B0E94D00B0E94CD0B9D
:1019500088E8E82EF12C8FEF90E0F70191838083E7
:101960000AE810E0F80191838083CCE8D0E0998305
:1019700088830E94DF0BFFEF20E782E0F1502040D8
:101980008040E1F700C000000E94DC0B9FEFE0E721
:10199000F2E09150E040F040E1F700C000000E940A
:1019A000D90B2FEF80E792E0215080409040E1F783
:1019B00000C000000E94D30BEFEFF0E722E0E150FF
:1019C000F0402040E1F700C000000E94D00B8FEFF4
:1019D00090E7E2E081509040E040E1F700C0000075
:1019E0000E94CD0B8091DE058770FFEF8F9FC001B5
:1019F000112495958795959587959927F70191835A
:101A00008083F80191838083998388830E94D60B19
:101A10000E94D30B0E94D00BDF91CF911F910F91A9
:101A2000FF90EF900C94CD0BCF9384E090E00E9458
:101A30003D2CC82F81E290E00E943D2C982F8C2FE6
:101A4000CF910895CF92DF92EF92FF926B017C01CC
:101A50000E94D808B701A60188E090E0FF90EF90BF
:101A6000DF90CF900C94632C80911006882319F09E
:101A700081508093100660910C0670910D06809144
:101A80000E0690910F060C94220D80911006833063
:101A900018F48F5F8093100660910C0670910D060C
:101AA00080910E0690910F060C94220DECE0F6E06A
:101AB00083E0808311828FEF82838383148260812D
:101AC0007181828193810C94220D6FEE7EEF90E004
:101AD00080E00E946F2C60E082E090E00E94512C38
:101AE00060E083E090E00E94512C1092D3051092A8
:101AF000D4051092D5051092D60560E084E090E000
:101B00000E94512C60E081E290E00E94512C60E044
:101B100085E090E00E94512C60E086E090E00E9419
:101B2000512C6FEF87E090E00E94512C40E050E094
:101B3000BA0188E090E00E94632C60E08DE090E0C4
:101B40000E94512C40E050E0BA0188E190E00E94F0
:101B5000632C60E087E190E00E94512C40E050E06F
:101B6000BA018CE190E00E94632C60E080E290E09A
:101B70000E94512C40E050E0BA0188E190E00E94C0
:101B8000632C1092DE051092DF051092E005109292
:101B9000E10584E080618093DE054091DE0550918F
:101BA000DF056091E0057091E1058FE090E00E9413
:101BB000632C40E050E0BA0183E190E00C94632C88
:101BC000CF93C82F873070F580911C0190911D0133
:101BD000892B89F564E670E080E40E949F29909348
:101BE0001D0180931C01892BD1F464E670E082E131
:101BF0000E94FB2990931D0180931C01892B79F48D
:101C000081E090E001C0880FCA95EAF764E670E0D1
:101C100080950E94FB2990931D0180931C01CF9118
:101C20000C944E2A8A30B9F040F4883071F0893033
:101C300079F0209A2898CF9108958C3091F070F027
:101C40008D30B9F73E9A4698F6CF219A2998F3CF6E
:101C5000229A2A98F0CF239A2B98EDCF529A5A982D
:101C6000EACF539A5B98E7CFCF93DF9380910C062E
:101C700080FD0BC0EEECF1E0118210821282138223
:101C8000349652E0EA30F507B9F7CEECD1E0FE0128
:101C9000928120813181892F291708F4822F3817EA
:101CA00008F4832F8383381B3183281B2083981BE0
:101CB0009283349682E0EA30F80751F70E9499291E
:101CC00064E670E084E80E949F2964E670E0888101
:101CD0000E94FB2964E670E089810E94FB2964E68A
:101CE00070E08A810E94FB2964E670E08B810E948B
:101CF000FB29249692E0CA30D90739F70E944E2A70
:101D0000579A3BB13F772BB120684FB7F8948EECD0
:101D100091E0FC015191CF0168E02BB9000000C0B7
:101D200057FF3BB9550F000000C000C000C03BB9D1
:101D300000C06A9591F7F2E08A309F0751F74FBFD4
:101D40008FE594E00197F1F700C00000DF91CF919B
:101D500008958F929F92AF92BF92CF92DF92EF92AF
:101D6000FF920F931F93CF93DF93FC01B280948077
:101D700081E08483CAE0D2E00EEC11E08BE4A82E6F
:101D800088248394EE24EA94F12C2BE4C22ED12CE7
:101D900091101DC01B821A8298014A816981888135
:101DA0000E94E70825960C5F1F4F82E0C535D807D3
:101DB00079F7DF91CF911F910F91FF90EF90DF9016
:101DC000CF90BF90AF909F908F900C94340E2B814A
:101DD000222309F121502B833C818A2D821B311152
:101DE00001C0822F90910F06899FC0011124B60176
:101DF0000E946C2A6A83211104C0332311F01C82D3
:101E0000AB8222E02B1540F280910D0688838091F1
:101E10000E068983C1CF0E94F52A823091400CF0D2
:101E2000BBCF82E08B15C0F40E94F52AB7010E9457
:101E3000802A888322E02B1590F40E94F52A2091B5
:101E40000E062695622F70E00E94802A280F2983B3
:101E50001A82AB828C82A0CF80910D06EACF2091AE
:101E60000E06F5CFEF92FF921F93CF93DF93EC0115
:101E70008EECE82E81E0F82E10E08C8197014091E5
:101E80000F0660910E06810F0E94E7081F5E84E036
:101E9000E80EF11C1F3F89F70E94340E9A818C8155
:101EA00090FF08C08F5F8C83DF91CF911F91FF90CF
:101EB000EF9008958150F7CFBF92CF92DF92EF92CB
:101EC000FF920F931F93CF93DF93FC018281DD2458
:101ED000DA9480FD02C0DD24D3940EEC11E0D0E052
:101EE000C0E02FE0B22EF80111821082128213821C
:101EF00094E0E92EF12CC12C8091CB018C0D803126
:101F00000CF43DC06B2D0E945E2A892F082E000C18
:101F1000990B8C179D0791F480910F068E9DA0015F
:101F20008F9D500D112455954795559547959801CE
:101F300060910E0680910D060E94E708CD0CF1E03D
:101F4000EF1AF108C9F621960C5F1F4FCF30D1056B
:101F500051F60E94340E8091CB0191E0D91215C048
:101F6000811111C08EE08093CB01DF91CF911F9141
:101F70000F91FF90EF90DF90CF90BF90089587FF73
:101F8000C5CF815FC3CF8150EECF90E00196BE01F7
:101F90000E94802AE8CF0F931F93CF93DF93CEEC5C
:101FA000D1E0FE011182108212821382349682E007
:101FB000EA30F807B9F710E000E08091CC01082E74
:101FC000000C990B081719078CF180911601082E47
:101FD000000C990B801791074CF19E0140910F0660
:101FE00060910E0680910D060E94E7080F5F1F4F5B
:101FF00024960F30110509F70E94340E80911501C7
:102000009091CC01980F9093CC0120911601280F4C
:1020100020931601121614F49E301CF081958093C3
:102020001501DF91CF911F910F91089519821882A8
:102030001A821B82DBCF8F929F92AF92BF92CF9278
:10204000DF92EF92FF920F931F93CF93DF93EC01F8
:102050004C81042F10E09801D8010E94D92C9B01DB
:10206000AC010E94A42C4B015C01E0E2F0E0E01B1B
:10207000F10BA5E5B0E0AC019B010E94A42C6B0123
:102080007C019F01DF010E949A2A9B01AC010E9402
:10209000AF2C9B01AC01280D391D4A1D5B1DC701EA
:1020A000B6010E94B72CF22E822F90E039E23F1544
:1020B000D8F143E0249F9001112435952795122FE4
:1020C00010959EECC92E91E0D92E00E085E5E82E12
:1020D000EF188E2D01FD8F2D9601412F60910E0678
:1020E0000E94E7080F5F54E0C50ED11C0F3089F73E
:1020F0000E94340E9C8181E0992319F0903219F4EA
:102100008FEF8093170180911701890F8C83DF91E6
:10211000CF911F910F91FF90EF90DF90CF90BF90E4
:10212000AF909F908F90089525E530E0A901481B5E
:10213000590BCA019A01220F331F280F391F37FF8D
:10214000BCCF2F5F3F4FB9CFEF92FF920F931F93FA
:10215000CF93DF938C01CEECD1E0F12CE12CF80190
:10216000948160910E0680910D06F7E0EF16F10460
:10217000FCF49923F9F09E0140910F060E94E708B4
:102180002FEFE21AF20A24968FE0E816F10439F7ED
:102190000E94340EF801848190E0019681709927A5
:1021A0008483DF91CF911F910F91FF90EF9008955D
:1021B000992309F39E0140E0E1CF90910C0690FF36
:1021C0000DC0EEECF1E0818360834283138234968C
:1021D00092E0EA30F907B9F70C94340E08950F93A2
:1021E0001F93CF93DF9300D000D0CDB7DEB78C0123
:1021F0008091CD0181110AC09E012F5F3F4F4FEFAB
:102200006FEF0E94E7088A818093CD01F801648115
:10221000613069F08091CD0140E0662361F040E0DB
:10222000623011F44091CD0180E060E004C0609123
:10223000CD0140E080E00E94DD10F801848190E053
:10224000019663E070E00E94802A84830F900F90D3
:102250000F900F90DF91CF911F910F910895CF9321
:10226000DF9300D000D0CDB7DEB790910C0690FF81
:102270000AC09E012F5F3F4F0E94E7084B81698192
:102280008A810E94DD100F900F900F900F90DF91C8
:10229000CF910895CF93DF93EC01EC81F0E0E55509
:1022A000FD4F4491ECE0F6E0628181810E942F11A4
:1022B0008C818F5F8C83DF91CF910895CF93DF93D3
:1022C000EC01ECE0F6E0438162818C810E942F11E9
:1022D0008C818F5F8C83DF91CF9108955F926F9295
:1022E0007F928F929F92AF92BF92CF92DF92EF92A6
:1022F000FF920F931F93CF93DF9300D000D0CDB701
:10230000DEB7182F762E042F622E90910C0690FFC8
:1023100029C0E92FE695AE2FB0E0AB5CBE4F8C91A3
:10232000809311069E7F923089F59E012F5F3F4F6B
:10233000812F0E94E7084B8169818A810E94DD100C
:1023400010930D0670920E0600930F06662051F052
:1023500060910C0670910D0680910E0690910F060B
:102360000E94220D0F900F900F900F90DF91CF9150
:102370001F910F91FF90EF90DF90CF90BF90AF90A3
:102380009F908F907F906F905F900895823019F4A6
:1023900000910F06D5CF863019F410910D06D0CFDD
:1023A0008930D9F3893161F6E9518E2F8170582E29
:1023B000E695F0E0EA55FD4FA590B490BB248EEC75
:1023C000E82E81E0F82ED12CC12C9FE0892E912C93
:1023D000C601B4010E946C2A812F511013C0860FD0
:1023E0009701402F672D0E94E708CA0CDB1C84E090
:1023F000E80EF11C8AE0E81682E0F80649F70E9430
:10240000340E9ECF861BECCFECE0F6E043812CE04F
:10241000421B08F440E021E0628181810C946E113E
:10242000ECE0F6E043812CE0420F08F44FEF21E0AE
:10243000628181810C946E11ECE0F6E062812FEFF5
:10244000621B08F460E021E0438181810C946E11ED
:10245000ECE0F6E062812FEF620F08F46FEF21E00D
:10246000438181810C946E11ECE0F6E0818121E0E2
:10247000438162818C500C946E11ECE0F6E0818116
:1024800021E043816281845F0C946E11ECE0F6E000
:1024900080818E7F808360817181828193810E949F
:1024A000220D109212062FEF80E792E0215080401B
:1024B0009040E1F700C000000C94340E80E290E000
:1024C00090931D0180931C018091C00181110EC069
:1024D0000E94992981E08093C0012FEF83ED90E362
:1024E000215080409040E1F700C0000064E670E0B9
:1024F00080E40E949F2990931D0180931C01892BE9
:1025000009F04EC064E670E080E00E94FB299093E1
:102510001D0180931C01892B09F042C064E670E024
:1025200080E00E94FB2990931D0180931C01892B60
:10253000B9F564E670E08FE30E94FB2990931D01DA
:1025400080931C01892B61F50E944E2A64E670E09D
:1025500080E40E949F2990931D0180931C01892B88
:10256000F9F464E670E08CE00E94FB2990931D0171
:1025700080931C01892BA1F464E670E080E00E9446
:10258000FB2990931D0180931C01892B49F464E67B
:1025900070E08FE30E94FB2990931D0180931C0142
:1025A0000E944E2A80911C010895CF93873050F5E8
:1025B00080911C0190911D01C0E0892B71F464E6AB
:1025C00070E081E40E949F2990931D0180931C017B
:1025D000892B31F0C0E00E944E2A8C2FCF910895B4
:1025E00084E690E00E942A2A97FF05C090931D017F
:1025F00080931C01EFCFC82FC09510921D0110923F
:102600001C01E9CFCFB18FB1869586958C73C370CD
:102610008C2BC82FC095E1CF1F920F920FB60F924F
:1026200011242F933F934F935F936F937F938F93D7
:102630009F93AF93BF93EF93FF938091E10082FF4D
:1026400009C08091E20082FF05C08091E1008B7F8C
:102650008093E1008091DA0080FF24C08091D8004F
:1026600080FF20C08091DA008E7F8093DA00809115
:10267000D90080FF9BC080E189BD82E189BD09B49A
:1026800000FEFDCF81E080935A06809135068111CE
:1026900009C00E94EA030E94B7048091E2008460AE
:1026A0008093E2008091E10080FF17C08091E200FA
:1026B00080FF13C08091E2008E7F8093E2008091C2
:1026C000E20080618093E2008091D8008062809374
:1026D000D80019BC85E080935A068091E10084FF00
:1026E00029C08091E20084FF25C080E189BD82E19C
:1026F00089BD89B5982F917080FFFBCF8091D8005C
:102700008F7D8093D8008091E1008F7E8093E100DF
:102710008091E2008F7E8093E2008091E2008160F0
:102720008093E20080915B06882309F445C084E031
:1027300080935A068091E10083FF27C08091E200D8
:1027400083FF23C08091E100877F8093E10082E0D6
:1027500080935A0610925B068091E1008E7F8093F1
:10276000E1008091E2008E7F8093E2008091E200A0
:1027700080618093E20042E060E080E00E94850496
:102780008091F00088608093F000FF91EF91BF91FD
:10279000AF919F918F917F916F915F914F913F91F9
:1027A0002F910F900FBE0F901F90189519BC10928B
:1027B0005A061092350676CF8091E30087FD93E0AC
:1027C00090935A06B7CF78941F921FB61F92112488
:1027D0008F939F93AF93BF938091D7059091D80526
:1027E000A091D905B091DA050196A11DB11D809384
:1027F000D7059093D805A093D905B093DA05BF917A
:10280000AF919F918F911F901FBE1F9018952FB76A
:10281000F8948091D7059091D805A091D905B091F1
:10282000DA052FBF08950E9407149C0190911A06A3
:1028300080911B06982B21F03093180620931706E1
:1028400090911C0680911D06982B21F0309315065F
:1028500020931406E091F305F091F405309731F0E0
:102860000480F581E02D89E196E0099408951092A5
:10287000D0051092CF050E94E00785E0E9E1F6E07F
:10288000DF011D928A95E9F7109216061092130641
:102890001092DB050E94131490E080E00E94B108C2
:1028A00090E080E00C949B086093D3057093D4056E
:1028B0008093D5059093D6050C9437141092D105CA
:1028C00080912801E2EAF1E0882359F08091F00537
:1028D00087FF07C08EE1DF011D928A95E9F70C940E
:1028E000371486E0F8CF1F93CF93DF93CDB7DEB7D1
:1028F000AA970FB6F894DEBF0FBECDBF8CE596E069
:102900002091F100FC012193CF01F6E084369F076E
:10291000B9F780915D06893009F444C018F582301A
:1029200009F4B9C0833009F46EC0813031F580916B
:102930005C06813A11F58091E800877F8093E8007A
:102940008091600690916106892B41F560E288E3F1
:1029500096E070E00E9477058091E8008B77809385
:10296000E8000BC08B3009F46BC008F483C08234DC
:1029700009F4A2C0853409F4BCC08091E80083FF4B
:1029800050C280915C0690915D069A3008F049C271
:10299000E92FF0E0E850F34D0C94942A60E090E0C9
:1029A00080E0D7CF80915C06813239F78091600654
:1029B00090916106009711F00297F9F68091E80076
:1029C000877F8093E8008091E80082FF17C0909194
:1029D000F3008091F200029729F48091F1008B7F3F
:1029E000813021F48091F100809337068091E800D6
:1029F0008B778093E8000E946604BFCF80915A06CF
:102A00008111E1CFBACF80915C06813A09F0B5CF50
:102A10008091600690916106892B09F0AECF80917C
:102A2000E800877F8093E8008091E80080FFFCCF7A
:102A3000809128018093F1008091E8008E77D9CFB2
:102A400080915C06813209F098CF80916006909168
:102A50006106892B09F091CF8091E800877F8093F0
:102A6000E8000E94660480915E06809328010E941F
:102A70005E1483CF80915C06813209F07ECF809115
:102A8000E800877F8093E8000E94660480915F06DB
:102A90008093360672CF80915C06813A09F06DCF43
:102AA0008091E800877F8093E8008091E80080FFB4
:102AB000FCCF80913606BECF80915C06803C09F049
:102AC0005CCF8091600690916106029739F5809104
:102AD0005E0690915F06892B09F58091E800877F5B
:102AE0008093E8006BE170E08AE696E00E941805AA
:102AF00082CF80915C06803C09F03FCF80916006D8
:102B000090916106079751F48091E800877F809348
:102B1000E80062EB70E088EB95E0E8CF8091EB0095
:102B200080628093EB0029CF803899F0823809F0D9
:102B300078C1809160068F70873008F072C18093F1
:102B4000E9008091EB0085FB882780F91092E9006D
:102B500006C080915806909159069111826090911B
:102B6000E800977F9093E8008093F1001092F100C5
:102B70008091E8008E7751C1882309F43FC18230EB
:102B800009F04FC180915E06811142C180916006BB
:102B90008F702FEF280F263008F043C18093E90093
:102BA0002091EB0020FF34C1933031F48091EB0091
:102BB00080628093EB002CC19091EB009061909328
:102BC000EB0021E030E001C0220F8A95EAF7209364
:102BD000EA001092EA008091EB008860EACF811150
:102BE00020C110915E061F778091E3008078812BD1
:102BF0008093E3008091E800877F8093E8000E9443
:102C000066048091E80080FFFCCF8091E30080683B
:102C10008093E30082E0111183E080935A0601C1A2
:102C20008058823008F0FDC080915E0690915F066A
:102C30008C3D23E09207A1F583E08A838AE28983B1
:102C40004FB7F894DE01139620E03EE051E2E32F07
:102C5000F0E050935700E49120FF03C0E295EF703D
:102C60003F5FEF708E2F90E0EA30C0F0C7968D93F3
:102C70009D932F5F243159F74FBF8091E800877FE4
:102C80008093E8006AE270E0CE0101960E94770529
:102C90008091E8008B778093E800C3C0C096E7CFAF
:102CA0002091600630916106492F55274330510528
:102CB00051F1A0F44130510509F459C06BE670E0C0
:102CC00086E896E04230510509F0ABC02091E8005B
:102CD000277F2093E8000E941805DACF4132510582
:102CE00039F14232510591F14F30510509F099C047
:102CF000EFE5F7E0649170E08DE597E0611571050F
:102D000009F48FC0E3CF99278130910571F00097C6
:102D100031F0029709F085C0E3E0F7E002C0E9E591
:102D2000F7E0649170E0CF01E9CFE7E2F7E0F9CF97
:102D30002330310508F075C0220F331FF901E65624
:102D4000FE4F8081918169E070E0C0CF2330310572
:102D500008F067C0F901EE0FFF1FEC56FE4F8081AF
:102D600091812F563E4FF901608170E0C7CF62E13B
:102D700070E081EF96E0AACF803809F052C08091D0
:102D8000E800877F8093E80080915B068093F100E4
:102D9000EFCE811146C010915E06123008F041C09E
:102DA0008091E800877F8093E80010935B060E9483
:102DB0006604112311F084E005C08091E30087FDD3
:102DC000FACF81E080935A0642E061EC81E00E94F4
:102DD000850442E061EC82E00E94850442E261ECFD
:102DE00083E00E94850442E361EC84E00E94850454
:102DF00042E360EC85E00E94850413C080915E068A
:102E0000813079F481E0933009F080E080935906B5
:102E10001092E9008091E800877F8093E8000E948B
:102E200066048091E80083FF0AC08091E800877FF4
:102E30008093E8008091EB0080628093EB00AA967B
:102E40000FB6F894DEBF0FBECDBFDF91CF911F91BB
:102E500008951F920F920FB60F9211242F933F9354
:102E60004F935F936F937F938F939F93AF93BF9392
:102E7000CF93DF93EF93FF93D091E900DF708091C0
:102E8000EC00C82FC17080FDC0E81092E90080916D
:102E9000F000877F8093F00078940E947314109262
:102EA000E9008091F00088608093F000CD2BCF7016
:102EB000C093E900FF91EF91DF91CF91BF91AF9166
:102EC0009F918F917F916F915F914F913F912F9142
:102ED0000F900FBE0F901F9018958823B1F19CEFB3
:102EE000980F913A38F4682F80EA91E00E942E07FB
:102EF0000C94E00790E2980F983088F4877021E0F6
:102F000030E0A90102C0440F551F8A95E2F7CA01BB
:102F100080959091D10589238093D105E9CF9BE5D8
:102F2000980F933020F490E080E00C94B10898E57D
:102F3000980F973120F490E080E00C949B08803F3C
:102F400020F00E94F0050C9413140895CF93C82F1D
:102F5000882309F46EC08CEF8C0F813AB8F580910C
:102F60002801882311F18091F00587FF1EC0EC2F06
:102F7000E695E695E695F0E0E056FE4F828190E01A
:102F80004C2F477021E030E002C0220F331F4A95DA
:102F9000E2F782239323892B89F06C2F80EA91E05A
:102FA0000E942E070E94E00709C0E2EAF1E0819149
:102FB000C81799F381E0E83AF807C9F76C2F80EA5F
:102FC00091E00E945807CF910C94E00780E28C0FAB
:102FD000883068F4C77021E030E001C0220FCA9544
:102FE000EAF78091D105822B8093D105ECCFEBE5F8
:102FF000EC0FE33040F4F0E0E05AFE4F808190E0C7
:10300000CF910C94B108E8E5EC0FE73150F4F0E013
:10301000EE0FFF1FED59FE4F80819181CF910C94EF
:103020009B08C03F30F08C2F0E94B706CF910C94C4
:103030001314CF9108950F931F93CF93DF93C62F4F
:10304000D42F022FFC0182818823A1F060936606B1
:103050000E9407149093650680936406C77081E010
:1030600001C0880FCA95EAF7DF91CF911F910F91A8
:103070000C94910880916606681338C080916406AC
:10308000909165060E941F07883C910578F510E233
:103090001D0FCD17B9F080E28C0F883040F4C77057
:1030A00081E001C0880FCA95EAF70E9486081830AF
:1030B00048F481E09D2F977001C0880F9A95EAF738
:1030C0000E949108802F0E94A617802F0E946D17E2
:1030D000183098F4D77081E001C0880FDA95EAF7CC
:1030E000DF91CF911F910F910C948608C77081E0FA
:1030F00001C0880FCA95EAF7F3CFDF91CF911F91F6
:103100000F91089560910C06669570E04BE050E0D9
:103110008AE091E00E94302C892B19F481E08093A1
:1031200012060E94071490930706809306060895DE
:1031300090910C0690FF36C09170811129C0926069
:1031400090930C06662351F060910C0670910D0669
:1031500080910E0690910F060E94220D60910C0640
:10316000669570E04BE050E08AE091E00E94302CE0
:10317000892BA9F01092120681E08093090620E0C5
:1031800040910F0660910E0680910D060C946E1111
:103190008B3210F09465D4CF880F982BD1CF0E943A
:1031A0008218EACF0895ECE0F6E0808181608083A8
:1031B00060E086950C94981861E00C949818ECE007
:1031C000F6E080818160808386950C94DC18809184
:1031D0000C068695815009F48AE261E00C949818F7
:1031E00080910C0686958F5F8B3208F081E061E05C
:1031F0000C94981890910C0690FF07C0969598171C
:1032000020F0961710F40C94F0180C94DC18CF9260
:10321000DF92EF92FF92CF93DF936B017C010E94CC
:103220008D07D82F0E94D60B0E94D30B0E94D00B83
:103230000E94CD0BC0915D05EFEFED0FE73008F078
:1032400050C0F0E0EE5FF24D0C94942A0E94DF0B28
:10325000C11157C00E94D31860E081E00E94981805
:1032600020E048E963ED8AE24AC00E94DC0BC1110C
:1032700048C00E94D31860E081E00E94981820E0C6
:1032800047ED67ED8CE13BC00E94DF0B0E94DC0B39
:10329000C11137C088E090E00E94452C60930C0675
:1032A00070930D0680930E0690930F0660FF32C058
:1032B0000E94DF1880910C0686950E94DC1821E0A0
:1032C00040910F0660910E0680910D0618C00E9475
:1032D000DF0B0E94D90BDCCF0E94DF0B0E94DC0BBE
:1032E000F8CFD111D5CFC1110CC00E94D31860E026
:1032F00081E00E94981820E048E86DE782E80E948B
:103300006E11C701B601DF91CF91FF90EF90DF9072
:10331000CF9008950E944612F4CFCF92DF92EF92A1
:10332000FF92CF93DF9300D000D0CDB7DEB70E94DD
:1033300007196B017C0180913206882321F080916E
:103340003306811115C0C0922E06D0922F06E0924E
:103350003006F09231060E9437140F900F900F90B4
:103360000F90DF91CF91FF90EF90DF90CF90089575
:10337000198282E08A83C701B6010E948D078B8380
:103380008EEF8C8364E0CE0101960E94D905DBCFDD
:103390000F931F9341E050E060E070E004C0440FE1
:1033A000551F661F771F8A95D2F7CB01BA0160952A
:1033B00070958095909500912E0610912F06209182
:1033C00030063091310660237123822393231F91AD
:1033D0000F910C948D199091CE058095892380933F
:1033E000CE05282F277071F4282F082E000C330BE0
:1033F0009217130639F08595859585950E94C81911
:103400001092CE0508950F931F9341E050E060E0C5
:1034100070E004C0440F551F661F771F8A95D2F7CE
:1034200080912E0690912F06A0913006B091310622
:103430008A019B01082B192B2A2B3B2BC901B801B0
:103440001F910F910C948D1960E070E0CB010C94EA
:103450008D194F925F926F927F928F929F92AF924F
:10346000BF92CF92DF92EF92FF920F931F93CF9371
:10347000DF9300D000D00F92CDB7DEB77C01FC0106
:1034800083819481892B39F01081D180812F8D2106
:103490008F3F09F0BEC60F900F900F900F900F90C6
:1034A000DF91CF911F910F91FF90EF90DF90CF9020
:1034B000BF90AF909F908F907F906F905F904F9054
:1034C00008950E945D0B082F682F89819A810E94C0
:1034D0004E08E12FF0E026E0D29EE00DF11D112410
:1034E00034E5039FE00DF11D1124EE0FFF1FE5559C
:1034F000FC4F0591149180915C05811127C1F70162
:10350000828181110CC00530FDE51F0709F4E3C07D
:1035100008F09AC004303DE5130709F4BBC0809160
:103520003206882321F08091330681115EC60A326B
:10353000FDE51F0709F0B3C1F70182818823C9F1B6
:103540008091DE0591E0980F9770887F953008F4A0
:10355000892B8093DE058091DE058770FFEF8F9FBA
:10356000C0011124959587959595879599279093F6
:1035700089008093880090938B0080938A009093B9
:103580008D0080938C004091DE055091DF056091A5
:10359000E0057091E1058FE090E00E94632C60915E
:1035A0002E0670912F0680913006909131060E9470
:1035B0000719F7019281992309F43CC61092660617
:1035C0000230FCE51F0708F4B3C206312CE51207F0
:1035D00038F098012B5F3C452730310508F0A8C230
:1035E0000E94140D9093F1058093F0050F303CE597
:1035F000130709F47EC208F0F8C108309CE51907EA
:1036000009F461C208F0CDC10430FCE51F0709F4DC
:103610004EC208F0B3C102303CE5130709F43FC2C3
:1036200003301C4509F43FC26091F0051091F1058B
:1036300084E090E00E94512C612F81E290E00E9492
:10364000512C0E945E1439C007308DE5180709F42B
:1036500057C008309DE5190709F061CFC0901801E7
:10366000D090190180902E0690902F06A0903006E1
:10367000B09031060E945E140E94241A04E515E001
:10368000C016D10609F451C0C8010E94291A06507B
:103690001109F6CF11E0109359020E9407140E94FD
:1036A000DF0B0E945E140E94241A8AE592E0909338
:1036B0005B0580935A0510935C058091CE05877059
:1036C00009F4E9CEF7018281882309F4E4CE82E08F
:1036D0000E94EB19E0CE81E0809359020E9407140A
:1036E0000E94DF0B0E945E140E94241A84E595E07C
:1036F00090935B0580935A0582E080935C05DDCF53
:10370000C0901A01D0901B0180902E0690902F0639
:10371000A0903006B09031060E945E140E94241AD8
:103720000AE512E0C016D10659F40E945E14809298
:103730002E0690922F06A0923006B0923106BDCF91
:10374000C8010E94291A0A5F1F4FECCF980124502C
:103750003D452330310508F051C091E006301D454C
:1037600009F490E0F7012281291709F4A6CF8130EE
:1037700029F0823019F110925C059FCF00915A0513
:1037800010915B051092590260912E0670912F06E0
:1037900080913006909131060E940719F2E00A35B7
:1037A0001F0729F0F80136978281811105C0109317
:1037B0001B0100931A01DFCF8F01F0CF00915A0552
:1037C00010915B051092590260912E0670912F06A0
:1037D00080913006909131060E94071925E004354A
:1037E000120729F0F80136968281811105C01093E5
:1037F000190100931801BFCF8F01F0CF813031F153
:10380000823009F08CCE20911A0130911B01A091D9
:103810005A05B0915B05F7018281811105C0F5E081
:10382000A435BF0709F47BCECD01069628173907CA
:1038300009F475CE86E0F70101900D928A95E1F7C3
:1038400080915A0590915B05069722C0209118013E
:1038500030911901A0915A05B0915B05F701828161
:10386000811105C0F2E0AA35BF0709F458CECD0199
:1038700006972817390709F452CE86E0F701019020
:103880000D928A95E1F780915A0590915B05069615
:1038900090935B0580935A0542CE81E1ACC40C3213
:1038A0002DE5120721F10D323DE51307A9F10B3289
:1038B0008DE5180729F1043FFCE51F0709F44FC007
:1038C000E0F5093D3CE5130709F445C00A3D8CE5E8
:1038D000180709F450C0083D9CE5190709F069CEA6
:1038E00026E241EE61EEC7010E941B18E6CEF70109
:1038F0008281882309F4E1CE81E00E94DC18DDCECC
:10390000F7018281882309F4D8CE80915D0591E08A
:10391000892780935D05D1CEF7018281882309F440
:10392000CCCE0E94DF1881E00E94DC1821E04FEF2E
:103930006FEF81E80E946E11C0CE063FECE51E07D6
:10394000B1F088F0073F2CE5120709F032CE27E2EC
:1039500045EE66EEC8CF27E245EE65EEC4CF26E21F
:1039600041EE60EEC0CF27E245EE64EEBCCF26E22A
:1039700041EE62EEB8CF28E241E0EFCF8091F00552
:10398000806106309CE5190709F447C08091F00575
:10399000886007301C4508F440C08091F0058062C3
:1039A0003CC00B30FCE51F0709F49BC068F40930EC
:1039B0003CE5130709F48BC00A301C4509F034CEEE
:1039C0008091F0058C6029C08091F0058B7F0D30CF
:1039D0009CE5190711F18091F0058D7F0E301C4593
:1039E000E0F08091F005877F18C00B3FFCE51F07D2
:1039F00009F461C060F502313CE5130709F481C0A8
:103A000078F400319CE5190709F477C08091F0053E
:103A10008F7B01311C4509F007CE8093F00504CE61
:103A20000431FCE51F0709F47AC008F470C00531C1
:103A30001C4509F0F9CD8091F00582FB992790F99A
:103A400021E0922790FB82F990FB83F9E6CF0E3FAD
:103A50008CE5180709F449C070F40C3FECE51E072B
:103A600071F18091F1058E7F0D3F1C4509F0DCCD91
:103A70008093F105D9CD01152DE5120709F44BC04E
:103A800060F101301D4509F0CFCD8091F105982FEF
:103A9000909591708E7F892B90FB81F9E9CF809171
:103AA000F0058160BACF8091F0058260B6CF809139
:103AB000F0058460B2CF8091F1058160D9CF80910B
:103AC000F1058260D5CF8091F0058064A6CF0E9479
:103AD0005E148091F0058068A0CF8091F10583602D
:103AE000C7CF8091F0058E7F98CF8091F1058D7FB3
:103AF000BFCF8091F0058F7E90CF8091F0058F7DB4
:103B00008CCF0E945E148091F0058F7786CF8091D4
:103B1000F005837F82CF8091F1058C7FA9CF0E9431
:103B20005E149091F005892F97FB87F9805875CF27
:103B30008091D1050631ECE51E0709F089C38A7A28
:103B400091E009F490E090935E0569E2811165E3EC
:103B500080EA91E00E9458070E94E007AECD809174
:103B60000C0680FF03C00E944612A7CD0E94DF18FA
:103B7000A4CD47EE58E160EF78E10E94D3089DCDD7
:103B800040EF58E167EE78E1F8CF44E352E16DE3AE
:103B900072E1F3CF4DE352E164E372E1EECF4CE129
:103BA00052E168E272E1E9CF48E252E16CE172E190
:103BB000E4CF44E052E160E172E1DFCF40E152E165
:103BC00064E072E1DACF44E35DE065E47DE0D5CF07
:103BD00045E45DE064E37DE0D0CF65E082E00E94F3
:103BE000FA186BCD68E086E0FACF6EE089E0F7CF97
:103BF00064E18FE0F4CF67E185E1F1CF88E17DCE2C
:103C000062E289E1ECCF83E278CE0F3DFCE51F074D
:103C100009F446C009302DE5120709F444C0011526
:103C20001C4509F047C00E945E148FEF94E3ECE05E
:103C300081509040E040E1F700C00000F89481E03E
:103C40008093E00080E28093D8001092C9008FE159
:103C50009EE40197F1F700C000001DBA10926800C1
:103C60001CBC10BE1FBA10927A0010926E00109207
:103C70006F0010927100109272001092C9001092A1
:103C8000BC0014B817B81AB81DB810BA1092BC000E
:103C900015B818B81BB81EB811BA0C94003F0DCD5A
:103CA0000E94650D0ACD8091340691E089278093AA
:103CB000340603CDF70100811181992309F43DC039
:103CC000C8010E945D0BD82E682FC8010E944E08C3
:103CD000B8018D2D0E94C1098C01882EF701A580A5
:103CE000A2944FE0A422D280D1101092D0058091EE
:103CF000CE05877099F0DD2089F0812F807F803498
:103D000021F080E2800F883048F082E00E94EB19B9
:103D10008091CE058770CC24C3948111C12CB12E23
:103D2000B2943FE0B322FBE0FB1508F440C0EB2D5A
:103D3000F0E0E75FF24D0C94942AC8010E94250838
:103D4000D82EC6CF212F2F70A22E107F19F0A2944B
:103D500020EFA222DD20C9F0AA2069F080E2800FC6
:103D6000883010F081100BC08091D105A82AA09254
:103D7000D1050E94E007802F0E94A61718C08091ED
:103D8000D005A82AA092D005F4CF802F0E946D17ED
:103D9000AA2069F0A094005E083010F0811046C09F
:103DA0008091D105A822A092D1050E94E0072B2D79
:103DB0002850330B2430310510F40E94C708CC2062
:103DC000A9F08091CE0580FD11C0F7011282859582
:103DD000859585950E94031AC7010E94291A809132
:103DE000CE058595859585950E94C81985E0F701D2
:103DF000DE01119601900D928A95E1F789819A81F1
:103E00000E9425089A81E981F0E026E0929FE00D6A
:103E1000F11D112434E5839FE00DF11D1124EE0FF7
:103E2000FF1FE555FC4F8591949135CB8091D005CE
:103E3000A822A092D005B9CF312F3F70932E107FCA
:103E4000103219F0929490EF9922882041F081E08D
:103E5000881631F1DD2079F1AA2041F18CCFDD20E7
:103E600091F09091D205892F8929A11003C00E9459
:103E700091089DCFE1E0AE12FACF981709F497CFE1
:103E80008093D20594CFA11006C00E94DA07892D35
:103E90000E9486088CCFF1E0AF1609F488CFF5CFE9
:103EA000DD2031F021E02A1508F481CF892DDFCF04
:103EB000A1107DCFECCFAA2051F339E383128EC13C
:103EC0008FEF97EEE3E081509040E040E1F700C0D3
:103ED000000084C1812F86958695837061F08130C2
:103EE00009F065CFC8019370D11002C090E080E066
:103EF0000E949B085CCFC8019370D11002C090E073
:103F000080E00E94B10853CF802FDD2029F00E946D
:103F1000B7060E9413144BCF0E94F005FACF812FF1
:103F2000837009F066C0D11042CF802F82958695AC
:103F30008770880F880F602F6F70462E512C712C60
:103F4000612C082E04C0440C551C661C771C0A9476
:103F5000D2F740E050E0BA0104FF0FC04FE050E05C
:103F600060E070E004C0440F551F661F771F8A95FC
:103F7000D2F74095509560957095812F86958695DE
:103F80008370823019F1D8F40091D3051091D405D3
:103F90002091D5053091D605813069F04429552905
:103FA00066297729CB01BA016023712382239323E9
:103FB0000E945414FCCE402A512A622A732ACB0153
:103FC000BA016429752986299729F2CF44295529F0
:103FD000662977290091D3051091D4052091D50544
:103FE0003091D605CB01BA0160277127822793272C
:103FF000DFCF8695DD2011F0812F8170882309F4B1
:10400000D6CE802F829586958770880F880F602F77
:104010006F70462E512C712C612C082E04C0440C5C
:10402000551C661C771C0A94D2F740E050E0BA0198
:1040300004FF0FC04FE050E060E070E004C0440FA8
:10404000551F661F771F8A95D2F74095509560954A
:104050007095812F869586958370823019F1D8F4FA
:1040600000912E0610912F062091300630913106D6
:10407000813069F04429552966297729CB01BA0195
:1040800060237123822393230E948D1990CE402AAE
:10409000512A622A732ACB01BA016429752986291B
:1040A0009729F2CF442955296629772900912E06B0
:1040B00010912F062091300630913106CB01BA01C4
:1040C0006027712782279327DFCF1F70DD2029F01B
:1040D000812F0E94031A802FCACE802F0E9486084B
:1040E000812F0E94C81963CE802FF2EF8F1609F43A
:1040F0004EC0F81578F020EF821619F131EF8316D3
:1041000009F43DC0DD2009F464C0A11034CE812F34
:104110008F713AC093EF891609F43EC0E4EF8E1216
:10412000F1CFDD2009F44AC01F71812F0E94031ACC
:1041300028E0129FC001112483608093CE05812F57
:1041400023C0DD20B9F0A11032CE1F7161E070E014
:1041500080E090E004C0660F771F881F991F1A95B2
:10416000D2F700912E0610912F0620913006309143
:104170003106A6CFF1E0FA1508F419CEE6CF812F6B
:104180008F71DD2009F4ADCF0E94031A10CE812F6C
:104190008F71DD20C9F3A5CFDD2069F01F7161E0CB
:1041A00070E080E090E004C0660F771F881F991FC1
:1041B0001A95D2F769CF0E94241AF9CD81E00E94A6
:1041C000EB1931E03A1508F0F2CD82E00E94EB19CC
:1041D000EECDAA2039F0893309F472CE802F0E94E7
:1041E0006D17E5CD812F8F717CCF1982F701828108
:1041F000811153CB82E18A83F70180818B83818196
:104200008C838EEF8D8365E0CE0101960E94D905E7
:104210008EC985E0DE01119601900D928A95E1F735
:10422000F701228189819A8121114BC90E942508B9
:10423000082F4FC906311C4509F03CCD80915E0521
:1042400069E2811165E380EA91E00E942E0784CC47
:104250008272F801E35CFC45E431F10508F0D5CC4D
:10426000EB5EF24D0C94942A1F93CF93DF938091D1
:104270006405807FA9F480916105882389F080918D
:104280009605D091650560915F0570916005A091DC
:104290006205B0916305C62FC72316E0D81304C08A
:1042A000DF91CF911F91089590E0109711F0CF3FCB
:1042B00019F401968770F2CF189F9001199F300D65
:1042C0001124F901EA59FA4F41814713F2CF408195
:1042D0004613EFCF42814111ECCF438154814A1BF9
:1042E0005B0B483C510528F7809164058F70806115
:1042F00080936405F901E559FA4F80818F708061E0
:1043000080838FE595E00E94291ADF91CF911F915C
:104310000C947C08AF92BF92CF92DF92EF92FF9203
:104320000F931F93CF93DF93CDB7DEB761970FB68F
:10433000F894DEBF0FBECDBF8C0185E0F801DE0131
:104340001D9601900D928A95E1F7F8018081918187
:10435000E2802FE5A22E25E0B22E609162057091D9
:1043600063056115710509F43EC130915F05409107
:104370006005232F24232F3F09F435C1C380D48047
:10438000F0906105F601E61BF70BFF2009F4FBC076
:1043900020916405522F507FE83CF10508F0BBC026
:1043A000511178C0FE2C491321C038131FC0E110F1
:1043B0001DC02F70206120936405C5010E94291A39
:1043C00080916405F80185838F2D61960FB6F8946E
:1043D000DEBF0FBECDBFDF91CF911F910F91FF9038
:1043E000EF90DF90CF90BF90AF900895CD2829F047
:1043F000282F29232F3F09F014C120E0F22FF1705C
:10440000DF2E20FF3DC0209196054091650556E0C6
:10441000241315C08D879E878D859E850E949F0BD6
:10442000292F22952F702230F8F0243020F59F702C
:10443000F9F0F8019581907FD9F4D12C1FC030E0BC
:10444000529FF001539FF00D1124EA59FA4F6181F8
:10445000961306C06081861303C06281E61210C005
:104460002F5F3F4F2770D4CF9F7011F0882329F31F
:10447000805E883010F3C8010E94291AFD2CA4CF59
:10448000EE2009F4A1CF80916405816080936405DA
:10449000F12C9ACF491312C0381310C0E1100EC08E
:1044A000F8012583C8010E94291A86E0F801AFE5CA
:1044B000B5E001900D928A95E1F786CF8D879E87B2
:1044C0008D859E850E94A90B882309F1EE20F9F0C5
:1044D00080916405803270F020915F053091600515
:1044E00038872F831986DB86CA868C87CE0107968C
:1044F0000E94291A86E0F801AFE5B5E001900D921F
:104500008A95E1F70E943421FF24F3945DCFC8011E
:104510000E94291AF9CF51110AC08FE595E00E9437
:10452000291A86E0F50111928A95E9F7B1CF49136E
:104530000FC038130DC0E1100BC0F8012583C8016E
:104540000E94291A86E0F50111928A95E9F73CCF7D
:104550008D879E878D859E850E94A90B8823B9F241
:10456000EE20A9F280916405803220F220915F054F
:10457000309160053A8329831B82DD82CC828E8351
:10458000CE010196B5CFE83CF105E0F6FE2CEE2019
:1045900009F4BDCF491316C0381314C080916405C7
:1045A00080FD83CF982F907F09F47FCFF80185831A
:1045B000903F09F477CF982F907F905F8F70892B71
:1045C000858370CF8D879E878D859E850E94A90BE0
:1045D000811190CF80916405816080936405C8014A
:1045E0000E94291AF1CEEE2009F491CF8D879E8783
:1045F0008D859E850E94A90BF82E882309F487CF0C
:1046000086E0F801AFE5B5E001900D928A95E1F7FB
:1046100080915F05909160050E949F0B0E9434215C
:10462000D3CE21E02E25EACE1F93CF93DF93CDB7D3
:10463000DEB767970FB6F894DEBF0FBECDBF4B8BCA
:104640005C8B6D8B7E8B8F8B1A8A198A85E0FE01BD
:104650007396DE011D9601900D928A95E1F786E032
:10466000FE013D96DE01179601900D928A95E1F7C5
:10467000CE0107960E948A21811112C086E0FE01B8
:104680003796DE01119601900D928A95E1F78A85A1
:104690009B85892B29F08F81988589238F3FB1F5E0
:1046A00016E0809196059091650589131DC0679667
:1046B0000FB6F894DEBF0FBECDBFDF91CF911F9133
:1046C000089596E0929FD001939FB00D1124AA59AE
:1046D000BA4FFE01319601900D929A95E1F78093C1
:1046E00065050E947C08DCCF819FC00111248A5996
:1046F0009A4F0E948A218823D1F28091960590E0FA
:1047000001968770992780939605CBCF20916505F8
:1047100030E0C901019687709927409196054817A6
:10472000190679F60E945E1410926505109296059E
:1047300086E0EFE5F5E0DF011D928A95E9F7B0CF5D
:104740008F929F92BF92CF92DF92EF92FF920F9340
:104750001F93CF93DF9380911C0190911D01892BB2
:1047600091F08091C1018F5F8093C10181110BC0D5
:104770000E945E1290E090931D0180931C01892B92
:1047800011F40E949A0C22EE822E25E0922E7401E2
:1047900010E000E097E0C92EC00E802F0E94E00DCF
:1047A0008C2D0E94E00D802F0E94D512E701999177
:1047B0007E01D12C891729F0FE0131978083DD24F9
:1047C000D3948C2D0E94D512F7019681891709F494
:1047D0007AC0868381E08D29182B0E94E20B0F5F3F
:1047E0000730C1F60E9407146091C3017091C401A3
:1047F0009093C4018093C3012091C20130E0261B35
:10480000370B820F931F6BEF70E00E946C2AE82E2B
:10481000392F082F8093C201F090C601FF2009F4C0
:10482000B4C01092C601E091DC05F091DD05AF0146
:10483000425F5F4F20E08BEFB82E6BEF70E0A191ED
:10484000AB3F99F0CA2ED12C8E2D932F0A17E8F189
:104850008C199D09092E000CAA0BBB0B4E97A105C4
:10486000B105C8F1DF011197BC92E417F50739F7DC
:104870002093C601111102C0211189C01092C501F7
:10488000A091DC05B091DD059091C601E8EFF5E05F
:1048900080E03191E40129914E01321751F03C91B1
:1048A0003B3FD9F40C93AF0141505109EA012883F1
:1048B00091E01196D6E0E630FD0759F79093C601D6
:1048C0008093C50168C080E086CFDB01AC19BD09CB
:1048D0008A0F9B1FBFCF2F2DC8CF81E0EACF9170E9
:1048E000892B09F469C08091C9019091CA01813076
:1048F000984780F01092340660912E0670912F0632
:1049000080913006909131060E9407191092CA01D9
:104910001092C9018091C9019091CA0101969093AA
:10492000CA018093C90180915902882369F00E94CD
:10493000D30B8091C7018F5F8093C701853610F03C
:104940000E94DF0B0E940714812FDF91CF911F91EE
:104950000F91FF90EF90DF90CF90BF909F908F903E
:1049600008950E94DC0B2EC0892BE9F21092CA0137
:104970001092C90160912E0670912F068091300629
:10498000909131060E940719CECF111177CF8091F7
:10499000C501811173CF8091C9019091CA01209105
:1049A0003406222309F3009709F099CF0E94D30B14
:1049B0000E94D00B0E94CD0BC091C801CC2389F27C
:1049C0000E94D00B81E0C827C093C8018CCFCDB71F
:1049D000DEB7C955D1090FB6F894DEBF0FBECDBF03
:1049E00084B7877F84BF0FB6F894A8958091600044
:1049F000886180936000109260000FBE80E890E0B4
:104A00000FB6F89480936100909361000FBE85B754
:104A1000806885BF85B7806885BF0E94EA030E94D1
:104A2000B7048091E20084608093E20078948091E2
:104A30005A068823A1F01091E9001F709091EC00B4
:104A4000892F817090FD80E8182B1092E9008091E9
:104A5000E80083FD0E9473141F701093E90082E048
:104A600084BD93E095BD9AEF97BD80936E000E9440
:104A70005E1290E090931D0180931C010E94E20B56
:104A80000E94F10BE2EEF5E028EF622E25E0722E97
:104A9000D30111921D9225E0E03FF207D1F78EE09D
:104AA00090E00E94052B8093DC059093DD05FC01CE
:104AB0000E962BEF21938E179F07E1F790E080E091
:104AC0000E944B2C8F3E9E4F11F00E94650D89EA8B
:104AD0008093800089E08093810024982C983F98EF
:104AE0008AB18F7C8AB96E98479A8BB180638BB9F3
:104AF000769A8FE090E00E94452C6093DE057093DB
:104B0000DF058093E0059093E10567708FEF689F64
:104B1000B001112475956795759567957727709302
:104B200089006093880070938B0060938A00709373
:104B30008D0060938C000E949A0C90E080E00E94AF
:104B40004B2C8F3E9E4F11F00E94650D82E090E04D
:104B50000E943D2C80931F060E94140D9093F10536
:104B60008093F00583E090E00E943D2C682F70E078
:104B700090E080E00E94541460912E0670912F0600
:104B800080913006909131060E9407198091F205BC
:104B9000811136C090E080E00E944B2C8F3E9E4FEA
:104BA00021F00E94650D0E94560D88E090E00E9461
:104BB000452C60930C0670930D0680930E0690931F
:104BC0000F066E7F71F40E94560D88E090E00E94FF
:104BD000452C60930C0670930D0680930E069093FF
:104BE0000F060E94D8081092120680910C0680FFD2
:104BF00004C060E086950E94981881E08093F205D9
:104C000060912E0670912F068091300690913106AA
:104C10000E9407198EE191E09093F4058093F305CB
:104C200018E1C12ED12C06E0A02E06E0B02E81E4C2
:104C3000882E912C8C0E9D1E22E0820E911C80915C
:104C40005A068530D9F4A0E4FA2EBEE0EB2EE60C2D
:104C50005524539400E112E180915A06853009F4FD
:104C6000A1C10E945E140E94C7081092F7058091AE
:104C7000F60581110E94D3180E9482180E94A02379
:104C8000E0E2F6E0A8EFB5E010E000E0302F8D9113
:104C90002191281709F4EDC190E0FF24F39428270F
:104CA000422F4F2109F4E0C161969FAF6197629650
:104CB0003FAF62978F2191E009F490E063969FAF38
:104CC00063970E9407148160782F65969FAF8EAF1F
:104CD000659761964FAD619762965FAD62976396F7
:104CE0006FAD639765968FAD65970E941423F801A9
:104CF000E05EF94F8081F826F082809112068823C9
:104D000009F441C080911106E0910C06E695E81B7C
:104D1000E0930806823009F0D3C1F0E0EC54FA4F7A
:104D2000E4910E2F10E0FAE4EF2EF1E1FF2E8091D6
:104D30000906882389F0109209060E940714980139
:104D400020953095820F931F909307068093060657
:104D500010920B0610920A068091060690910706A3
:104D60000E941F078017910770F0E0910606F091EE
:104D700007060E0F1F1F109307060093060686E016
:104D800096E0F701099585E0E9E1F6E0DE0111968C
:104D900001900D928A95E1F7F0901A06E0901B06BB
:104DA00010911C0600911D0610921A0610921B0607
:104DB00010921C0610921D068F2D8E2909F448C0F2
:104DC00080911706909118060E941F079C019091F0
:104DD0001606992309F482C225313105C8F19F3F97
:104DE00019F09F5F90931606FF2059F00E949306DA
:104DF0009FEF1F140CF491E0899F802D1124809364
:104E00001A06EE2059F00E9493069FEF1E140CF430
:104E100091E0899F802D112480931B0630911A0602
:104E20003323B1F020911B06222391F045EB34038C
:104E3000C0011124992309F4AFC190931A0645EBE0
:104E4000240390011124332309F4AAC130931B06D3
:104E5000812F802B09F448C080911406909115068B
:104E60000E941F079C0190911306992309F431C2F7
:104E700025313105C8F19F3F19F09F5F90931306CC
:104E8000112359F00E9473069FEF11160CF491E064
:104E9000899F802D112480931C06002359F00E94C5
:104EA00073069FEF10160CF491E0899F802D11245A
:104EB00080931D0630911C063323B1F020911D060E
:104EC000222391F045EB3403C0011124992309F406
:104ED0006BC190931C0645EB2403900111243323EE
:104EE00009F466C130931D0680911A0690911B0645
:104EF000892B90911C06892B90911D06892B11F00E
:104F00000E94131485E0FE013196A9E1B6E00190FC
:104F10000D928A95E1F70E94C70890911E068917A5
:104F200021F00E94C70880931E0680915A068430A3
:104F300009F085CE85E08093E9008091E80082FF4A
:104F40007ECE8091E80090E085FF06C00E940904B3
:104F5000882309F431C191E08091E8008B77809338
:104F6000E800992309F46BCE1981111141C1809198
:104F70003406882309F457C11092340681E08093E7
:104F8000330622961FAE229723961FAE23978EEFED
:104F900024968FAF249763E0CE018F5B9F4F0E94D2
:104FA000D9054DCE80915A06843009F43DC0109247
:104FB000F5050FB6F894A895C09260000FBEF09268
:104FC0006000109212068091F705811116C0509270
:104FD000F70580910C06982F91709093F6058E7FBF
:104FE00080930C064FEF80E792E041508040904064
:104FF000E1F700C000000E94340E83B7817F846017
:1050000083BF83B7816083BF7894889583B78E7F91
:1050100083BF0FB6F894A895809160008861809353
:105020006000109260000FBE80915906882309F439
:1050300013CE0E945E1290E090931D0180931C019C
:105040000E94E20B0E94F10BE8EFF5E01192AE1620
:10505000BF06E1F70E94A023E8EFF5E081918111FE
:1050600022C1EE12FBCFF8CD9F5FFF0C963009F006
:1050700017CE0F5F1F4F0E30110509F007CE8FEFCF
:1050800066968FAF669767968FAF679768961FAEE5
:1050900068970E9407148160782F6A969FAF8EAF41
:1050A0006A9766964FAD669767965FAD6797689605
:1050B0006FAD68976A968FAD6A970E9414231DCED4
:1050C000863059F4F0E0EF54FA4FE4910E2F10E0DF
:1050D000EEE5EE2EE1E1FE2E2ACE893061F4E69572
:1050E000F0E0E255FA4FE4910E2F10E072E3E72E64
:1050F0007FE0F72E1CCE8F3061F4E695F0E0E555A9
:10510000FA4FE4910E2F10E06CE5E62E6FE0F62EDC
:105110000ECE853159F4F0E0E855FA4FE4910E2FA8
:1051200010E05BECE52E5FE0F52E01CE08E210E02A
:105130002BE1E22E20E1F22E883109F4F8CD833202
:1051400049F4E6EAF5E0059114914FEEE42E40E1D2
:10515000F42EEDCD04EF11E094EAE92E90E1F92E62
:10516000843209F4E4CD853281F48E2F63E00E940D
:10517000522AE92FF0E0ED55FA4FE4910E2F10E09E
:1051800039EAE32E3EE0F32ED2CD00ED17E085EDB7
:10519000E82E85E0F82ECBCD81E080931A064FCE25
:1051A00081E080931B0654CE81E080931C0693CE51
:1051B00081E080931D0698CE00E410E0CE010196B8
:1051C0007C018091E80085FD0AC08091E8008B7722
:1051D0008093E8000E940904882399F3BCCE809153
:1051E000F100F70181937F010150110951F7B3CE0E
:1051F0001130C9F422961FAE229723961FAF239732
:105200008CE0E9E2F1E0D40101900D928A95E1F79A
:105210008EEF60968FAF60976FE0CE018F5B9F4FF0
:105220000E94D9050CCD809133068823D1F112302C
:1052300041F01330F9F081E022968FAF229761E0C0
:10524000ABCE60912E0670912F0680913006909122
:1052500031060E948D0722961FAE229723961FAF1C
:10526000239724968FAF24978EEF25968FAF25979F
:1052700064E092CE8A81813041F0882341F082300F
:10528000D1F681E08093320602C010923206229657
:105290001FAE229783E023968FAF2397809132062B
:1052A000E0CF8FEFC9CF09BD19BD09B400FEFDCF16
:1052B0008091D8008F7D8093D8008091E00082603B
:1052C0008093E0008091E00081FDFCCF0E945E149D
:1052D000C3CC2139314008F0D0CD06CE232B09F0C4
:1052E00080CDB6CD1F921FB61F9211248F939F932E
:1052F000AF93BF938091F505811113C08091D705BD
:105300009091D805A091D905B091DA054196A11DDB
:10531000B11D8093D7059093D805A093D905B0937C
:10532000DA05BF91AF919F918F911F901FBE1F9083
:1053300018951092B9008CE08093B8000895EF9210
:10534000FF920F931F93CF93DF93182FEB011092CF
:10535000BC0084EA8093BC000E9407147C01809109
:10536000BC0087FF27C08091B900887F883029F072
:105370008091B900887F8031D9F51093BB0084E813
:105380008093BC000E9407148C018091BC0087FFB1
:1053900024C02091B900287F90E080E02831B1F04E
:1053A00081E090E0203411F490E080E091958195C7
:1053B00091090CC0CF3FDC0791F20E9407148E19AF
:1053C0009F098C179D0758F28EEF9FEFDF91CF91C9
:1053D0001F910F91FF90EF900895CF3FDC07A9F246
:1053E0000E940714801B910B8C179D0770F2ECCF65
:1053F0008FEF9FEFEBCF0F931F93CF93DF93EB01D3
:105400008093BB0084E88093BC000E9407148C0149
:105410008091BC0087FF11C02091B900287F81E0F6
:1054200090E0283211F490E080E091958195910907
:10543000DF91CF911F910F910895CF3FDC0741F38A
:105440000E940714801B910B8C179D0708F38EEFA9
:105450009FEFEECF0F931F93CF93DF93EC0184E880
:105460008093BC000E9407148C018091BC0087FFD0
:1054700008C08091BB0090E0DF91CF911F910F9108
:105480000895CF3FDC0789F30E940714801B910B1E
:105490008C179D0750F38EEF9FEFEECF84E980933A
:1054A000BC000895991B79E004C0991F961708F075
:1054B000961B881F7A95C9F78095089587FB082E5B
:1054C000062687FD819567FD61950E94522A0EF49C
:1054D000919507FC81950895AA1BBB1B51E107C05C
:1054E000AA1FBB1FA617B70710F0A61BB70B881F74
:1054F000991F5A95A9F780959095BC01CD01089503
:1055000097FB072E16F4009407D077FD09D00E9470
:105510006C2A07FC05D03EF4909581959F4F089525
:10552000709561957F4F0895EE0FFF1F0590F491E0
:10553000E02D09940E94D92C332312F48A1B9B0B73
:105540000C94A42A0E94D92CB7FF0895821B930BB8
:1055500008958F929F92AF92BF92CF92DF92EF9277
:10556000FF92CF93DF93EC01688179818A819B81DF
:10557000611571058105910521F464E279ED8BE5F2
:1055800097E02DE133EF41E050E00E94852C490186
:105590005A019B01AC01A7EAB1E40E94A42C6B0163
:1055A0007C01ACEEB4EFA50194010E94B22CDC01A9
:1055B000CB018C0D9D1DAE1DBF1DB7FF03C0019714
:1055C000A109B04888839983AA83BB839F77DF9121
:1055D000CF91FF90EF90DF90CF90BF90AF909F90D2
:1055E0008F9008950E94A92A089580E091E00E947A
:1055F000A92A0895B0E0A0E08093000190930101F2
:10560000A0930201B093030108950F931F93CF93CA
:10561000DF938230910510F482E090E0E09169061A
:10562000F0916A0630E020E0B0E0A0E0309799F415
:105630002115310509F447C0281B390B24303105E9
:10564000C0F58A819B816115710571F1FB0193831E
:105650008283FE0111C0408151810281138148176C
:105660005907F8F04817590799F4109761F0129606
:105670000C93129713961C933296CF01DF91CF9122
:105680001F910F9108950093690610936A06F4CF55
:105690002115310519F04217530718F49A01BD017D
:1056A000EF01DF01F801C2CF90936A06809369068B
:1056B000D0CFFE01E20FF31F819391932250310965
:1056C00039832883DACF2091670630916806232B2F
:1056D00041F4209106013091070130936806209330
:1056E000670620910401309105012115310541F42F
:1056F0002DB73EB74091080150910901241B350B8D
:1057000040916706509168064217530708F0B5CFDD
:10571000241B350B2817390708F4AFCFBC016E5F87
:105720007F4F2617370708F4A8CF640F751F7093B3
:10573000680660936706FA01819391939ECFCF9399
:10574000DF930097E9F0FC01329713821282C09137
:105750006906D0916A06DE0130E020E02097A1F4CE
:1057600020813181820F931F209167063091680656
:105770002817390709F067C0F0936806E0936706B9
:10578000DF91CF910895DA01AE17BF0708F040C04E
:1057900012964D915C9113979D014115510599F712
:1057A000D9011396FC93EE9312974D915D91A40F3E
:1057B000B51FEA17FB0779F4808191810296840F67
:1057C000951FD90111969C938E9382819381139694
:1057D0009C938E931297B0E0A0E08A819B81009702
:1057E000B9F5FE0181919191E80FF91F809167064B
:1057F000909168068E179F0719F6109761F5109221
:105800006A0610926906D0936806C0936706B8CFFF
:10581000B383A28340815181840F951FA817B907D4
:1058200071F44E5F5F4F8D919C911197480F591FF6
:105830005183408312968D919C919383828321158D
:10584000310509F0ADCFF0936A06E093690698CF71
:10585000DE01EC01C2CF13961C921E921297D3CF99
:10586000FC014150504030F001900616D1F73197BD
:10587000CF010895882799270895F999FECF92BD01
:1058800081BDF89A992780B50895A6E1B0E044E07B
:1058900050E00C94772CA8E1B0E042E050E00C948A
:1058A000772C262FF999FECF92BD81BDF89A0197EA
:1058B00000B4021639F01FBA20BD0FB6F894FA9A58
:1058C000F99A0FBE08950396272F0E94522C0E942A
:1058D000512C252F0E94522C242F0C94522C0196CF
:1058E000272F0E94522C0C94512CDC01CB01FC017F
:1058F000F999FECF06C0F2BDE1BDF89A319600B429
:105900000D9241505040B8F70895052E97FB1EF4B4
:1059100000940E949C2C57FD07D00E94B72C07FCD6
:1059200003D04EF40C949C2C5095409530952195C5
:105930003F4F4F4F5F4F08959095809570956195BB
:105940007F4F8F4F9F4F08950E94D92CA59F900D98
:10595000B49F900DA49F800D911D11240895B7FF51
:105960000C94A42C0E94A42C821B930B0895A1E2FA
:105970001A2EAA1BBB1BFD010DC0AA1FBB1FEE1FC9
:10598000FF1FA217B307E407F50720F0A21BB30B14
:10599000E40BF50B661F771F881F991F1A9469F790
:1059A00060957095809590959B01AC01BD01CF01EC
:1059B0000895A29FB001B39FC001A39F700D811DE8
:1059C0001124911DB29F700D811D1124911D089508
:1059D000F894FFCFB80BB80BC10BC10BC30BC10BB5
:1059E000C10BC10BB80BB80BC80BC10BC10BC80B5B
:1059F0009415BC151117BC151117EF1510161117BA
:105A0000BC16C916261935196919441967196E1972
:105A10006C19A21EA21E1C1F1C1F6A1F841FD71EEA
:105A2000D71E8F1F652074207420AF1DB91DC01DA7
:105A3000C51DCA1DCF1DD41DD91DDE1DE31DE81DCA
:105A40007C1CED1DF21DF51DF81DFB1DFE1D001E2D
:025A5000031E33
:105A52000100000000006B06200001191A1B1C1D2A
:105A62001E1F20212201020154055A022000D605E0
:105A72005A0C390C350C310C014F79716A572F527F
:105A8200416A763400000102020202060606090992
:105A9200090909090F0F0F0F0F0F151515181919FD
:105AA2001919191919191919232425252525252507
:105AB200818283E200E900EA00B500B600B700CDBA
:105AC200008301CC008A0192019401210223022465
:105AD200022502260227022A02B300B4006F0070D8
